{
  "contractName": "AuthenticatedProxy",
  "abi": [
    {
      "anonymous": false,
      "inputs": [
        {
          "indexed": true,
          "internalType": "address",
          "name": "sender",
          "type": "address"
        },
        {
          "indexed": false,
          "internalType": "uint256",
          "name": "amount",
          "type": "uint256"
        }
      ],
      "name": "ReceivedEther",
      "type": "event"
    },
    {
      "anonymous": false,
      "inputs": [
        {
          "indexed": true,
          "internalType": "address",
          "name": "from",
          "type": "address"
        },
        {
          "indexed": false,
          "internalType": "uint256",
          "name": "value",
          "type": "uint256"
        },
        {
          "indexed": true,
          "internalType": "address",
          "name": "token",
          "type": "address"
        },
        {
          "indexed": false,
          "internalType": "bytes",
          "name": "extraData",
          "type": "bytes"
        }
      ],
      "name": "ReceivedTokens",
      "type": "event"
    },
    {
      "anonymous": false,
      "inputs": [
        {
          "indexed": false,
          "internalType": "bool",
          "name": "revoked",
          "type": "bool"
        }
      ],
      "name": "Revoked",
      "type": "event"
    },
    {
      "inputs": [],
      "name": "implementation",
      "outputs": [
        {
          "internalType": "address",
          "name": "",
          "type": "address"
        }
      ],
      "stateMutability": "view",
      "type": "function"
    },
    {
      "inputs": [],
      "name": "proxyType",
      "outputs": [
        {
          "internalType": "uint256",
          "name": "proxyTypeId",
          "type": "uint256"
        }
      ],
      "stateMutability": "pure",
      "type": "function"
    },
    {
      "inputs": [
        {
          "internalType": "address",
          "name": "from",
          "type": "address"
        },
        {
          "internalType": "uint256",
          "name": "value",
          "type": "uint256"
        },
        {
          "internalType": "address",
          "name": "token",
          "type": "address"
        },
        {
          "internalType": "bytes",
          "name": "extraData",
          "type": "bytes"
        }
      ],
      "name": "receiveApproval",
      "outputs": [],
      "stateMutability": "nonpayable",
      "type": "function"
    },
    {
      "inputs": [],
      "name": "registry",
      "outputs": [
        {
          "internalType": "contract ProxyRegistry",
          "name": "",
          "type": "address"
        }
      ],
      "stateMutability": "view",
      "type": "function"
    },
    {
      "inputs": [],
      "name": "revoked",
      "outputs": [
        {
          "internalType": "bool",
          "name": "",
          "type": "bool"
        }
      ],
      "stateMutability": "view",
      "type": "function"
    },
    {
      "inputs": [],
      "name": "upgradeabilityOwner",
      "outputs": [
        {
          "internalType": "address",
          "name": "",
          "type": "address"
        }
      ],
      "stateMutability": "view",
      "type": "function"
    },
    {
      "inputs": [],
      "name": "user",
      "outputs": [
        {
          "internalType": "address",
          "name": "",
          "type": "address"
        }
      ],
      "stateMutability": "view",
      "type": "function"
    },
    {
      "inputs": [],
      "name": "version",
      "outputs": [
        {
          "internalType": "string",
          "name": "",
          "type": "string"
        }
      ],
      "stateMutability": "view",
      "type": "function"
    },
    {
      "stateMutability": "payable",
      "type": "receive"
    },
    {
      "inputs": [
        {
          "internalType": "address",
          "name": "addrUser",
          "type": "address"
        },
        {
          "internalType": "contract ProxyRegistry",
          "name": "addrRegistry",
          "type": "address"
        }
      ],
      "name": "initialize",
      "outputs": [],
      "stateMutability": "nonpayable",
      "type": "function"
    },
    {
      "inputs": [
        {
          "internalType": "bool",
          "name": "revoke",
          "type": "bool"
        }
      ],
      "name": "setRevoke",
      "outputs": [],
      "stateMutability": "nonpayable",
      "type": "function"
    },
    {
      "inputs": [
        {
          "internalType": "address",
          "name": "dest",
          "type": "address"
        },
        {
          "internalType": "enum DataType.HowToCall",
          "name": "howToCall",
          "type": "uint8"
        },
        {
          "internalType": "bytes",
          "name": "data",
          "type": "bytes"
        }
      ],
      "name": "proxy",
      "outputs": [
        {
          "internalType": "bool",
          "name": "result",
          "type": "bool"
        }
      ],
      "stateMutability": "nonpayable",
      "type": "function"
    },
    {
      "inputs": [
        {
          "internalType": "address",
          "name": "dest",
          "type": "address"
        },
        {
          "internalType": "enum DataType.HowToCall",
          "name": "howToCall",
          "type": "uint8"
        },
        {
          "internalType": "bytes",
          "name": "data",
          "type": "bytes"
        }
      ],
      "name": "proxyAssert",
      "outputs": [],
      "stateMutability": "nonpayable",
      "type": "function"
    }
  ],
  "bytecode": "0x60806040526001805460a060020a60ff021916905534801561002057600080fd5b50610a66806100306000396000f3fe6080604052600436106100c8576000357c01000000000000000000000000000000000000000000000000000000009004806354fd4d501161008157806354fd4d50146101f45780635c60da1b1461024a57806363d256ce146102685780636fde8202146102895780637b103999146102a75780638f4ffcb1146102c757600080fd5b80631b0f7ba9146101095780633f801f911461013e5780634555d5c914610160578063485cc9551461017c5780634c93505f1461019c5780634f8632ba146101bc57600080fd5b366101045760405134815233907fa419615bc8fda4c87663805ee2a3597a6d71c1d476911d9892f340d965bc7bf19060200160405180910390a2005b600080fd5b34801561011557600080fd5b506101296101243660046107ac565b6102e7565b60405190151581526020015b60405180910390f35b34801561014a57600080fd5b5061015e6101593660046107ac565b610562565b005b34801561016c57600080fd5b5060405160028152602001610135565b34801561018857600080fd5b5061015e610197366004610774565b61057d565b3480156101a857600080fd5b5061015e6101b7366004610915565b6105f3565b3480156101c857600080fd5b506002546101dc90600160a060020a031681565b604051600160a060020a039091168152602001610135565b34801561020057600080fd5b5061023d6040518060400160405280600381526020017f312e30000000000000000000000000000000000000000000000000000000000081525081565b60405161013591906109af565b34801561025657600080fd5b50600054600160a060020a03166101dc565b34801561027457600080fd5b506003546101299060a060020a900460ff1681565b34801561029557600080fd5b50600154600160a060020a03166101dc565b3480156102b357600080fd5b506003546101dc90600160a060020a031681565b3480156102d357600080fd5b5061015e6102e236600461083c565b610673565b600254600090600160a060020a03163314806103a7575060035460a060020a900460ff161580156103a757506003546040517f69dc9ff3000000000000000000000000000000000000000000000000000000008152336004820152600160a060020a03909116906369dc9ff39060240160206040518083038186803b15801561036f57600080fd5b505afa158015610383573d6000803e3d6000fd5b505050506040513d601f19601f820116820180604052508101906103a79190610938565b610411576040517f08c379a000000000000000000000000000000000000000000000000000000000815260206004820152601360248201527f2176616c69642070726f78792073656e64657200000000000000000000000000604482015260640160405180910390fd5b600084600181111561044c577f4e487b7100000000000000000000000000000000000000000000000000000000600052602160045260246000fd5b14156104b95784600160a060020a0316838360405161046c92919061099f565b6000604051808303816000865af19150503d80600081146104a9576040519150601f19603f3d011682016040523d82523d6000602084013e6104ae565b606091505b50508091505061055a565b60018460018111156104f4577f4e487b7100000000000000000000000000000000000000000000000000000000600052602160045260246000fd5b141561055a5784600160a060020a0316838360405161051492919061099f565b600060405180830381855af49150503d806000811461054f576040519150601f19603f3d011682016040523d82523d6000602084013e610554565b606091505b50909150505b949350505050565b61056e848484846102e7565b61057757600080fd5b50505050565b60015460a060020a900460ff161561059457600080fd5b6001805474ff0000000000000000000000000000000000000000191660a060020a17905560028054600160a060020a0393841673ffffffffffffffffffffffffffffffffffffffff199182161790915560038054929093169116179055565b600254600160a060020a0316331461060a57600080fd5b6003805482151560a060020a0274ff0000000000000000000000000000000000000000199091161790556040517f2165014523a6f4135deffed62d70149aad59b64de5aac51e3abbcbe2a83e2f7e9061066890831515815260200190565b60405180910390a150565b6040517f23b872dd000000000000000000000000000000000000000000000000000000008152600160a060020a038581166004830152306024830152604482018590528391908216906323b872dd90606401602060405180830381600087803b1580156106df57600080fd5b505af11580156106f3573d6000803e3d6000fd5b505050506040513d601f19601f820116820180604052508101906107179190610938565b61072057600080fd5b82600160a060020a031685600160a060020a03167fd65b48fd35864b3528d38e44760be5553248f89bf3ff6b06cca57817cc2650bf86856040516107659291906109c2565b60405180910390a35050505050565b60008060408385031215610786578182fd5b823561079181610a0a565b915060208301356107a181610a0a565b809150509250929050565b600080600080606085870312156107c1578182fd5b84356107cc81610a0a565b93506020850135600281106107df578283fd5b9250604085013567ffffffffffffffff808211156107fb578384fd5b818701915087601f83011261080e578384fd5b81358181111561081c578485fd5b88602082850101111561082d578485fd5b95989497505060200194505050565b60008060008060808587031215610851578384fd5b843561085c81610a0a565b935060208501359250604085013561087381610a0a565b9150606085013567ffffffffffffffff8082111561088f578283fd5b818701915087601f8301126108a2578283fd5b8135818111156108b4576108b46109db565b604051601f8201601f19908116603f011681019083821181831017156108dc576108dc6109db565b816040528281528a60208487010111156108f4578586fd5b82602086016020830137918201602001949094529598949750929550505050565b600060208284031215610926578081fd5b813561093181610a22565b9392505050565b600060208284031215610949578081fd5b815161093181610a22565b60008151808452815b818110156109795760208185018101518683018201520161095d565b8181111561098a5782602083870101525b50601f01601f19169290920160200192915050565b8183823760009101908152919050565b6020815260006109316020830184610954565b82815260406020820152600061055a6040830184610954565b7f4e487b7100000000000000000000000000000000000000000000000000000000600052604160045260246000fd5b600160a060020a0381168114610a1f57600080fd5b50565b8015158114610a1f57600080fdfea2646970667358221220dda9d1c70a98f68fe4a2e6bbdd7841a9a8c4f3845b772bfdddcbed06e5a1042a64736f6c63430008040033",
  "immutableReferences": {},
  "source": "// SPDX-License-Identifier: MIT\npragma solidity ^0.8.0;\n\nimport {TokenRecipient} from './TokenRecipient.sol';\nimport {OwnedUpgradeabilityStorage} from './OwnedUpgradeabilityStorage.sol';\nimport {OwnedUpgradeabilityProxy} from './OwnedUpgradeabilityProxy.sol';\nimport {ProxyRegistry} from './ProxyRegistry.sol';\nimport {OwnableDelegateProxy} from './OwnableDelegateProxy.sol';\nimport {DataType} from './libraries/DataType.sol';\nimport {IAuthenticatedProxy} from './interfaces/IAuthenticatedProxy.sol';\n\ncontract AuthenticatedProxy is TokenRecipient, OwnedUpgradeabilityStorage, IAuthenticatedProxy {\n\n    /* Whether initialized. */\n    bool initialized = false;\n\n    /* Address which owns this proxy. */\n    address public user;\n\n    /* Associated registry with contract authentication information. */\n    ProxyRegistry public registry;\n\n    /* Whether access has been revoked. */\n    bool public revoked;\n\n    string public constant version = \"1.0\";\n\n    /* Delegate call could be used to atomically transfer multiple assets owned by the proxy contract with one order. */\n    // enum HowToCall { Call, DelegateCall }\n\n    /* Event fired when the proxy access is revoked or unrevoked. */\n    event Revoked(bool revoked);\n\n    /**\n     * Initialize an AuthenticatedProxy\n     *\n     * @param addrUser Address of user on whose behalf this proxy will act\n     * @param addrRegistry Address of ProxyRegistry contract which will manage this proxy\n     */\n    function initialize (address addrUser, ProxyRegistry addrRegistry)\n        public\n    {\n        require(!initialized);\n        initialized = true;\n        user = addrUser;\n        registry = addrRegistry;\n    }\n\n    /**\n     * Set the revoked flag (allows a user to revoke ProxyRegistry access)\n     *\n     * @dev Can be called by the user only\n     * @param revoke Whether or not to revoke access\n     */\n    function setRevoke(bool revoke)\n        public\n    {\n        require(msg.sender == user);\n        revoked = revoke;\n        emit Revoked(revoke);\n    }\n\n    /**\n     * Execute a message call from the proxy contract\n     *\n     * @dev Can be called by the user, or by a contract authorized by the registry as long as the user has not revoked access\n     * @param dest Address to which the call will be sent\n     * @param howToCall Which kind of call to make\n     * @param data Calldata to send\n     * @return result Result of the call (success or failure)\n     */\n    function proxy(address dest, DataType.HowToCall howToCall, bytes calldata data)\n        public\n        override\n        returns (bool result)\n    {\n        require(msg.sender == user || (!revoked && registry.contracts(msg.sender)), \"!valid proxy sender\");\n        if (howToCall == DataType.HowToCall.Call) {\n            (result,) = dest.call(data);\n        } else if (howToCall == DataType.HowToCall.DelegateCall) {\n            (result,) = dest.delegatecall(data);\n        }\n        return result;\n    }\n\n    /**\n     * Execute a message call and assert success\n     * \n     * @dev Same functionality as `proxy`, just asserts the return value\n     * @param dest Address to which the call will be sent\n     * @param howToCall What kind of call to make\n     * @param data Calldata to send\n     */\n    function proxyAssert(address dest, DataType.HowToCall howToCall, bytes calldata data)\n        public\n        override\n    {\n        require(proxy(dest, howToCall, data));\n    }\n\n}\n",
  "sourcePath": "/Users/liyu/Mars/gitlab/element-contract/contracts/elementix/AuthenticatedProxy.sol",
  "compiler": {
    "name": "solc",
    "version": "0.8.4+commit.c7e474f2.Emscripten.clang"
  },
  "schemaVersion": "3.4.0",
  "updatedAt": "2021-05-01T09:04:55.826Z",
  "devdoc": {
    "kind": "dev",
    "methods": {
      "implementation()": {
        "details": "Tells the address of the current implementation",
        "returns": {
          "_0": "address of the current implementation"
        }
      },
      "initialize(address,address)": {
        "params": {
          "addrRegistry": "Address of ProxyRegistry contract which will manage this proxy",
          "addrUser": "Address of user on whose behalf this proxy will act"
        }
      },
      "proxy(address,uint8,bytes)": {
        "details": "Can be called by the user, or by a contract authorized by the registry as long as the user has not revoked access",
        "params": {
          "data": "Calldata to send",
          "dest": "Address to which the call will be sent",
          "howToCall": "Which kind of call to make"
        },
        "returns": {
          "result": "Result of the call (success or failure)"
        }
      },
      "proxyAssert(address,uint8,bytes)": {
        "details": "Same functionality as `proxy`, just asserts the return value",
        "params": {
          "data": "Calldata to send",
          "dest": "Address to which the call will be sent",
          "howToCall": "What kind of call to make"
        }
      },
      "proxyType()": {
        "details": "Tells the proxy type (EIP 897)",
        "returns": {
          "proxyTypeId": "Proxy type, 2 for forwarding proxy"
        }
      },
      "receiveApproval(address,uint256,address,bytes)": {
        "details": "Receive tokens and generate a log event",
        "params": {
          "extraData": "Additional data to log",
          "from": "Address from which to transfer tokens",
          "token": "Address of token",
          "value": "Amount of tokens to transfer"
        }
      },
      "setRevoke(bool)": {
        "details": "Can be called by the user only",
        "params": {
          "revoke": "Whether or not to revoke access"
        }
      },
      "upgradeabilityOwner()": {
        "details": "Tells the address of the owner",
        "returns": {
          "_0": "the address of the owner"
        }
      }
    },
    "version": 1
  },
  "userdoc": {
    "kind": "user",
    "methods": {
      "initialize(address,address)": {
        "notice": "Initialize an AuthenticatedProxy"
      },
      "proxy(address,uint8,bytes)": {
        "notice": "Execute a message call from the proxy contract"
      },
      "proxyAssert(address,uint8,bytes)": {
        "notice": "Execute a message call and assert success "
      },
      "setRevoke(bool)": {
        "notice": "Set the revoked flag (allows a user to revoke ProxyRegistry access)"
      }
    },
    "version": 1
  }
}