{
  "contractName": "ElementixTokenTransferProxy",
  "abi": [
    {
      "inputs": [
        {
          "internalType": "contract ProxyRegistry",
          "name": "registryAddr",
          "type": "address"
        }
      ],
      "stateMutability": "nonpayable",
      "type": "constructor"
    },
    {
      "inputs": [],
      "name": "name",
      "outputs": [
        {
          "internalType": "string",
          "name": "",
          "type": "string"
        }
      ],
      "stateMutability": "view",
      "type": "function",
      "constant": true
    },
    {
      "inputs": [],
      "name": "registry",
      "outputs": [
        {
          "internalType": "contract ProxyRegistry",
          "name": "",
          "type": "address"
        }
      ],
      "stateMutability": "view",
      "type": "function",
      "constant": true
    },
    {
      "inputs": [
        {
          "internalType": "address",
          "name": "token",
          "type": "address"
        },
        {
          "internalType": "address",
          "name": "from",
          "type": "address"
        },
        {
          "internalType": "address",
          "name": "to",
          "type": "address"
        },
        {
          "internalType": "uint256",
          "name": "amount",
          "type": "uint256"
        }
      ],
      "name": "transferFrom",
      "outputs": [
        {
          "internalType": "bool",
          "name": "",
          "type": "bool"
        }
      ],
      "stateMutability": "nonpayable",
      "type": "function"
    },
    {
      "inputs": [],
      "name": "version",
      "outputs": [
        {
          "internalType": "string",
          "name": "",
          "type": "string"
        }
      ],
      "stateMutability": "view",
      "type": "function",
      "constant": true
    }
  ],
  "bytecode": "0x608060405234801561001057600080fd5b506040516104dc3803806104dc83398101604081905261002f91610054565b60008054600160a060020a031916600160a060020a0392909216919091179055610082565b600060208284031215610065578081fd5b8151600160a060020a038116811461007b578182fd5b9392505050565b61044b806100916000396000f3fe608060405234801561001057600080fd5b5060043610610068577c0100000000000000000000000000000000000000000000000000000000600035046306fdde03811461006d57806315dacbea146100bf57806354fd4d50146100e25780637b1039991461011e575b600080fd5b6100a96040518060400160405280601c81526020017f456c656d656e74697820546f6b656e5472616e7366657250726f78790000000081525081565b6040516100b691906103c2565b60405180910390f35b6100d26100cd366004610351565b610163565b60405190151581526020016100b6565b6100a96040518060400160405280600381526020017f312e30000000000000000000000000000000000000000000000000000000000081525081565b60005461013e9073ffffffffffffffffffffffffffffffffffffffff1681565b60405173ffffffffffffffffffffffffffffffffffffffff90911681526020016100b6565b600080546040517f69dc9ff300000000000000000000000000000000000000000000000000000000815233600482015273ffffffffffffffffffffffffffffffffffffffff909116906369dc9ff39060240160206040518083038186803b1580156101cd57600080fd5b505afa1580156101e1573d6000803e3d6000fd5b505050506040513d601f19601f82011682018060405250810190610205919061039b565b61026f576040517f08c379a000000000000000000000000000000000000000000000000000000000815260206004820152601660248201527f216e6f7420726567697374727920636f6e747261637400000000000000000000604482015260640160405180910390fd5b6040517f23b872dd00000000000000000000000000000000000000000000000000000000815273ffffffffffffffffffffffffffffffffffffffff85811660048301528481166024830152604482018490528616906323b872dd90606401602060405180830381600087803b1580156102e757600080fd5b505af11580156102fb573d6000803e3d6000fd5b505050506040513d601f19601f8201168201806040525081019061031f919061039b565b95945050505050565b803573ffffffffffffffffffffffffffffffffffffffff8116811461034c57600080fd5b919050565b60008060008060808587031215610366578384fd5b61036f85610328565b935061037d60208601610328565b925061038b60408601610328565b9396929550929360600135925050565b6000602082840312156103ac578081fd5b815180151581146103bb578182fd5b9392505050565b6000602080835283518082850152825b818110156103ee578581018301518582016040015282016103d2565b818111156103ff5783604083870101525b50601f01601f191692909201604001939250505056fea2646970667358221220b77d8a4e081fac2423b4d8caa0fad10fde4281815f8346480c9d96698346a2f064736f6c63430008040033",
  "immutableReferences": {},
  "source": "// SPDX-License-Identifier: MIT\npragma solidity ^0.8.0;\n\nimport {TokenTransferProxy} from './TokenTransferProxy.sol';\nimport {ProxyRegistry} from './ProxyRegistry.sol';\n\n\ncontract ElementixTokenTransferProxy is TokenTransferProxy {\n\n    string public constant name = \"Elementix TokenTransferProxy\";\n    string public constant version = \"1.0\";\n\n    constructor (ProxyRegistry registryAddr)\n    {\n        registry = registryAddr;\n    }\n\n}",
  "sourcePath": "/Users/liyu/Mars/gitlab/element-contract/contracts/elementix/ElementixTokenTransferProxy.sol",
  "compiler": {
    "name": "solc",
    "version": "0.8.4+commit.c7e474f2.Emscripten.clang"
  },
  "schemaVersion": "3.4.0",
  "updatedAt": "2021-05-01T09:06:12.455Z",
  "networkType": "ethereum",
  "devdoc": {
    "kind": "dev",
    "methods": {
      "transferFrom(address,address,address,uint256)": {
        "details": "Authenticated contract only",
        "params": {
          "amount": "Transfer amount",
          "from": "From address",
          "to": "To address",
          "token": "ERC20 token address"
        }
      }
    },
    "version": 1
  },
  "userdoc": {
    "kind": "user",
    "methods": {
      "transferFrom(address,address,address,uint256)": {
        "notice": "Call ERC20 `transferFrom`"
      }
    },
    "version": 1
  }
}