{
  "contractName": "ElementSharedAsset",
  "abi": [
    {
      "inputs": [
        {
          "internalType": "string",
          "name": "_name",
          "type": "string"
        },
        {
          "internalType": "string",
          "name": "_symbol",
          "type": "string"
        },
        {
          "internalType": "address",
          "name": "_proxyRegistryAddress",
          "type": "address"
        },
        {
          "internalType": "string",
          "name": "_templateURI",
          "type": "string"
        }
      ],
      "stateMutability": "nonpayable",
      "type": "constructor"
    },
    {
      "anonymous": false,
      "inputs": [
        {
          "indexed": true,
          "internalType": "address",
          "name": "_owner",
          "type": "address"
        },
        {
          "indexed": true,
          "internalType": "address",
          "name": "_operator",
          "type": "address"
        },
        {
          "indexed": false,
          "internalType": "bool",
          "name": "_approved",
          "type": "bool"
        }
      ],
      "name": "ApprovalForAll",
      "type": "event"
    },
    {
      "anonymous": false,
      "inputs": [
        {
          "indexed": true,
          "internalType": "uint256",
          "name": "_id",
          "type": "uint256"
        },
        {
          "indexed": true,
          "internalType": "address",
          "name": "_creator",
          "type": "address"
        }
      ],
      "name": "CreatorChanged",
      "type": "event"
    },
    {
      "anonymous": false,
      "inputs": [
        {
          "indexed": true,
          "internalType": "address",
          "name": "previousOwner",
          "type": "address"
        },
        {
          "indexed": true,
          "internalType": "address",
          "name": "newOwner",
          "type": "address"
        }
      ],
      "name": "OwnershipTransferred",
      "type": "event"
    },
    {
      "anonymous": false,
      "inputs": [
        {
          "indexed": true,
          "internalType": "address",
          "name": "_operator",
          "type": "address"
        },
        {
          "indexed": true,
          "internalType": "address",
          "name": "_from",
          "type": "address"
        },
        {
          "indexed": true,
          "internalType": "address",
          "name": "_to",
          "type": "address"
        },
        {
          "indexed": false,
          "internalType": "uint256[]",
          "name": "_ids",
          "type": "uint256[]"
        },
        {
          "indexed": false,
          "internalType": "uint256[]",
          "name": "_amounts",
          "type": "uint256[]"
        }
      ],
      "name": "TransferBatch",
      "type": "event"
    },
    {
      "anonymous": false,
      "inputs": [
        {
          "indexed": true,
          "internalType": "address",
          "name": "_operator",
          "type": "address"
        },
        {
          "indexed": true,
          "internalType": "address",
          "name": "_from",
          "type": "address"
        },
        {
          "indexed": true,
          "internalType": "address",
          "name": "_to",
          "type": "address"
        },
        {
          "indexed": false,
          "internalType": "uint256",
          "name": "_id",
          "type": "uint256"
        },
        {
          "indexed": false,
          "internalType": "uint256",
          "name": "_amount",
          "type": "uint256"
        }
      ],
      "name": "TransferSingle",
      "type": "event"
    },
    {
      "anonymous": false,
      "inputs": [
        {
          "indexed": false,
          "internalType": "string",
          "name": "_amount",
          "type": "string"
        },
        {
          "indexed": true,
          "internalType": "uint256",
          "name": "_id",
          "type": "uint256"
        }
      ],
      "name": "URI",
      "type": "event"
    },
    {
      "inputs": [
        {
          "internalType": "address",
          "name": "_owner",
          "type": "address"
        },
        {
          "internalType": "uint256",
          "name": "_id",
          "type": "uint256"
        }
      ],
      "name": "balanceOf",
      "outputs": [
        {
          "internalType": "uint256",
          "name": "",
          "type": "uint256"
        }
      ],
      "stateMutability": "view",
      "type": "function",
      "constant": true
    },
    {
      "inputs": [
        {
          "internalType": "address[]",
          "name": "_owners",
          "type": "address[]"
        },
        {
          "internalType": "uint256[]",
          "name": "_ids",
          "type": "uint256[]"
        }
      ],
      "name": "balanceOfBatch",
      "outputs": [
        {
          "internalType": "uint256[]",
          "name": "",
          "type": "uint256[]"
        }
      ],
      "stateMutability": "view",
      "type": "function",
      "constant": true
    },
    {
      "inputs": [
        {
          "internalType": "address",
          "name": "caller",
          "type": "address"
        }
      ],
      "name": "checkIsOwner",
      "outputs": [
        {
          "internalType": "bool",
          "name": "",
          "type": "bool"
        }
      ],
      "stateMutability": "view",
      "type": "function",
      "constant": true
    },
    {
      "inputs": [
        {
          "internalType": "address",
          "name": "_user",
          "type": "address"
        },
        {
          "internalType": "address",
          "name": "_address",
          "type": "address"
        }
      ],
      "name": "checkIsProxyForUser",
      "outputs": [
        {
          "internalType": "bool",
          "name": "",
          "type": "bool"
        }
      ],
      "stateMutability": "view",
      "type": "function",
      "constant": true
    },
    {
      "inputs": [
        {
          "internalType": "uint256",
          "name": "_id",
          "type": "uint256"
        }
      ],
      "name": "exists",
      "outputs": [
        {
          "internalType": "bool",
          "name": "",
          "type": "bool"
        }
      ],
      "stateMutability": "view",
      "type": "function",
      "constant": true
    },
    {
      "inputs": [
        {
          "internalType": "address",
          "name": "_owner",
          "type": "address"
        },
        {
          "internalType": "address",
          "name": "_operator",
          "type": "address"
        }
      ],
      "name": "isApprovedForAll",
      "outputs": [
        {
          "internalType": "bool",
          "name": "isOperator",
          "type": "bool"
        }
      ],
      "stateMutability": "view",
      "type": "function",
      "constant": true
    },
    {
      "inputs": [],
      "name": "name",
      "outputs": [
        {
          "internalType": "string",
          "name": "",
          "type": "string"
        }
      ],
      "stateMutability": "view",
      "type": "function",
      "constant": true
    },
    {
      "inputs": [],
      "name": "owner",
      "outputs": [
        {
          "internalType": "address",
          "name": "",
          "type": "address"
        }
      ],
      "stateMutability": "view",
      "type": "function",
      "constant": true
    },
    {
      "inputs": [],
      "name": "proxyRegistryAddress",
      "outputs": [
        {
          "internalType": "address",
          "name": "",
          "type": "address"
        }
      ],
      "stateMutability": "view",
      "type": "function",
      "constant": true
    },
    {
      "inputs": [],
      "name": "renounceOwnership",
      "outputs": [],
      "stateMutability": "nonpayable",
      "type": "function"
    },
    {
      "inputs": [
        {
          "internalType": "address",
          "name": "_from",
          "type": "address"
        },
        {
          "internalType": "address",
          "name": "_to",
          "type": "address"
        },
        {
          "internalType": "uint256[]",
          "name": "_ids",
          "type": "uint256[]"
        },
        {
          "internalType": "uint256[]",
          "name": "_amounts",
          "type": "uint256[]"
        },
        {
          "internalType": "bytes",
          "name": "_data",
          "type": "bytes"
        }
      ],
      "name": "safeBatchTransferFrom",
      "outputs": [],
      "stateMutability": "nonpayable",
      "type": "function"
    },
    {
      "inputs": [
        {
          "internalType": "address",
          "name": "_from",
          "type": "address"
        },
        {
          "internalType": "address",
          "name": "_to",
          "type": "address"
        },
        {
          "internalType": "uint256",
          "name": "_id",
          "type": "uint256"
        },
        {
          "internalType": "uint256",
          "name": "_amount",
          "type": "uint256"
        },
        {
          "internalType": "bytes",
          "name": "_data",
          "type": "bytes"
        }
      ],
      "name": "safeTransferFrom",
      "outputs": [],
      "stateMutability": "nonpayable",
      "type": "function"
    },
    {
      "inputs": [
        {
          "internalType": "address",
          "name": "_operator",
          "type": "address"
        },
        {
          "internalType": "bool",
          "name": "_approved",
          "type": "bool"
        }
      ],
      "name": "setApprovalForAll",
      "outputs": [],
      "stateMutability": "nonpayable",
      "type": "function"
    },
    {
      "inputs": [
        {
          "internalType": "string",
          "name": "_uri",
          "type": "string"
        }
      ],
      "name": "setTemplateURI",
      "outputs": [],
      "stateMutability": "nonpayable",
      "type": "function"
    },
    {
      "inputs": [
        {
          "internalType": "address",
          "name": "",
          "type": "address"
        }
      ],
      "name": "sharedProxyAddresses",
      "outputs": [
        {
          "internalType": "bool",
          "name": "",
          "type": "bool"
        }
      ],
      "stateMutability": "view",
      "type": "function",
      "constant": true
    },
    {
      "inputs": [
        {
          "internalType": "address",
          "name": "_owner",
          "type": "address"
        },
        {
          "internalType": "uint256",
          "name": "_id",
          "type": "uint256"
        }
      ],
      "name": "superBalanceOf",
      "outputs": [
        {
          "internalType": "uint256",
          "name": "",
          "type": "uint256"
        }
      ],
      "stateMutability": "view",
      "type": "function",
      "constant": true
    },
    {
      "inputs": [],
      "name": "supportsFactoryInterface",
      "outputs": [
        {
          "internalType": "bool",
          "name": "",
          "type": "bool"
        }
      ],
      "stateMutability": "pure",
      "type": "function",
      "constant": true
    },
    {
      "inputs": [
        {
          "internalType": "bytes4",
          "name": "_interfaceID",
          "type": "bytes4"
        }
      ],
      "name": "supportsInterface",
      "outputs": [
        {
          "internalType": "bool",
          "name": "",
          "type": "bool"
        }
      ],
      "stateMutability": "view",
      "type": "function",
      "constant": true
    },
    {
      "inputs": [],
      "name": "symbol",
      "outputs": [
        {
          "internalType": "string",
          "name": "",
          "type": "string"
        }
      ],
      "stateMutability": "view",
      "type": "function",
      "constant": true
    },
    {
      "inputs": [],
      "name": "templateURI",
      "outputs": [
        {
          "internalType": "string",
          "name": "",
          "type": "string"
        }
      ],
      "stateMutability": "view",
      "type": "function",
      "constant": true
    },
    {
      "inputs": [
        {
          "internalType": "uint256",
          "name": "_id",
          "type": "uint256"
        }
      ],
      "name": "totalSupply",
      "outputs": [
        {
          "internalType": "uint256",
          "name": "",
          "type": "uint256"
        }
      ],
      "stateMutability": "view",
      "type": "function",
      "constant": true
    },
    {
      "inputs": [
        {
          "internalType": "address",
          "name": "newOwner",
          "type": "address"
        }
      ],
      "name": "transferOwnership",
      "outputs": [],
      "stateMutability": "nonpayable",
      "type": "function"
    },
    {
      "inputs": [
        {
          "internalType": "uint256",
          "name": "_id",
          "type": "uint256"
        }
      ],
      "name": "uri",
      "outputs": [
        {
          "internalType": "string",
          "name": "",
          "type": "string"
        }
      ],
      "stateMutability": "view",
      "type": "function",
      "constant": true
    },
    {
      "inputs": [],
      "name": "version",
      "outputs": [
        {
          "internalType": "string",
          "name": "",
          "type": "string"
        }
      ],
      "stateMutability": "view",
      "type": "function",
      "constant": true
    },
    {
      "inputs": [
        {
          "internalType": "address",
          "name": "_address",
          "type": "address"
        }
      ],
      "name": "setProxyRegistryAddress",
      "outputs": [],
      "stateMutability": "nonpayable",
      "type": "function"
    },
    {
      "inputs": [
        {
          "internalType": "address",
          "name": "_address",
          "type": "address"
        }
      ],
      "name": "addSharedProxyAddress",
      "outputs": [],
      "stateMutability": "nonpayable",
      "type": "function"
    },
    {
      "inputs": [
        {
          "internalType": "address",
          "name": "_address",
          "type": "address"
        }
      ],
      "name": "removeSharedProxyAddress",
      "outputs": [],
      "stateMutability": "nonpayable",
      "type": "function"
    },
    {
      "inputs": [
        {
          "internalType": "address",
          "name": "_to",
          "type": "address"
        },
        {
          "internalType": "uint256",
          "name": "_id",
          "type": "uint256"
        },
        {
          "internalType": "uint256",
          "name": "_quantity",
          "type": "uint256"
        },
        {
          "internalType": "bytes",
          "name": "_data",
          "type": "bytes"
        }
      ],
      "name": "mint",
      "outputs": [],
      "stateMutability": "nonpayable",
      "type": "function"
    },
    {
      "inputs": [
        {
          "internalType": "address",
          "name": "_to",
          "type": "address"
        },
        {
          "internalType": "uint256[]",
          "name": "_ids",
          "type": "uint256[]"
        },
        {
          "internalType": "uint256[]",
          "name": "_quantities",
          "type": "uint256[]"
        },
        {
          "internalType": "bytes",
          "name": "_data",
          "type": "bytes"
        }
      ],
      "name": "batchMint",
      "outputs": [],
      "stateMutability": "nonpayable",
      "type": "function"
    },
    {
      "inputs": [
        {
          "internalType": "uint256",
          "name": "_id",
          "type": "uint256"
        },
        {
          "internalType": "string",
          "name": "_uri",
          "type": "string"
        }
      ],
      "name": "setURI",
      "outputs": [],
      "stateMutability": "nonpayable",
      "type": "function"
    },
    {
      "inputs": [
        {
          "internalType": "uint256",
          "name": "_id",
          "type": "uint256"
        },
        {
          "internalType": "address",
          "name": "_to",
          "type": "address"
        }
      ],
      "name": "setCreator",
      "outputs": [],
      "stateMutability": "nonpayable",
      "type": "function"
    },
    {
      "inputs": [
        {
          "internalType": "uint256",
          "name": "_id",
          "type": "uint256"
        }
      ],
      "name": "creator",
      "outputs": [
        {
          "internalType": "address",
          "name": "",
          "type": "address"
        }
      ],
      "stateMutability": "view",
      "type": "function",
      "constant": true
    },
    {
      "inputs": [
        {
          "internalType": "uint256",
          "name": "_id",
          "type": "uint256"
        }
      ],
      "name": "maxSupply",
      "outputs": [
        {
          "internalType": "uint256",
          "name": "",
          "type": "uint256"
        }
      ],
      "stateMutability": "pure",
      "type": "function",
      "constant": true
    }
  ],
  "bytecode": "0x60806040523480156200001157600080fd5b5060405162002b9638038062002b96833981016040819052620000349162000345565b838383838383836000620000506401000000006200011c810204565b60028054600160a060020a031916600160a060020a038316908117909155604051919250906000907f8be0079c531659141344cd1fd0a4f28419497f9722a3daafe3b4186f6b6457e0908290a3508251620000b3906004906020860190620001ec565b508151620000c9906005906020850190620001ec565b5060038054600160a060020a031916600160a060020a039290921691909117905550508051156200010857620001088164010000000062000120810204565b505060016009555062000478945050505050565b3390565b620001336401000000006200011c810204565b600160a060020a03166200014f640100000000620001dd810204565b600160a060020a031614620001c4576040517f08c379a000000000000000000000000000000000000000000000000000000000815260206004820181905260248201527f4f776e61626c653a2063616c6c6572206973206e6f7420746865206f776e6572604482015260640160405180910390fd5b8051620001d9906007906020840190620001ec565b5050565b600254600160a060020a031690565b828054620001fa90620003f3565b90600052602060002090601f0160209004810192826200021e576000855562000269565b82601f106200023957805160ff191683800117855562000269565b8280016001018555821562000269579182015b82811115620002695782518255916020019190600101906200024c565b50620002779291506200027b565b5090565b5b808211156200027757600081556001016200027c565b600082601f830112620002a3578081fd5b81516001604060020a0380821115620002c057620002c062000449565b604051601f8301601f19908116603f01168101908282118183101715620002eb57620002eb62000449565b8160405283815260209250868385880101111562000307578485fd5b8491505b838210156200032a57858201830151818301840152908201906200030b565b838211156200033b57848385830101525b9695505050505050565b600080600080608085870312156200035b578384fd5b84516001604060020a038082111562000372578586fd5b620003808883890162000292565b9550602087015191508082111562000396578485fd5b620003a48883890162000292565b60408801519095509150600160a060020a0382168214620003c3578384fd5b606087015191935080821115620003d8578283fd5b50620003e78782880162000292565b91505092959194509250565b6002810460018216806200040857607f821691505b6020821081141562000443577f4e487b7100000000000000000000000000000000000000000000000000000000600052602260045260246000fd5b50919050565b7f4e487b7100000000000000000000000000000000000000000000000000000000600052604160045260246000fd5b61270e80620004886000396000f3fe608060405234801561001057600080fd5b5060043610610217576000357c0100000000000000000000000000000000000000000000000000000000900480638d78a68711610137578063bd85b039116100ca578063dc467f8e11610099578063dc467f8e146104ad578063e985e9c5146104c0578063f242432a146104d3578063f2fde38b146104e6578063f923e8c3146104f957600080fd5b8063bd85b03914610460578063c311c52314610480578063cd7c032614610487578063d26ea6c01461049a57600080fd5b80639e037eea116101065780639e037eea14610414578063a22cb46514610427578063a50aa5c31461043a578063b48ab8b61461044d57600080fd5b80638d78a687146103d55780638da5cb5b146103e857806391686f53146103f957806395d89b411461040c57600080fd5b80634f558e79116101af578063731133e91161017e578063731133e91461037957806373505d351461038c578063862440e2146103af578063869f7594146103c257600080fd5b80634f558e79146102e8578063510b51581461030a57806354fd4d5014610335578063715018a61461037157600080fd5b806324d88785116101eb57806324d887851461028d5780632e0a64cf146102a25780632eb2c2d6146102b55780634e1273f4146102c857600080fd5b8062fdd58e1461021c57806301ffc9a71461024257806306fdde03146102655780630e89341c1461027a575b600080fd5b61022f61022a36600461212c565b610501565b6040519081526020015b60405180910390f35b61025561025036600461226c565b610541565b6040519015158152602001610239565b61026d6105b9565b60405161023991906124d1565b61026d6102883660046122f3565b610647565b6102a061029b3660046122c0565b610787565b005b6102556102b0366004611f1b565b6107d4565b6102a06102c3366004611f53565b6107fa565b6102db6102d63660046121ac565b6108fd565b6040516102399190612490565b6102556102f63660046122f3565b600090815260066020526040902054151590565b61031d6103183660046122f3565b610ab0565b604051600160a060020a039091168152602001610239565b61026d6040518060400160405280600381526020017f312e30000000000000000000000000000000000000000000000000000000000081525081565b6102a0610af2565b6102a0610387366004612157565b610b76565b61025561039a366004611eff565b600a6020526000908152604090205460ff1681565b6102a06103bd36600461232f565b610bf3565b61022f6103d03660046122f3565b610c2c565b61022f6103e336600461212c565b610c37565b600254600160a060020a031661031d565b6102a061040736600461230b565b610c4a565b61026d610d5a565b6102a0610422366004611eff565b610d67565b6102a06104353660046120fb565b610db5565b6102a0610448366004611eff565b610e21565b6102a061045b366004612064565b610e72565b61022f61046e3660046122f3565b60009081526006602052604090205490565b6001610255565b60035461031d90600160a060020a031681565b6102a06104a8366004611eff565b610f57565b6102556104bb366004611eff565b610fb3565b6102556104ce366004611f1b565b610fbe565b6102a06104e1366004611ffd565b611005565b6102a06104f4366004611eff565b611055565b61026d61116a565b60008061050e8484611177565b905061051a838561119d565b6105245780610537565b61052d836111d0565b61053790826125cb565b9150505b92915050565b6000600160e060020a031982167f01ffc9a70000000000000000000000000000000000000000000000000000000014806105a45750600160e060020a031982167fd9b67a2600000000000000000000000000000000000000000000000000000000145b156105b157506001919050565b506000919050565b600480546105c69061261f565b80601f01602080910402602001604051908101604052809291908181526020018280546105f29061261f565b801561063f5780601f106106145761010080835404028352916020019161063f565b820191906000526020600020905b81548152906001019060200180831161062257829003601f168201915b505050505081565b6000818152600860205260408120805460609291906106659061261f565b80601f01602080910402602001604051908101604052809291908181526020018280546106919061261f565b80156106de5780601f106106b3576101008083540402835291602001916106de565b820191906000526020600020905b8154815290600101906020018083116106c157829003601f168201915b5050505050905080516000146106f45792915050565b600780546107019061261f565b80601f016020809104026020016040519081016040528092919081815260200182805461072d9061261f565b801561077a5780601f1061074f5761010080835404028352916020019161077a565b820191906000526020600020905b81548152906001019060200180831161075d57829003601f168201915b5050505050915050919050565b600254600160a060020a031633146107bd5760405160e560020a62461bcd0281526004016107b4906124e4565b60405180910390fd5b80516107d0906007906020840190611d8f565b5050565b600081600160a060020a03166107e9846111f2565b600160a060020a0316149392505050565b8151835114610876576040805160e560020a62461bcd0281526020600482015260248101919091527f4173736574436f6e74726163745368617265642373616665426174636854726160448201527f6e7366657246726f6d3a20494e56414c49445f4152524159535f4c454e47544860648201526084016107b4565b60005b83518110156108f5576108e386868684815181106108aa5760e060020a634e487b7102600052603260045260246000fd5b60200260200101518685815181106108d55760e060020a634e487b7102600052603260045260246000fd5b602002602001015186611005565b806108ed8161265d565b915050610879565b505050505050565b606081518351146109795760405160e560020a62461bcd02815260206004820152602c60248201527f455243313135352362616c616e63654f6642617463683a20494e56414c49445f60448201527f41525241595f4c454e475448000000000000000000000000000000000000000060648201526084016107b4565b6000835167ffffffffffffffff8111156109a65760e060020a634e487b7102600052604160045260246000fd5b6040519080825280602002602001820160405280156109cf578160200160208202803683370190505b50905060005b8451811015610aa857600080868381518110610a045760e060020a634e487b7102600052603260045260246000fd5b6020026020010151600160a060020a0316600160a060020a031681526020019081526020016000206000858381518110610a515760e060020a634e487b7102600052603260045260246000fd5b6020026020010151815260200190815260200160002054828281518110610a8b5760e060020a634e487b7102600052603260045260246000fd5b602090810291909101015280610aa08161265d565b9150506109d5565b509392505050565b6000818152600b6020526040812054600160a060020a031615610ae957506000908152600b6020526040902054600160a060020a031690565b61053b8261128b565b600254600160a060020a03163314610b1f5760405160e560020a62461bcd0281526004016107b4906124e4565b600254604051600091600160a060020a0316907f8be0079c531659141344cd1fd0a4f28419497f9722a3daafe3b4186f6b6457e0908390a36002805473ffffffffffffffffffffffffffffffffffffffff19169055565b60026009541415610bcc5760405160e560020a62461bcd02815260206004820152601f60248201527f5265656e7472616e637947756172643a207265656e7472616e742063616c6c0060448201526064016107b4565b6002600955610bdc3384846112a7565b610be8848484846113a7565b505060016009555050565b81610bfe813361119d565b610c1d5760405160e560020a62461bcd0281526004016107b490612519565b610c2783836113cd565b505050565b600061053b82611429565b6000610c438383611177565b9392505050565b81610c55813361119d565b610c745760405160e560020a62461bcd0281526004016107b490612519565b600160a060020a038216610cf35760405160e560020a62461bcd02815260206004820152603060248201527f4173736574436f6e74726163745368617265642373657443726561746f723a2060448201527f494e56414c49445f414444524553532e0000000000000000000000000000000060648201526084016107b4565b6000838152600b6020526040808220805473ffffffffffffffffffffffffffffffffffffffff1916600160a060020a0386169081179091559051909185917f39071c63e44267bfdefc7b625c0df99d3ce2e6ff98d9f5e9e8a7ab43cdf5000d9190a3505050565b600580546105c69061261f565b600254600160a060020a03163314610d945760405160e560020a62461bcd0281526004016107b4906124e4565b600160a060020a03166000908152600a60205260409020805460ff19169055565b336000818152600160209081526040808320600160a060020a03871680855290835292819020805460ff191686151590811790915590519081529192917f17307eab39ab6107e8899845ad3d59bd9653f200f220920489ca2b5937696c31910160405180910390a35050565b600254600160a060020a03163314610e4e5760405160e560020a62461bcd0281526004016107b4906124e4565b600160a060020a03166000908152600a60205260409020805460ff19166001179055565b60026009541415610ec85760405160e560020a62461bcd02815260206004820152601f60248201527f5265656e7472616e637947756172643a207265656e7472616e742063616c6c0060448201526064016107b4565b600260095560005b8351811015610f4a57610f3833858381518110610f005760e060020a634e487b7102600052603260045260246000fd5b6020026020010151858481518110610f2b5760e060020a634e487b7102600052603260045260246000fd5b60200260200101516112a7565b80610f428161265d565b915050610ed0565b50610be884848484611444565b600254600160a060020a03163314610f845760405160e560020a62461bcd0281526004016107b4906124e4565b6003805473ffffffffffffffffffffffffffffffffffffffff1916600160a060020a0392909216919091179055565b600061053b826114b3565b6000610fca83836114f8565b15610fd75750600161053b565b600160a060020a0380841660009081526001602090815260408083209386168352929052205460ff16610c43565b60006110118685611177565b90508281101561104857611030858561102a8487612608565b85610b76565b801561104357611043868686848661152b565b6108f5565b6108f5868686868661152b565b600254600160a060020a031633146110825760405160e560020a62461bcd0281526004016107b4906124e4565b600160a060020a0381166111015760405160e560020a62461bcd02815260206004820152602660248201527f4f776e61626c653a206e6577206f776e657220697320746865207a65726f206160448201527f646472657373000000000000000000000000000000000000000000000000000060648201526084016107b4565b600254604051600160a060020a038084169216907f8be0079c531659141344cd1fd0a4f28419497f9722a3daafe3b4186f6b6457e090600090a36002805473ffffffffffffffffffffffffffffffffffffffff1916600160a060020a0392909216919091179055565b600780546105c69061261f565b600160a060020a0391909116600090815260208181526040808320938352929052205490565b6000806111a984610ab0565b905082600160a060020a031681600160a060020a03161480610537575061053781846114f8565b60008181526006602052604081205461053b906111ec84610c2c565b90611654565b6003546040517fc4552791000000000000000000000000000000000000000000000000000000008152600160a060020a0383811660048301526000921690819063c45527919060240160206040518083038186803b15801561125357600080fd5b505afa158015611267573d6000803e3d6000fd5b505050506040513d601f19601f82011682018060405250810190610c4391906122a4565b6000611299602860386125e3565b60ff1660020a909104919050565b6112b1828461119d565b6113265760405160e560020a62461bcd02815260206004820152603a60248201527f4173736574436f6e7472616374536861726564235f726571756972654d696e7460448201527f61626c653a204f4e4c595f43524541544f525f414c4c4f57454400000000000060648201526084016107b4565b80611330836111d0565b1015610c275760405160e560020a62461bcd02815260206004820152603560248201527f4173736574436f6e7472616374536861726564235f726571756972654d696e7460448201527f61626c653a20535550504c595f4558434545444544000000000000000000000060648201526084016107b4565b6113b384848484611660565b6001815111156113c7576113c783826113cd565b50505050565b600082815260086020908152604090912082516113ec92840190611d8f565b50817f6bb7ff708619ba0610cba295a58592e0451dee2622938c8755667688daf3529b8260405161141d91906124d1565b60405180910390a25050565b600061143c600165010000000000612608565b909116919050565b61145084848484611734565b6001815111156113c75760005b83518110156114ac5761149a84828151811061148c5760e060020a634e487b7102600052603260045260246000fd5b6020026020010151836113cd565b806114a48161265d565b91505061145d565b5050505050565b600081600160a060020a03166114d1600254600160a060020a031690565b600160a060020a0316148061053b575061053b6114f6600254600160a060020a031690565b835b600160a060020a0381166000908152600a602052604081205460ff16156115215750600161053b565b610c4383836107d4565b33600160a060020a038616148061154757506115478533610fbe565b6115bc5760405160e560020a62461bcd02815260206004820152602a60248201527f4552433131353523736166655472616e7366657246726f6d3a20494e56414c4960448201527f445f4f50455241544f520000000000000000000000000000000000000000000060648201526084016107b4565b600160a060020a03841661163b5760405160e560020a62461bcd02815260206004820152602b60248201527f4552433131353523736166655472616e7366657246726f6d3a20494e56414c4960448201527f445f524543495049454e5400000000000000000000000000000000000000000060648201526084016107b4565b611647858585856119f2565b6114ac8585858585611acc565b6000610c438284612608565b600160a060020a038416600090815260208181526040808320868452909152812080548492906116919084906125cb565b9091555050600083815260066020526040812080548492906116b49084906125cb565b90915550600090506116c584611c22565b905084600160a060020a031681600160a060020a031633600160a060020a03167fc3d58168c5ae7397731d063d5bbf3d657854427343f4c083240f7aacaa2d0f62878760405161171f929190918252602082015260400190565b60405180910390a46114ac8186868686611acc565b81518351146117ae5760405160e560020a62461bcd02815260206004820152603060248201527f455243313135355472616461626c652362617463684d696e743a20494e56414c60448201527f49445f4152524159535f4c454e4754480000000000000000000000000000000060648201526084016107b4565b825160006117e28582846117d55760e060020a634e487b7102600052603260045260246000fd5b6020026020010151611c22565b905060005b8281101561198d5760008682815181106118145760e060020a634e487b7102600052603260045260246000fd5b6020026020010151905082600160a060020a031661183182611c22565b600160a060020a0316146118b05760405160e560020a62461bcd02815260206004820152603760248201527f455243313135355472616461626c652362617463684d696e743a204d554c544960448201527f504c455f4f524947494e535f4e4f545f414c4c4f57454400000000000000000060648201526084016107b4565b8582815181106118d35760e060020a634e487b7102600052603260045260246000fd5b60200260200101516000808a600160a060020a0316600160a060020a031681526020019081526020016000206000838152602001908152602001600020600082825461191f91906125cb565b925050819055508582815181106119495760e060020a634e487b7102600052603260045260246000fd5b602002602001015160066000838152602001908152602001600020600082825461197391906125cb565b9091555082915061198590508161265d565b9150506117e7565b5085600160a060020a031681600160a060020a031633600160a060020a03167f4a39dc06d4c0dbc64b70af90fd698a233a518aa5d07e595d983b8c0526c8f7fb88886040516119dd9291906124a3565b60405180910390a46108f58187878787611c2d565b600160a060020a038416600090815260208181526040808320858452909152902054611a1e9082611654565b600160a060020a0380861660009081526020818152604080832087845282528083209490945591861681528082528281208582529091522054611a619082611d83565b600160a060020a0384811660008181526020818152604080832088845282529182902094909455805186815293840185905290929187169133917fc3d58168c5ae7397731d063d5bbf3d657854427343f4c083240f7aacaa2d0f62910160405180910390a450505050565b600160a060020a0384163b156114ac576040517ff23a6e61000000000000000000000000000000000000000000000000000000008152600090600160a060020a0386169063f23a6e6190611b2c9033908a9089908990899060040161244d565b602060405180830381600087803b158015611b4657600080fd5b505af1158015611b5a573d6000803e3d6000fd5b505050506040513d601f19601f82011682018060405250810190611b7e9190612288565b9050600160e060020a031981167ff23a6e6100000000000000000000000000000000000000000000000000000000146108f55760405160e560020a62461bcd02815260206004820152603a60248201527f45524331313535235f63616c6c6f6e4552433131353552656365697665643a2060448201527f494e56414c49445f4f4e5f524543454956455f4d45535341474500000000000060648201526084016107b4565b600061053b8261128b565b600160a060020a0384163b156114ac576040517fbc197c81000000000000000000000000000000000000000000000000000000008152600090600160a060020a0386169063bc197c8190611c8d9033908a908990899089906004016123ef565b602060405180830381600087803b158015611ca757600080fd5b505af1158015611cbb573d6000803e3d6000fd5b505050506040513d601f19601f82011682018060405250810190611cdf9190612288565b9050600160e060020a031981167fbc197c8100000000000000000000000000000000000000000000000000000000146108f55760405160e560020a62461bcd02815260206004820152603f60248201527f45524331313535235f63616c6c6f6e455243313135354261746368526563656960448201527f7665643a20494e56414c49445f4f4e5f524543454956455f4d4553534147450060648201526084016107b4565b6000610c4382846125cb565b828054611d9b9061261f565b90600052602060002090601f016020900481019282611dbd5760008555611e03565b82601f10611dd657805160ff1916838001178555611e03565b82800160010185558215611e03579182015b82811115611e03578251825591602001919060010190611de8565b50611e0f929150611e13565b5090565b5b80821115611e0f5760008155600101611e14565b600082601f830112611e38578081fd5b81356020611e4d611e48836125a7565b612576565b8281528181019085830183850287018401881015611e69578586fd5b855b85811015611e8757813584529284019290840190600101611e6b565b5090979650505050505050565b600082601f830112611ea4578081fd5b813567ffffffffffffffff811115611ebe57611ebe612691565b611ed1601f8201601f1916602001612576565b818152846020838601011115611ee5578283fd5b816020850160208301379081016020019190915292915050565b600060208284031215611f10578081fd5b8135610c43816126aa565b60008060408385031215611f2d578081fd5b8235611f38816126aa565b91506020830135611f48816126aa565b809150509250929050565b600080600080600060a08688031215611f6a578081fd5b8535611f75816126aa565b94506020860135611f85816126aa565b9350604086013567ffffffffffffffff80821115611fa1578283fd5b611fad89838a01611e28565b94506060880135915080821115611fc2578283fd5b611fce89838a01611e28565b93506080880135915080821115611fe3578283fd5b50611ff088828901611e94565b9150509295509295909350565b600080600080600060a08688031215612014578081fd5b853561201f816126aa565b9450602086013561202f816126aa565b93506040860135925060608601359150608086013567ffffffffffffffff811115612058578182fd5b611ff088828901611e94565b60008060008060808587031215612079578384fd5b8435612084816126aa565b9350602085013567ffffffffffffffff808211156120a0578485fd5b6120ac88838901611e28565b945060408701359150808211156120c1578384fd5b6120cd88838901611e28565b935060608701359150808211156120e2578283fd5b506120ef87828801611e94565b91505092959194509250565b6000806040838503121561210d578182fd5b8235612118816126aa565b915060208301358015158114611f48578182fd5b6000806040838503121561213e578182fd5b8235612149816126aa565b946020939093013593505050565b6000806000806080858703121561216c578182fd5b8435612177816126aa565b93506020850135925060408501359150606085013567ffffffffffffffff8111156121a0578182fd5b6120ef87828801611e94565b600080604083850312156121be578182fd5b823567ffffffffffffffff808211156121d5578384fd5b818501915085601f8301126121e8578384fd5b813560206121f8611e48836125a7565b82815281810190858301838502870184018b1015612214578889fd5b8896505b8487101561223f57803561222b816126aa565b835260019690960195918301918301612218565b5096505086013592505080821115612255578283fd5b5061226285828601611e28565b9150509250929050565b60006020828403121561227d578081fd5b8135610c43816126c2565b600060208284031215612299578081fd5b8151610c43816126c2565b6000602082840312156122b5578081fd5b8151610c43816126aa565b6000602082840312156122d1578081fd5b813567ffffffffffffffff8111156122e7578182fd5b61053784828501611e94565b600060208284031215612304578081fd5b5035919050565b6000806040838503121561231d578182fd5b823591506020830135611f48816126aa565b60008060408385031215612341578182fd5b82359150602083013567ffffffffffffffff81111561235e578182fd5b61226285828601611e94565b6000815180845260208085019450808401835b838110156123995781518752958201959082019060010161237d565b509495945050505050565b60008151808452815b818110156123c9576020818501810151868301820152016123ad565b818111156123da5782602083870101525b50601f01601f19169290920160200192915050565b6000600160a060020a03808816835280871660208401525060a0604083015261241b60a083018661236a565b828103606084015261242d818661236a565b9050828103608084015261244181856123a4565b98975050505050505050565b6000600160a060020a03808816835280871660208401525084604083015283606083015260a0608083015261248560a08301846123a4565b979650505050505050565b602081526000610c43602083018461236a565b6040815260006124b6604083018561236a565b82810360208401526124c8818561236a565b95945050505050565b602081526000610c4360208301846123a4565b6020808252818101527f4f776e61626c653a2063616c6c6572206973206e6f7420746865206f776e6572604082015260600190565b60208082526035908201527f4173736574436f6e74726163745368617265642363726561746f724f6e6c793a60408201527f204f4e4c595f43524541544f525f414c4c4f5745440000000000000000000000606082015260800190565b604051601f8201601f1916810167ffffffffffffffff8111828210171561259f5761259f612691565b604052919050565b600067ffffffffffffffff8211156125c1576125c1612691565b5060209081020190565b600082198211156125de576125de612678565b500190565b600060ff821660ff84168060ff0382111561260057612600612678565b019392505050565b60008282101561261a5761261a612678565b500390565b60028104600182168061263357607f821691505b602082108114156126575760e060020a634e487b7102600052602260045260246000fd5b50919050565b600060001982141561267157612671612678565b5060010190565b60e060020a634e487b7102600052601160045260246000fd5b60e060020a634e487b7102600052604160045260246000fd5b600160a060020a03811681146126bf57600080fd5b50565b600160e060020a0319811681146126bf57600080fdfea2646970667358221220f57206083776204fe61ab91643d8202040c8c4ce8925977dfd03cb102eff137864736f6c63430008040033",
  "immutableReferences": {},
  "source": "// SPDX-License-Identifier: MIT\npragma solidity ^0.8.0;\n\n\nimport {SafeMath} from '../dependencies/openzeppelin/contracts/utils/math/SafeMath.sol';\nimport {ReentrancyGuard} from '../dependencies/openzeppelin/contracts/security/ReentrancyGuard.sol';\nimport {AssetContract} from './AssetContract.sol';\nimport {TokenIdentifiers} from './TokenIdentifiers.sol';\n\n/**\n * @title AssetContractShared\n * OpenSea shared asset contract - A contract for easily creating custom assets on OpenSea\n */\ncontract ElementSharedAsset is AssetContract, ReentrancyGuard {\n    mapping(address => bool) public sharedProxyAddresses;\n    using SafeMath for uint256;\n    using TokenIdentifiers for uint256;\n\n    event CreatorChanged(uint256 indexed _id, address indexed _creator);\n\n    mapping(uint256 => address) internal _creatorOverride;\n\n    /**\n     * @dev Require msg.sender to be the creator of the token id\n     */\n    modifier creatorOnly(uint256 _id) {\n        require(\n            _isCreatorOrProxy(_id, _msgSender()),\n            \"AssetContractShared#creatorOnly: ONLY_CREATOR_ALLOWED\"\n        );\n        _;\n    }\n\n    constructor(\n        string memory _name,\n        string memory _symbol,\n        address _proxyRegistryAddress,\n        string memory _templateURI\n    ) AssetContract(_name, _symbol, _proxyRegistryAddress, _templateURI)\n    {}\n\n    /**\n     * @dev Allows owner to change the proxy registry\n     */\n    function setProxyRegistryAddress(address _address) public onlyOwner {\n        proxyRegistryAddress = _address;\n    }\n\n    /**\n     * @dev Allows owner to add a shared proxy address\n     */\n    function addSharedProxyAddress(address _address) public onlyOwner {\n        sharedProxyAddresses[_address] = true;\n    }\n\n    /**\n     * @dev Allows owner to remove a shared proxy address\n     */\n    function removeSharedProxyAddress(address _address) public onlyOwner {\n        delete sharedProxyAddresses[_address];\n    }\n\n    function mint(\n        address _to,\n        uint256 _id,\n        uint256 _quantity,\n        bytes memory _data\n    ) public override nonReentrant() {\n        _requireMintable(_msgSender(), _id, _quantity);\n        _mint(_to, _id, _quantity, _data);\n    }\n\n    function batchMint(\n        address _to,\n        uint256[] memory _ids,\n        uint256[] memory _quantities,\n        bytes memory _data\n    ) public override nonReentrant() {\n        for (uint256 i = 0; i < _ids.length; i++) {\n            _requireMintable(_msgSender(), _ids[i], _quantities[i]);\n        }\n        _batchMint(_to, _ids, _quantities, _data);\n    }\n\n    /////////////////////////////////\n    // CONVENIENCE CREATOR METHODS //\n    /////////////////////////////////\n\n    /**\n     * @dev Will update the URI for the token\n     * @param _id The token ID to update. msg.sender must be its creator.\n     * @param _uri New URI for the token.\n     */\n    function setURI(uint256 _id, string memory _uri) public override creatorOnly(_id) {\n        _setURI(_id, _uri);\n    }\n\n    /**\n     * @dev Change the creator address for given token\n     * @param _to   Address of the new creator\n     * @param _id  Token IDs to change creator of\n     */\n    function setCreator(uint256 _id, address _to) public creatorOnly(_id) {\n        require(\n            _to != address(0),\n            \"AssetContractShared#setCreator: INVALID_ADDRESS.\"\n        );\n        _creatorOverride[_id] = _to;\n        emit CreatorChanged(_id, _to);\n    }\n\n    /**\n     * @dev Get the creator for a token\n     * @param _id   The token id to look up\n     */\n    function creator(uint256 _id) public view returns (address) {\n        if (_creatorOverride[_id] != address(0)) {\n            return _creatorOverride[_id];\n        } else {\n            return _id.tokenCreator();\n        }\n    }\n\n    /**\n     * @dev Get the maximum supply for a token\n     * @param _id   The token id to look up\n     */\n    function maxSupply(uint256 _id) public pure returns (uint256) {\n        return _id.tokenMaxSupply();\n    }\n\n    // Override ERC1155Tradable for birth events\n    function _origin(uint256 _id) internal view override returns (address) {\n        return _id.tokenCreator();\n    }\n\n    function _requireMintable(\n        address _address,\n        uint256 _id,\n        uint256 _amount\n    ) internal view {\n        require(\n            _isCreatorOrProxy(_id, _address),\n            \"AssetContractShared#_requireMintable: ONLY_CREATOR_ALLOWED\"\n        );\n        require(\n            _remainingSupply(_id) >= _amount,\n            \"AssetContractShared#_requireMintable: SUPPLY_EXCEEDED\"\n        );\n    }\n\n    function _remainingSupply(uint256 _id) internal view override returns (uint256) {\n        return maxSupply(_id).sub(totalSupply(_id));\n    }\n\n    function _isCreatorOrProxy(uint256 _id, address _address)\n        internal\n        view\n        override\n        returns (bool)\n    {\n        address creator_ = creator(_id);\n        return creator_ == _address || _isProxyForUser(creator_, _address);\n    }\n\n    // Overrides ERC1155Tradable to allow a shared proxy address\n    function _isProxyForUser(address _user, address _address)\n        internal\n        view\n        override\n        returns (bool)\n    {\n        if (sharedProxyAddresses[_address]) {\n            return true;\n        }\n        return super._isProxyForUser(_user, _address);\n    }\n}",
  "sourcePath": "/Users/liyu/Mars/gitlab/element-contract/contracts/asset/ElementSharedAsset.sol",
  "compiler": {
    "name": "solc",
    "version": "0.8.4+commit.c7e474f2.Emscripten.clang"
  },
  "schemaVersion": "3.4.0",
  "updatedAt": "2021-05-01T09:06:14.973Z",
  "networkType": "ethereum",
  "devdoc": {
    "kind": "dev",
    "methods": {
      "addSharedProxyAddress(address)": {
        "details": "Allows owner to add a shared proxy address"
      },
      "balanceOf(address,uint256)": {
        "params": {
          "_id": "ID of the Token",
          "_owner": "The address of the token holder"
        },
        "returns": {
          "_0": "The _owner's balance of the Token type requested"
        }
      },
      "balanceOfBatch(address[],uint256[])": {
        "params": {
          "_ids": "ID of the Tokens",
          "_owners": "The addresses of the token holders"
        },
        "returns": {
          "_0": "The _owner's balance of the Token types requested (i.e. balance for each (owner, id) pair)"
        }
      },
      "batchMint(address,uint256[],uint256[],bytes)": {
        "details": "Mint tokens for each id in _ids",
        "params": {
          "_data": "Data to pass if receiver is contract",
          "_ids": "Array of ids to mint",
          "_quantities": "Array of amounts of tokens to mint per id",
          "_to": "The address to mint tokens to"
        }
      },
      "creator(uint256)": {
        "details": "Get the creator for a token",
        "params": {
          "_id": "The token id to look up"
        }
      },
      "exists(uint256)": {
        "details": "Returns whether the specified token is minted",
        "params": {
          "_id": "uint256 ID of the token to query the existence of"
        },
        "returns": {
          "_0": "bool whether the token exists"
        }
      },
      "maxSupply(uint256)": {
        "details": "Get the maximum supply for a token",
        "params": {
          "_id": "The token id to look up"
        }
      },
      "mint(address,uint256,uint256,bytes)": {
        "details": "Mints some amount of tokens to an address",
        "params": {
          "_data": "Data to pass if receiver is contract",
          "_id": "Token ID to mint",
          "_quantity": "Amount of tokens to mint",
          "_to": "Address of the future owner of the token"
        }
      },
      "owner()": {
        "details": "Returns the address of the current owner."
      },
      "removeSharedProxyAddress(address)": {
        "details": "Allows owner to remove a shared proxy address"
      },
      "renounceOwnership()": {
        "details": "Leaves the contract without owner. It will not be possible to call `onlyOwner` functions anymore. Can only be called by the current owner. NOTE: Renouncing ownership will leave the contract without an owner, thereby removing any functionality that is only available to the owner."
      },
      "safeBatchTransferFrom(address,address,uint256[],uint256[],bytes)": {
        "params": {
          "_amounts": "Transfer amounts per token type",
          "_data": "Additional data with no specified format, sent in call to `_to`",
          "_from": "Source addresses",
          "_ids": "IDs of each token type",
          "_to": "Target addresses"
        }
      },
      "safeTransferFrom(address,address,uint256,uint256,bytes)": {
        "params": {
          "_amount": "Transfered amount",
          "_data": "Additional data with no specified format, sent in call to `_to`",
          "_from": "Source address",
          "_id": "ID of the token type",
          "_to": "Target address"
        }
      },
      "setApprovalForAll(address,bool)": {
        "params": {
          "_approved": "True if the operator is approved, false to revoke approval",
          "_operator": "Address to add to the set of authorized operators"
        }
      },
      "setCreator(uint256,address)": {
        "details": "Change the creator address for given token",
        "params": {
          "_id": "Token IDs to change creator of",
          "_to": "Address of the new creator"
        }
      },
      "setProxyRegistryAddress(address)": {
        "details": "Allows owner to change the proxy registry"
      },
      "setURI(uint256,string)": {
        "details": "Will update the URI for the token",
        "params": {
          "_id": "The token ID to update. msg.sender must be its creator.",
          "_uri": "New URI for the token."
        }
      },
      "supportsInterface(bytes4)": {
        "params": {
          "_interfaceID": "The interface identifier, as specified in ERC-165"
        },
        "returns": {
          "_0": "`true` if the contract implements `_interfaceID` and"
        }
      },
      "totalSupply(uint256)": {
        "details": "Returns the total quantity for a token ID",
        "params": {
          "_id": "uint256 ID of the token to query"
        },
        "returns": {
          "_0": "amount of token in existence"
        }
      },
      "transferOwnership(address)": {
        "details": "Transfers ownership of the contract to a new account (`newOwner`). Can only be called by the current owner."
      }
    },
    "title": "AssetContractShared OpenSea shared asset contract - A contract for easily creating custom assets on OpenSea",
    "version": 1
  },
  "userdoc": {
    "kind": "user",
    "methods": {
      "balanceOf(address,uint256)": {
        "notice": "Get the balance of an account's Tokens"
      },
      "balanceOfBatch(address[],uint256[])": {
        "notice": "Get the balance of multiple account/token pairs"
      },
      "isApprovedForAll(address,address)": {
        "notice": "Override isApprovedForAll to whitelist user's OpenSea proxy accounts to enable gas-free listings."
      },
      "safeBatchTransferFrom(address,address,uint256[],uint256[],bytes)": {
        "notice": "Send multiple types of Tokens from the _from address to the _to address (with safety call)"
      },
      "safeTransferFrom(address,address,uint256,uint256,bytes)": {
        "notice": "Transfers amount amount of an _id from the _from address to the _to address specified"
      },
      "setApprovalForAll(address,bool)": {
        "notice": "Enable or disable approval for a third party (\"operator\") to manage all of caller's tokens"
      },
      "supportsFactoryInterface()": {
        "notice": "Compat for factory interfaces on OpenSea Indicates that this contract can return balances for tokens that haven't been minted yet"
      },
      "supportsInterface(bytes4)": {
        "notice": "Query if a contract implements an interface"
      }
    },
    "version": 1
  }
}