{
  "contractName": "ElementixProxyRegistry",
  "abi": [
    {
      "inputs": [],
      "stateMutability": "nonpayable",
      "type": "constructor"
    },
    {
      "anonymous": false,
      "inputs": [
        {
          "indexed": true,
          "internalType": "address",
          "name": "previousOwner",
          "type": "address"
        },
        {
          "indexed": true,
          "internalType": "address",
          "name": "newOwner",
          "type": "address"
        }
      ],
      "name": "OwnershipTransferred",
      "type": "event"
    },
    {
      "inputs": [],
      "name": "DELAY_PERIOD",
      "outputs": [
        {
          "internalType": "uint256",
          "name": "",
          "type": "uint256"
        }
      ],
      "stateMutability": "view",
      "type": "function",
      "constant": true
    },
    {
      "inputs": [
        {
          "internalType": "address",
          "name": "",
          "type": "address"
        }
      ],
      "name": "contracts",
      "outputs": [
        {
          "internalType": "bool",
          "name": "",
          "type": "bool"
        }
      ],
      "stateMutability": "view",
      "type": "function",
      "constant": true
    },
    {
      "inputs": [],
      "name": "delegateProxyImplementation",
      "outputs": [
        {
          "internalType": "address",
          "name": "",
          "type": "address"
        }
      ],
      "stateMutability": "view",
      "type": "function",
      "constant": true
    },
    {
      "inputs": [
        {
          "internalType": "address",
          "name": "addr",
          "type": "address"
        }
      ],
      "name": "endGrantAuthentication",
      "outputs": [],
      "stateMutability": "nonpayable",
      "type": "function"
    },
    {
      "inputs": [],
      "name": "initialAddressSet",
      "outputs": [
        {
          "internalType": "bool",
          "name": "",
          "type": "bool"
        }
      ],
      "stateMutability": "view",
      "type": "function",
      "constant": true
    },
    {
      "inputs": [],
      "name": "name",
      "outputs": [
        {
          "internalType": "string",
          "name": "",
          "type": "string"
        }
      ],
      "stateMutability": "view",
      "type": "function",
      "constant": true
    },
    {
      "inputs": [],
      "name": "owner",
      "outputs": [
        {
          "internalType": "address",
          "name": "",
          "type": "address"
        }
      ],
      "stateMutability": "view",
      "type": "function",
      "constant": true
    },
    {
      "inputs": [
        {
          "internalType": "address",
          "name": "",
          "type": "address"
        }
      ],
      "name": "pending",
      "outputs": [
        {
          "internalType": "uint256",
          "name": "",
          "type": "uint256"
        }
      ],
      "stateMutability": "view",
      "type": "function",
      "constant": true
    },
    {
      "inputs": [
        {
          "internalType": "address",
          "name": "",
          "type": "address"
        }
      ],
      "name": "proxies",
      "outputs": [
        {
          "internalType": "contract OwnableDelegateProxy",
          "name": "",
          "type": "address"
        }
      ],
      "stateMutability": "view",
      "type": "function",
      "constant": true
    },
    {
      "inputs": [],
      "name": "registerProxy",
      "outputs": [
        {
          "internalType": "contract OwnableDelegateProxy",
          "name": "proxy",
          "type": "address"
        }
      ],
      "stateMutability": "nonpayable",
      "type": "function"
    },
    {
      "inputs": [],
      "name": "renounceOwnership",
      "outputs": [],
      "stateMutability": "nonpayable",
      "type": "function"
    },
    {
      "inputs": [
        {
          "internalType": "address",
          "name": "addr",
          "type": "address"
        }
      ],
      "name": "revokeAuthentication",
      "outputs": [],
      "stateMutability": "nonpayable",
      "type": "function"
    },
    {
      "inputs": [
        {
          "internalType": "address",
          "name": "addr",
          "type": "address"
        }
      ],
      "name": "startGrantAuthentication",
      "outputs": [],
      "stateMutability": "nonpayable",
      "type": "function"
    },
    {
      "inputs": [
        {
          "internalType": "address",
          "name": "newOwner",
          "type": "address"
        }
      ],
      "name": "transferOwnership",
      "outputs": [],
      "stateMutability": "nonpayable",
      "type": "function"
    },
    {
      "inputs": [],
      "name": "version",
      "outputs": [
        {
          "internalType": "string",
          "name": "",
          "type": "string"
        }
      ],
      "stateMutability": "view",
      "type": "function",
      "constant": true
    },
    {
      "inputs": [
        {
          "internalType": "address",
          "name": "authAddress",
          "type": "address"
        }
      ],
      "name": "grantInitialAuthentication",
      "outputs": [],
      "stateMutability": "nonpayable",
      "type": "function"
    }
  ],
  "bytecode": "0x60806040526203f4806005556006805460ff1916905534801561002157600080fd5b5060006100356401000000006100cd810204565b60008054600160a060020a031916600160a060020a0383169081178255604051929350917f8be0079c531659141344cd1fd0a4f28419497f9722a3daafe3b4186f6b6457e0908290a35060405161008b906100d1565b604051809103906000f0801580156100a7573d6000803e3d6000fd5b5060018054600160a060020a031916600160a060020a03929092169190911790556100de565b3390565b610a968061129383390190565b6111a6806100ed6000396000f3fe60806040523480156200001157600080fd5b506004361062000132576000357c0100000000000000000000000000000000000000000000000000000000900480638da5cb5b11620000c0578063ddd81f82116200008b578063ddd81f8214620002f7578063e71a02e11462000301578063ef7f3834146200030b578063f2fde38b146200032257600080fd5b80638da5cb5b146200027a57806397204d8e14620002a0578063c455279114620002b4578063d4e8e06314620002e057600080fd5b806354fd4d50116200010157806354fd4d5014620001db5780635eebea20146200021857806369dc9ff3146200024a578063715018a6146200027057600080fd5b806306fdde0314620001375780631a86ac4f146200018c57806338b6e40714620001ab57806353376d1f14620001c4575b600080fd5b620001746040518060400160405280601881526020017f456c656d656e7469782050726f7879205265676973747279000000000000000081525081565b6040516200018391906200097f565b60405180910390f35b6006546200019a9060ff1681565b604051901515815260200162000183565b620001c2620001bc366004620008ca565b62000339565b005b620001c2620001d5366004620008ca565b62000421565b620001746040518060400160405280600381526020017f312e30000000000000000000000000000000000000000000000000000000000081525081565b6200023b62000229366004620008ca565b60036020526000908152604090205481565b60405190815260200162000183565b6200019a6200025b366004620008ca565b60046020526000908152604090205460ff1681565b620001c262000472565b600054600160a060020a03165b604051600160a060020a03909116815260200162000183565b6001546200028790600160a060020a031681565b62000287620002c5366004620008ca565b600260205260009081526040902054600160a060020a031681565b620001c2620002f1366004620008ca565b620004f9565b620002876200058f565b6200023b60055481565b620001c26200031c366004620008ca565b620006e6565b620001c262000333366004620008ca565b620007a3565b600054600160a060020a03163314620003725760405160e560020a62461bcd028152600401620003699062000994565b60405180910390fd5b600160a060020a03811660009081526004602052604090205460ff16158015620003b35750600160a060020a03811660009081526003602052604090205415155b8015620003e65750600554600160a060020a0382166000908152600360205260409020544291620003e491620009c9565b105b620003f057600080fd5b600160a060020a0316600090815260036020908152604080832083905560049091529020805460ff19166001179055565b600054600160a060020a03163314620004515760405160e560020a62461bcd028152600401620003699062000994565b600160a060020a03166000908152600460205260409020805460ff19169055565b600054600160a060020a03163314620004a25760405160e560020a62461bcd028152600401620003699062000994565b60008054604051600160a060020a03909116907f8be0079c531659141344cd1fd0a4f28419497f9722a3daafe3b4186f6b6457e0908390a36000805473ffffffffffffffffffffffffffffffffffffffff19169055565b600054600160a060020a03163314620005295760405160e560020a62461bcd028152600401620003699062000994565b600160a060020a03811660009081526004602052604090205460ff16158015620005695750600160a060020a038116600090815260036020526040902054155b6200057357600080fd5b600160a060020a03166000908152600360205260409020429055565b33600090815260026020526040812054600160a060020a031615620005fa5760405160e560020a62461bcd02815260206004820152600c60248201527f6475702072656769737465720000000000000000000000000000000000000000604482015260640162000369565b600154604051336024820181905230604483015291600160a060020a03169060640160408051601f198184030181529181526020820180517bffffffffffffffffffffffffffffffffffffffffffffffffffffffff167f485cc95500000000000000000000000000000000000000000000000000000000179052516200068090620008bc565b6200068e9392919062000948565b604051809103906000f080158015620006ab573d6000803e3d6000fd5b50336000908152600260205260409020805473ffffffffffffffffffffffffffffffffffffffff1916600160a060020a038316179055919050565b600054600160a060020a03163314620007165760405160e560020a62461bcd028152600401620003699062000994565b60065460ff16156200076e5760405160e560020a62461bcd02815260206004820152600a60248201527f21696e697469616c656400000000000000000000000000000000000000000000604482015260640162000369565b6006805460ff199081166001908117909255600160a060020a0390921660009081526004602052604090208054909216179055565b600054600160a060020a03163314620007d35760405160e560020a62461bcd028152600401620003699062000994565b600160a060020a038116620008545760405160e560020a62461bcd02815260206004820152602660248201527f4f776e61626c653a206e6577206f776e657220697320746865207a65726f206160448201527f6464726573730000000000000000000000000000000000000000000000000000606482015260840162000369565b60008054604051600160a060020a03808516939216917f8be0079c531659141344cd1fd0a4f28419497f9722a3daafe3b4186f6b6457e091a36000805473ffffffffffffffffffffffffffffffffffffffff1916600160a060020a0392909216919091179055565b6107698062000a0883390190565b600060208284031215620008dc578081fd5b8135600160a060020a0381168114620008f3578182fd5b9392505050565b60008151808452815b81811015620009215760208185018101518683018201520162000903565b81811115620009335782602083870101525b50601f01601f19169290920160200192915050565b6000600160a060020a03808616835280851660208401525060606040830152620009766060830184620008fa565b95945050505050565b602081526000620008f36020830184620008fa565b6020808252818101527f4f776e61626c653a2063616c6c6572206973206e6f7420746865206f776e6572604082015260600190565b6000821982111562000a02577f4e487b710000000000000000000000000000000000000000000000000000000081526011600452602481fd5b50019056fe608060405234801561001057600080fd5b5060405161076938038061076983398101604081905261002f91610165565b610041836401000000006100c4810204565b610053826401000000006100e6810204565b600082600160a060020a03168260405161006d9190610231565b600060405180830381855af49150503d80600081146100a8576040519150601f19603f3d011682016040523d82523d6000602084013e6100ad565b606091505b50509050806100bb57600080fd5b505050506102ac565b60018054600160a060020a031916600160a060020a0392909216919091179055565b600054600160a060020a038281169116141561010157600080fd5b60008054600160a060020a031916600160a060020a038316908117825560405190917fbc7cd75a20ee27fd9adebab32041f755214dbc6bffa90cc0225b39da2e5c2d3b91a250565b8051600160a060020a038116811461016057600080fd5b919050565b600080600060608486031215610179578283fd5b61018284610149565b925061019060208501610149565b9150604084015167ffffffffffffffff808211156101ac578283fd5b818601915086601f8301126101bf578283fd5b8151818111156101d1576101d161027d565b604051601f8201601f19908116603f011681019083821181831017156101f9576101f961027d565b81604052828152896020848701011115610211578586fd5b61022283602083016020880161024d565b80955050505050509250925092565b6000825161024381846020870161024d565b9190910192915050565b60005b83811015610268578181015183820152602001610250565b83811115610277576000848401525b50505050565b7f4e487b7100000000000000000000000000000000000000000000000000000000600052604160045260246000fd5b6104ae806102bb6000396000f3fe60806040526004361061008d576000357c0100000000000000000000000000000000000000000000000000000000900480634f1ef2861161006b5780634f1ef286146101385780635c60da1b1461014b5780636fde820214610169578063f1739cae146101875761008d565b8063025313a2146100c85780633659cfe6146100fa5780634555d5c91461011c575b600054600160a060020a0316806100a357600080fd5b60405136600082376000803683855af43d806000843e8180156100c4578184f35b8184fd5b3480156100d457600080fd5b506100dd6101a7565b604051600160a060020a0390911681526020015b60405180910390f35b34801561010657600080fd5b5061011a6101153660046103c9565b6101c0565b005b34801561012857600080fd5b50604051600281526020016100f1565b61011a6101463660046103ea565b6101f1565b34801561015757600080fd5b50600054600160a060020a03166100dd565b34801561017557600080fd5b50600154600160a060020a03166100dd565b34801561019357600080fd5b5061011a6101a23660046103c9565b61028f565b60006101bb600154600160a060020a031690565b905090565b6101c86101a7565b600160a060020a031633600160a060020a0316146101e557600080fd5b6101ee8161033d565b50565b6101f96101a7565b600160a060020a031633600160a060020a03161461021657600080fd5b61021f836101c0565b600030600160a060020a0316838360405161023b929190610468565b600060405180830381855af49150503d8060008114610276576040519150601f19603f3d011682016040523d82523d6000602084013e61027b565b606091505b505090508061028957600080fd5b50505050565b6102976101a7565b600160a060020a031633600160a060020a0316146102b457600080fd5b600160a060020a0381166102c757600080fd5b7f5a3e66efaa1e445ebd894728a69d6959842ea1e97bd79b892797106e270efcd96102f06101a7565b60408051600160a060020a03928316815291841660208301520160405180910390a16001805473ffffffffffffffffffffffffffffffffffffffff1916600160a060020a03831617905550565b600054600160a060020a038281169116141561035857600080fd5b6000805473ffffffffffffffffffffffffffffffffffffffff1916600160a060020a038316908117825560405190917fbc7cd75a20ee27fd9adebab32041f755214dbc6bffa90cc0225b39da2e5c2d3b91a250565b8035600160a060020a03811681146103c457600080fd5b919050565b6000602082840312156103da578081fd5b6103e3826103ad565b9392505050565b6000806000604084860312156103fe578182fd5b610407846103ad565b9250602084013567ffffffffffffffff80821115610423578384fd5b818601915086601f830112610436578384fd5b813581811115610444578485fd5b876020828501011115610455578485fd5b6020830194508093505050509250925092565b818382376000910190815291905056fea26469706673582212203cbffdb2613ac8372a18b65d0af0ecbcbc8f212b5ef7376d20b87512dcd3c4ea64736f6c63430008040033a2646970667358221220e9b5ad7b108a6b62b47003de25d1c4be89f322eb0069589171295fccd4251aee64736f6c6343000804003360806040526001805460a060020a60ff021916905534801561002057600080fd5b50610a66806100306000396000f3fe6080604052600436106100c8576000357c01000000000000000000000000000000000000000000000000000000009004806354fd4d501161008157806354fd4d50146101f45780635c60da1b1461024a57806363d256ce146102685780636fde8202146102895780637b103999146102a75780638f4ffcb1146102c757600080fd5b80631b0f7ba9146101095780633f801f911461013e5780634555d5c914610160578063485cc9551461017c5780634c93505f1461019c5780634f8632ba146101bc57600080fd5b366101045760405134815233907fa419615bc8fda4c87663805ee2a3597a6d71c1d476911d9892f340d965bc7bf19060200160405180910390a2005b600080fd5b34801561011557600080fd5b506101296101243660046107ac565b6102e7565b60405190151581526020015b60405180910390f35b34801561014a57600080fd5b5061015e6101593660046107ac565b610562565b005b34801561016c57600080fd5b5060405160028152602001610135565b34801561018857600080fd5b5061015e610197366004610774565b61057d565b3480156101a857600080fd5b5061015e6101b7366004610915565b6105f3565b3480156101c857600080fd5b506002546101dc90600160a060020a031681565b604051600160a060020a039091168152602001610135565b34801561020057600080fd5b5061023d6040518060400160405280600381526020017f312e30000000000000000000000000000000000000000000000000000000000081525081565b60405161013591906109af565b34801561025657600080fd5b50600054600160a060020a03166101dc565b34801561027457600080fd5b506003546101299060a060020a900460ff1681565b34801561029557600080fd5b50600154600160a060020a03166101dc565b3480156102b357600080fd5b506003546101dc90600160a060020a031681565b3480156102d357600080fd5b5061015e6102e236600461083c565b610673565b600254600090600160a060020a03163314806103a7575060035460a060020a900460ff161580156103a757506003546040517f69dc9ff3000000000000000000000000000000000000000000000000000000008152336004820152600160a060020a03909116906369dc9ff39060240160206040518083038186803b15801561036f57600080fd5b505afa158015610383573d6000803e3d6000fd5b505050506040513d601f19601f820116820180604052508101906103a79190610938565b610411576040517f08c379a000000000000000000000000000000000000000000000000000000000815260206004820152601360248201527f2176616c69642070726f78792073656e64657200000000000000000000000000604482015260640160405180910390fd5b600084600181111561044c577f4e487b7100000000000000000000000000000000000000000000000000000000600052602160045260246000fd5b14156104b95784600160a060020a0316838360405161046c92919061099f565b6000604051808303816000865af19150503d80600081146104a9576040519150601f19603f3d011682016040523d82523d6000602084013e6104ae565b606091505b50508091505061055a565b60018460018111156104f4577f4e487b7100000000000000000000000000000000000000000000000000000000600052602160045260246000fd5b141561055a5784600160a060020a0316838360405161051492919061099f565b600060405180830381855af49150503d806000811461054f576040519150601f19603f3d011682016040523d82523d6000602084013e610554565b606091505b50909150505b949350505050565b61056e848484846102e7565b61057757600080fd5b50505050565b60015460a060020a900460ff161561059457600080fd5b6001805474ff0000000000000000000000000000000000000000191660a060020a17905560028054600160a060020a0393841673ffffffffffffffffffffffffffffffffffffffff199182161790915560038054929093169116179055565b600254600160a060020a0316331461060a57600080fd5b6003805482151560a060020a0274ff0000000000000000000000000000000000000000199091161790556040517f2165014523a6f4135deffed62d70149aad59b64de5aac51e3abbcbe2a83e2f7e9061066890831515815260200190565b60405180910390a150565b6040517f23b872dd000000000000000000000000000000000000000000000000000000008152600160a060020a038581166004830152306024830152604482018590528391908216906323b872dd90606401602060405180830381600087803b1580156106df57600080fd5b505af11580156106f3573d6000803e3d6000fd5b505050506040513d601f19601f820116820180604052508101906107179190610938565b61072057600080fd5b82600160a060020a031685600160a060020a03167fd65b48fd35864b3528d38e44760be5553248f89bf3ff6b06cca57817cc2650bf86856040516107659291906109c2565b60405180910390a35050505050565b60008060408385031215610786578182fd5b823561079181610a0a565b915060208301356107a181610a0a565b809150509250929050565b600080600080606085870312156107c1578182fd5b84356107cc81610a0a565b93506020850135600281106107df578283fd5b9250604085013567ffffffffffffffff808211156107fb578384fd5b818701915087601f83011261080e578384fd5b81358181111561081c578485fd5b88602082850101111561082d578485fd5b95989497505060200194505050565b60008060008060808587031215610851578384fd5b843561085c81610a0a565b935060208501359250604085013561087381610a0a565b9150606085013567ffffffffffffffff8082111561088f578283fd5b818701915087601f8301126108a2578283fd5b8135818111156108b4576108b46109db565b604051601f8201601f19908116603f011681019083821181831017156108dc576108dc6109db565b816040528281528a60208487010111156108f4578586fd5b82602086016020830137918201602001949094529598949750929550505050565b600060208284031215610926578081fd5b813561093181610a22565b9392505050565b600060208284031215610949578081fd5b815161093181610a22565b60008151808452815b818110156109795760208185018101518683018201520161095d565b8181111561098a5782602083870101525b50601f01601f19169290920160200192915050565b8183823760009101908152919050565b6020815260006109316020830184610954565b82815260406020820152600061055a6040830184610954565b7f4e487b7100000000000000000000000000000000000000000000000000000000600052604160045260246000fd5b600160a060020a0381168114610a1f57600080fd5b50565b8015158114610a1f57600080fdfea2646970667358221220dda9d1c70a98f68fe4a2e6bbdd7841a9a8c4f3845b772bfdddcbed06e5a1042a64736f6c63430008040033",
  "immutableReferences": {},
  "source": "// SPDX-License-Identifier: MIT\npragma solidity ^0.8.0;\n\nimport {ProxyRegistry} from './ProxyRegistry.sol';\nimport {AuthenticatedProxy} from './AuthenticatedProxy.sol';\n\n\ncontract ElementixProxyRegistry is ProxyRegistry {\n\n    string public constant name = \"Elementix Proxy Registry\";\n    string public constant version = \"1.0\";\n\n    /* Whether the initial auth address has been set. */\n    bool public initialAddressSet = false;\n\n    constructor ()\n    {\n        delegateProxyImplementation = address(new AuthenticatedProxy());\n    }\n\n    /** \n     * Grant authentication to the initial Exchange protocol contract\n     *\n     * @dev No delay, can only be called once - after that the standard registry process with a delay must be used\n     * @param authAddress Address of the contract to grant authentication\n     */\n    function grantInitialAuthentication (address authAddress)\n        onlyOwner\n        public\n    {\n        require(!initialAddressSet,\"!initialed\");\n        initialAddressSet = true;\n        contracts[authAddress] = true;\n    }\n\n}",
  "sourcePath": "/Users/liyu/Mars/gitlab/element-contract/contracts/elementix/ElementixRegistry.sol",
  "compiler": {
    "name": "solc",
    "version": "0.8.4+commit.c7e474f2.Emscripten.clang"
  },
  "schemaVersion": "3.4.0",
  "updatedAt": "2021-05-01T09:06:14.964Z",
  "networkType": "ethereum",
  "devdoc": {
    "kind": "dev",
    "methods": {
      "endGrantAuthentication(address)": {
        "details": "ProxyRegistry owner only",
        "params": {
          "addr": "Address to which to grant permissions"
        }
      },
      "grantInitialAuthentication(address)": {
        "details": "No delay, can only be called once - after that the standard registry process with a delay must be used",
        "params": {
          "authAddress": "Address of the contract to grant authentication"
        }
      },
      "owner()": {
        "details": "Returns the address of the current owner."
      },
      "registerProxy()": {
        "details": "Must be called by the user which the proxy is for, creates a new AuthenticatedProxy",
        "returns": {
          "proxy": "New AuthenticatedProxy contract"
        }
      },
      "renounceOwnership()": {
        "details": "Leaves the contract without owner. It will not be possible to call `onlyOwner` functions anymore. Can only be called by the current owner. NOTE: Renouncing ownership will leave the contract without an owner, thereby removing any functionality that is only available to the owner."
      },
      "revokeAuthentication(address)": {
        "details": "ProxyRegistry owner only",
        "params": {
          "addr": "Address of which to revoke permissions"
        }
      },
      "startGrantAuthentication(address)": {
        "details": "ProxyRegistry owner only",
        "params": {
          "addr": "Address to which to grant permissions"
        }
      },
      "transferOwnership(address)": {
        "details": "Transfers ownership of the contract to a new account (`newOwner`). Can only be called by the current owner."
      }
    },
    "version": 1
  },
  "userdoc": {
    "kind": "user",
    "methods": {
      "endGrantAuthentication(address)": {
        "notice": "End the process to nable access for specified contract after delay period has passed."
      },
      "grantInitialAuthentication(address)": {
        "notice": "Grant authentication to the initial Exchange protocol contract"
      },
      "registerProxy()": {
        "notice": "Register a proxy contract with this registry"
      },
      "revokeAuthentication(address)": {
        "notice": "Revoke access for specified contract. Can be done instantly."
      },
      "startGrantAuthentication(address)": {
        "notice": "Start the process to enable access for specified contract. Subject to delay period."
      }
    },
    "version": 1
  }
}