{
  "contractName": "ElementixExchange",
  "abi": [
    {
      "inputs": [
        {
          "internalType": "contract ProxyRegistry",
          "name": "registryAddress",
          "type": "address"
        },
        {
          "internalType": "contract TokenTransferProxy",
          "name": "tokenTransferProxyAddress",
          "type": "address"
        },
        {
          "internalType": "contract ERC20",
          "name": "tokenAddress",
          "type": "address"
        },
        {
          "internalType": "address",
          "name": "protocolFeeAddress",
          "type": "address"
        }
      ],
      "stateMutability": "nonpayable",
      "type": "constructor"
    },
    {
      "anonymous": false,
      "inputs": [
        {
          "indexed": true,
          "internalType": "bytes32",
          "name": "hash",
          "type": "bytes32"
        },
        {
          "indexed": false,
          "internalType": "address",
          "name": "exchange",
          "type": "address"
        },
        {
          "indexed": true,
          "internalType": "address",
          "name": "maker",
          "type": "address"
        },
        {
          "indexed": false,
          "internalType": "address",
          "name": "taker",
          "type": "address"
        },
        {
          "indexed": false,
          "internalType": "uint256",
          "name": "makerRelayerFee",
          "type": "uint256"
        },
        {
          "indexed": false,
          "internalType": "uint256",
          "name": "takerRelayerFee",
          "type": "uint256"
        },
        {
          "indexed": false,
          "internalType": "uint256",
          "name": "makerProtocolFee",
          "type": "uint256"
        },
        {
          "indexed": false,
          "internalType": "uint256",
          "name": "takerProtocolFee",
          "type": "uint256"
        },
        {
          "indexed": true,
          "internalType": "address",
          "name": "feeRecipient",
          "type": "address"
        },
        {
          "indexed": false,
          "internalType": "enum DataType.FeeMethod",
          "name": "feeMethod",
          "type": "uint8"
        },
        {
          "indexed": false,
          "internalType": "enum SaleKindInterface.Side",
          "name": "side",
          "type": "uint8"
        },
        {
          "indexed": false,
          "internalType": "enum SaleKindInterface.SaleKind",
          "name": "saleKind",
          "type": "uint8"
        },
        {
          "indexed": false,
          "internalType": "address",
          "name": "target",
          "type": "address"
        }
      ],
      "name": "OrderApprovedPartOne",
      "type": "event"
    },
    {
      "anonymous": false,
      "inputs": [
        {
          "indexed": true,
          "internalType": "bytes32",
          "name": "hash",
          "type": "bytes32"
        },
        {
          "indexed": false,
          "internalType": "enum DataType.HowToCall",
          "name": "howToCall",
          "type": "uint8"
        },
        {
          "indexed": false,
          "internalType": "bytes",
          "name": "dataToCall",
          "type": "bytes"
        },
        {
          "indexed": false,
          "internalType": "bytes",
          "name": "replacementPattern",
          "type": "bytes"
        },
        {
          "indexed": false,
          "internalType": "address",
          "name": "staticTarget",
          "type": "address"
        },
        {
          "indexed": false,
          "internalType": "bytes",
          "name": "staticExtradata",
          "type": "bytes"
        },
        {
          "indexed": false,
          "internalType": "address",
          "name": "paymentToken",
          "type": "address"
        },
        {
          "indexed": false,
          "internalType": "uint256",
          "name": "basePrice",
          "type": "uint256"
        },
        {
          "indexed": false,
          "internalType": "uint256",
          "name": "extra",
          "type": "uint256"
        },
        {
          "indexed": false,
          "internalType": "uint256",
          "name": "listingTime",
          "type": "uint256"
        },
        {
          "indexed": false,
          "internalType": "uint256",
          "name": "expirationTime",
          "type": "uint256"
        },
        {
          "indexed": false,
          "internalType": "uint256",
          "name": "salt",
          "type": "uint256"
        },
        {
          "indexed": false,
          "internalType": "bool",
          "name": "orderbookInclusionDesired",
          "type": "bool"
        }
      ],
      "name": "OrderApprovedPartTwo",
      "type": "event"
    },
    {
      "anonymous": false,
      "inputs": [
        {
          "indexed": true,
          "internalType": "bytes32",
          "name": "hash",
          "type": "bytes32"
        }
      ],
      "name": "OrderCancelled",
      "type": "event"
    },
    {
      "anonymous": false,
      "inputs": [
        {
          "indexed": false,
          "internalType": "bytes32",
          "name": "buyHash",
          "type": "bytes32"
        },
        {
          "indexed": false,
          "internalType": "bytes32",
          "name": "sellHash",
          "type": "bytes32"
        },
        {
          "indexed": true,
          "internalType": "address",
          "name": "maker",
          "type": "address"
        },
        {
          "indexed": true,
          "internalType": "address",
          "name": "taker",
          "type": "address"
        },
        {
          "indexed": false,
          "internalType": "uint256",
          "name": "price",
          "type": "uint256"
        },
        {
          "indexed": true,
          "internalType": "bytes32",
          "name": "metadata",
          "type": "bytes32"
        }
      ],
      "name": "OrdersMatched",
      "type": "event"
    },
    {
      "anonymous": false,
      "inputs": [
        {
          "indexed": true,
          "internalType": "address",
          "name": "previousOwner",
          "type": "address"
        },
        {
          "indexed": true,
          "internalType": "address",
          "name": "newOwner",
          "type": "address"
        }
      ],
      "name": "OwnershipTransferred",
      "type": "event"
    },
    {
      "inputs": [],
      "name": "INVERSE_BASIS_POINT",
      "outputs": [
        {
          "internalType": "uint256",
          "name": "",
          "type": "uint256"
        }
      ],
      "stateMutability": "view",
      "type": "function",
      "constant": true
    },
    {
      "inputs": [
        {
          "components": [
            {
              "internalType": "address",
              "name": "exchange",
              "type": "address"
            },
            {
              "internalType": "address",
              "name": "maker",
              "type": "address"
            },
            {
              "internalType": "address",
              "name": "taker",
              "type": "address"
            },
            {
              "internalType": "uint256",
              "name": "makerRelayerFee",
              "type": "uint256"
            },
            {
              "internalType": "uint256",
              "name": "takerRelayerFee",
              "type": "uint256"
            },
            {
              "internalType": "uint256",
              "name": "makerProtocolFee",
              "type": "uint256"
            },
            {
              "internalType": "uint256",
              "name": "takerProtocolFee",
              "type": "uint256"
            },
            {
              "internalType": "address",
              "name": "feeRecipient",
              "type": "address"
            },
            {
              "internalType": "enum DataType.FeeMethod",
              "name": "feeMethod",
              "type": "uint8"
            },
            {
              "internalType": "enum SaleKindInterface.Side",
              "name": "side",
              "type": "uint8"
            },
            {
              "internalType": "enum SaleKindInterface.SaleKind",
              "name": "saleKind",
              "type": "uint8"
            },
            {
              "internalType": "address",
              "name": "target",
              "type": "address"
            },
            {
              "internalType": "enum DataType.HowToCall",
              "name": "howToCall",
              "type": "uint8"
            },
            {
              "internalType": "bytes",
              "name": "dataToCall",
              "type": "bytes"
            },
            {
              "internalType": "bytes",
              "name": "replacementPattern",
              "type": "bytes"
            },
            {
              "internalType": "address",
              "name": "staticTarget",
              "type": "address"
            },
            {
              "internalType": "bytes",
              "name": "staticExtradata",
              "type": "bytes"
            },
            {
              "internalType": "address",
              "name": "paymentToken",
              "type": "address"
            },
            {
              "internalType": "uint256",
              "name": "basePrice",
              "type": "uint256"
            },
            {
              "internalType": "uint256",
              "name": "extra",
              "type": "uint256"
            },
            {
              "internalType": "uint256",
              "name": "listingTime",
              "type": "uint256"
            },
            {
              "internalType": "uint256",
              "name": "expirationTime",
              "type": "uint256"
            },
            {
              "internalType": "uint256",
              "name": "salt",
              "type": "uint256"
            }
          ],
          "internalType": "struct DataType.Order",
          "name": "order",
          "type": "tuple"
        },
        {
          "internalType": "bool",
          "name": "orderbookInclusionDesired",
          "type": "bool"
        }
      ],
      "name": "approveOrder",
      "outputs": [],
      "stateMutability": "nonpayable",
      "type": "function"
    },
    {
      "inputs": [
        {
          "internalType": "bytes32",
          "name": "",
          "type": "bytes32"
        }
      ],
      "name": "approvedOrders",
      "outputs": [
        {
          "internalType": "bool",
          "name": "",
          "type": "bool"
        }
      ],
      "stateMutability": "view",
      "type": "function",
      "constant": true
    },
    {
      "inputs": [
        {
          "components": [
            {
              "internalType": "address",
              "name": "exchange",
              "type": "address"
            },
            {
              "internalType": "address",
              "name": "maker",
              "type": "address"
            },
            {
              "internalType": "address",
              "name": "taker",
              "type": "address"
            },
            {
              "internalType": "uint256",
              "name": "makerRelayerFee",
              "type": "uint256"
            },
            {
              "internalType": "uint256",
              "name": "takerRelayerFee",
              "type": "uint256"
            },
            {
              "internalType": "uint256",
              "name": "makerProtocolFee",
              "type": "uint256"
            },
            {
              "internalType": "uint256",
              "name": "takerProtocolFee",
              "type": "uint256"
            },
            {
              "internalType": "address",
              "name": "feeRecipient",
              "type": "address"
            },
            {
              "internalType": "enum DataType.FeeMethod",
              "name": "feeMethod",
              "type": "uint8"
            },
            {
              "internalType": "enum SaleKindInterface.Side",
              "name": "side",
              "type": "uint8"
            },
            {
              "internalType": "enum SaleKindInterface.SaleKind",
              "name": "saleKind",
              "type": "uint8"
            },
            {
              "internalType": "address",
              "name": "target",
              "type": "address"
            },
            {
              "internalType": "enum DataType.HowToCall",
              "name": "howToCall",
              "type": "uint8"
            },
            {
              "internalType": "bytes",
              "name": "dataToCall",
              "type": "bytes"
            },
            {
              "internalType": "bytes",
              "name": "replacementPattern",
              "type": "bytes"
            },
            {
              "internalType": "address",
              "name": "staticTarget",
              "type": "address"
            },
            {
              "internalType": "bytes",
              "name": "staticExtradata",
              "type": "bytes"
            },
            {
              "internalType": "address",
              "name": "paymentToken",
              "type": "address"
            },
            {
              "internalType": "uint256",
              "name": "basePrice",
              "type": "uint256"
            },
            {
              "internalType": "uint256",
              "name": "extra",
              "type": "uint256"
            },
            {
              "internalType": "uint256",
              "name": "listingTime",
              "type": "uint256"
            },
            {
              "internalType": "uint256",
              "name": "expirationTime",
              "type": "uint256"
            },
            {
              "internalType": "uint256",
              "name": "salt",
              "type": "uint256"
            }
          ],
          "internalType": "struct DataType.Order",
          "name": "order",
          "type": "tuple"
        },
        {
          "components": [
            {
              "internalType": "uint8",
              "name": "v",
              "type": "uint8"
            },
            {
              "internalType": "bytes32",
              "name": "r",
              "type": "bytes32"
            },
            {
              "internalType": "bytes32",
              "name": "s",
              "type": "bytes32"
            }
          ],
          "internalType": "struct DataType.Sig",
          "name": "sig",
          "type": "tuple"
        }
      ],
      "name": "cancelOrder",
      "outputs": [],
      "stateMutability": "nonpayable",
      "type": "function"
    },
    {
      "inputs": [
        {
          "internalType": "bytes32",
          "name": "",
          "type": "bytes32"
        }
      ],
      "name": "cancelledOrFinalized",
      "outputs": [
        {
          "internalType": "bool",
          "name": "",
          "type": "bool"
        }
      ],
      "stateMutability": "view",
      "type": "function",
      "constant": true
    },
    {
      "inputs": [
        {
          "internalType": "uint256",
          "name": "newMinimumMakerProtocolFee",
          "type": "uint256"
        }
      ],
      "name": "changeMinimumMakerProtocolFee",
      "outputs": [],
      "stateMutability": "nonpayable",
      "type": "function"
    },
    {
      "inputs": [
        {
          "internalType": "uint256",
          "name": "newMinimumTakerProtocolFee",
          "type": "uint256"
        }
      ],
      "name": "changeMinimumTakerProtocolFee",
      "outputs": [],
      "stateMutability": "nonpayable",
      "type": "function"
    },
    {
      "inputs": [
        {
          "internalType": "address",
          "name": "newProtocolFeeRecipient",
          "type": "address"
        }
      ],
      "name": "changeProtocolFeeRecipient",
      "outputs": [],
      "stateMutability": "nonpayable",
      "type": "function"
    },
    {
      "inputs": [],
      "name": "exchangeToken",
      "outputs": [
        {
          "internalType": "contract ERC20",
          "name": "",
          "type": "address"
        }
      ],
      "stateMutability": "view",
      "type": "function",
      "constant": true
    },
    {
      "inputs": [],
      "name": "minimumMakerProtocolFee",
      "outputs": [
        {
          "internalType": "uint256",
          "name": "",
          "type": "uint256"
        }
      ],
      "stateMutability": "view",
      "type": "function",
      "constant": true
    },
    {
      "inputs": [],
      "name": "minimumTakerProtocolFee",
      "outputs": [
        {
          "internalType": "uint256",
          "name": "",
          "type": "uint256"
        }
      ],
      "stateMutability": "view",
      "type": "function",
      "constant": true
    },
    {
      "inputs": [],
      "name": "name",
      "outputs": [
        {
          "internalType": "string",
          "name": "",
          "type": "string"
        }
      ],
      "stateMutability": "view",
      "type": "function",
      "constant": true
    },
    {
      "inputs": [
        {
          "components": [
            {
              "internalType": "address",
              "name": "exchange",
              "type": "address"
            },
            {
              "internalType": "address",
              "name": "maker",
              "type": "address"
            },
            {
              "internalType": "address",
              "name": "taker",
              "type": "address"
            },
            {
              "internalType": "uint256",
              "name": "makerRelayerFee",
              "type": "uint256"
            },
            {
              "internalType": "uint256",
              "name": "takerRelayerFee",
              "type": "uint256"
            },
            {
              "internalType": "uint256",
              "name": "makerProtocolFee",
              "type": "uint256"
            },
            {
              "internalType": "uint256",
              "name": "takerProtocolFee",
              "type": "uint256"
            },
            {
              "internalType": "address",
              "name": "feeRecipient",
              "type": "address"
            },
            {
              "internalType": "enum DataType.FeeMethod",
              "name": "feeMethod",
              "type": "uint8"
            },
            {
              "internalType": "enum SaleKindInterface.Side",
              "name": "side",
              "type": "uint8"
            },
            {
              "internalType": "enum SaleKindInterface.SaleKind",
              "name": "saleKind",
              "type": "uint8"
            },
            {
              "internalType": "address",
              "name": "target",
              "type": "address"
            },
            {
              "internalType": "enum DataType.HowToCall",
              "name": "howToCall",
              "type": "uint8"
            },
            {
              "internalType": "bytes",
              "name": "dataToCall",
              "type": "bytes"
            },
            {
              "internalType": "bytes",
              "name": "replacementPattern",
              "type": "bytes"
            },
            {
              "internalType": "address",
              "name": "staticTarget",
              "type": "address"
            },
            {
              "internalType": "bytes",
              "name": "staticExtradata",
              "type": "bytes"
            },
            {
              "internalType": "address",
              "name": "paymentToken",
              "type": "address"
            },
            {
              "internalType": "uint256",
              "name": "basePrice",
              "type": "uint256"
            },
            {
              "internalType": "uint256",
              "name": "extra",
              "type": "uint256"
            },
            {
              "internalType": "uint256",
              "name": "listingTime",
              "type": "uint256"
            },
            {
              "internalType": "uint256",
              "name": "expirationTime",
              "type": "uint256"
            },
            {
              "internalType": "uint256",
              "name": "salt",
              "type": "uint256"
            }
          ],
          "internalType": "struct DataType.Order",
          "name": "buy",
          "type": "tuple"
        },
        {
          "components": [
            {
              "internalType": "uint8",
              "name": "v",
              "type": "uint8"
            },
            {
              "internalType": "bytes32",
              "name": "r",
              "type": "bytes32"
            },
            {
              "internalType": "bytes32",
              "name": "s",
              "type": "bytes32"
            }
          ],
          "internalType": "struct DataType.Sig",
          "name": "buySig",
          "type": "tuple"
        },
        {
          "components": [
            {
              "internalType": "address",
              "name": "exchange",
              "type": "address"
            },
            {
              "internalType": "address",
              "name": "maker",
              "type": "address"
            },
            {
              "internalType": "address",
              "name": "taker",
              "type": "address"
            },
            {
              "internalType": "uint256",
              "name": "makerRelayerFee",
              "type": "uint256"
            },
            {
              "internalType": "uint256",
              "name": "takerRelayerFee",
              "type": "uint256"
            },
            {
              "internalType": "uint256",
              "name": "makerProtocolFee",
              "type": "uint256"
            },
            {
              "internalType": "uint256",
              "name": "takerProtocolFee",
              "type": "uint256"
            },
            {
              "internalType": "address",
              "name": "feeRecipient",
              "type": "address"
            },
            {
              "internalType": "enum DataType.FeeMethod",
              "name": "feeMethod",
              "type": "uint8"
            },
            {
              "internalType": "enum SaleKindInterface.Side",
              "name": "side",
              "type": "uint8"
            },
            {
              "internalType": "enum SaleKindInterface.SaleKind",
              "name": "saleKind",
              "type": "uint8"
            },
            {
              "internalType": "address",
              "name": "target",
              "type": "address"
            },
            {
              "internalType": "enum DataType.HowToCall",
              "name": "howToCall",
              "type": "uint8"
            },
            {
              "internalType": "bytes",
              "name": "dataToCall",
              "type": "bytes"
            },
            {
              "internalType": "bytes",
              "name": "replacementPattern",
              "type": "bytes"
            },
            {
              "internalType": "address",
              "name": "staticTarget",
              "type": "address"
            },
            {
              "internalType": "bytes",
              "name": "staticExtradata",
              "type": "bytes"
            },
            {
              "internalType": "address",
              "name": "paymentToken",
              "type": "address"
            },
            {
              "internalType": "uint256",
              "name": "basePrice",
              "type": "uint256"
            },
            {
              "internalType": "uint256",
              "name": "extra",
              "type": "uint256"
            },
            {
              "internalType": "uint256",
              "name": "listingTime",
              "type": "uint256"
            },
            {
              "internalType": "uint256",
              "name": "expirationTime",
              "type": "uint256"
            },
            {
              "internalType": "uint256",
              "name": "salt",
              "type": "uint256"
            }
          ],
          "internalType": "struct DataType.Order",
          "name": "sell",
          "type": "tuple"
        },
        {
          "components": [
            {
              "internalType": "uint8",
              "name": "v",
              "type": "uint8"
            },
            {
              "internalType": "bytes32",
              "name": "r",
              "type": "bytes32"
            },
            {
              "internalType": "bytes32",
              "name": "s",
              "type": "bytes32"
            }
          ],
          "internalType": "struct DataType.Sig",
          "name": "sellSig",
          "type": "tuple"
        },
        {
          "internalType": "bytes32",
          "name": "metadata",
          "type": "bytes32"
        }
      ],
      "name": "orderMatch",
      "outputs": [],
      "stateMutability": "nonpayable",
      "type": "function"
    },
    {
      "inputs": [],
      "name": "owner",
      "outputs": [
        {
          "internalType": "address",
          "name": "",
          "type": "address"
        }
      ],
      "stateMutability": "view",
      "type": "function",
      "constant": true
    },
    {
      "inputs": [],
      "name": "protocolFeeRecipient",
      "outputs": [
        {
          "internalType": "address",
          "name": "",
          "type": "address"
        }
      ],
      "stateMutability": "view",
      "type": "function",
      "constant": true
    },
    {
      "inputs": [],
      "name": "registry",
      "outputs": [
        {
          "internalType": "contract ProxyRegistry",
          "name": "",
          "type": "address"
        }
      ],
      "stateMutability": "view",
      "type": "function",
      "constant": true
    },
    {
      "inputs": [],
      "name": "renounceOwnership",
      "outputs": [],
      "stateMutability": "nonpayable",
      "type": "function"
    },
    {
      "inputs": [],
      "name": "tokenTransferProxy",
      "outputs": [
        {
          "internalType": "contract TokenTransferProxy",
          "name": "",
          "type": "address"
        }
      ],
      "stateMutability": "view",
      "type": "function",
      "constant": true
    },
    {
      "inputs": [
        {
          "internalType": "address",
          "name": "newOwner",
          "type": "address"
        }
      ],
      "name": "transferOwnership",
      "outputs": [],
      "stateMutability": "nonpayable",
      "type": "function"
    },
    {
      "inputs": [
        {
          "internalType": "bytes32",
          "name": "hash",
          "type": "bytes32"
        },
        {
          "components": [
            {
              "internalType": "address",
              "name": "exchange",
              "type": "address"
            },
            {
              "internalType": "address",
              "name": "maker",
              "type": "address"
            },
            {
              "internalType": "address",
              "name": "taker",
              "type": "address"
            },
            {
              "internalType": "uint256",
              "name": "makerRelayerFee",
              "type": "uint256"
            },
            {
              "internalType": "uint256",
              "name": "takerRelayerFee",
              "type": "uint256"
            },
            {
              "internalType": "uint256",
              "name": "makerProtocolFee",
              "type": "uint256"
            },
            {
              "internalType": "uint256",
              "name": "takerProtocolFee",
              "type": "uint256"
            },
            {
              "internalType": "address",
              "name": "feeRecipient",
              "type": "address"
            },
            {
              "internalType": "enum DataType.FeeMethod",
              "name": "feeMethod",
              "type": "uint8"
            },
            {
              "internalType": "enum SaleKindInterface.Side",
              "name": "side",
              "type": "uint8"
            },
            {
              "internalType": "enum SaleKindInterface.SaleKind",
              "name": "saleKind",
              "type": "uint8"
            },
            {
              "internalType": "address",
              "name": "target",
              "type": "address"
            },
            {
              "internalType": "enum DataType.HowToCall",
              "name": "howToCall",
              "type": "uint8"
            },
            {
              "internalType": "bytes",
              "name": "dataToCall",
              "type": "bytes"
            },
            {
              "internalType": "bytes",
              "name": "replacementPattern",
              "type": "bytes"
            },
            {
              "internalType": "address",
              "name": "staticTarget",
              "type": "address"
            },
            {
              "internalType": "bytes",
              "name": "staticExtradata",
              "type": "bytes"
            },
            {
              "internalType": "address",
              "name": "paymentToken",
              "type": "address"
            },
            {
              "internalType": "uint256",
              "name": "basePrice",
              "type": "uint256"
            },
            {
              "internalType": "uint256",
              "name": "extra",
              "type": "uint256"
            },
            {
              "internalType": "uint256",
              "name": "listingTime",
              "type": "uint256"
            },
            {
              "internalType": "uint256",
              "name": "expirationTime",
              "type": "uint256"
            },
            {
              "internalType": "uint256",
              "name": "salt",
              "type": "uint256"
            }
          ],
          "internalType": "struct DataType.Order",
          "name": "order",
          "type": "tuple"
        },
        {
          "components": [
            {
              "internalType": "uint8",
              "name": "v",
              "type": "uint8"
            },
            {
              "internalType": "bytes32",
              "name": "r",
              "type": "bytes32"
            },
            {
              "internalType": "bytes32",
              "name": "s",
              "type": "bytes32"
            }
          ],
          "internalType": "struct DataType.Sig",
          "name": "sig",
          "type": "tuple"
        }
      ],
      "name": "validateOrder",
      "outputs": [
        {
          "internalType": "bool",
          "name": "",
          "type": "bool"
        }
      ],
      "stateMutability": "view",
      "type": "function",
      "constant": true
    },
    {
      "inputs": [],
      "name": "version",
      "outputs": [
        {
          "internalType": "string",
          "name": "",
          "type": "string"
        }
      ],
      "stateMutability": "view",
      "type": "function",
      "constant": true
    }
  ],
  "bytecode": "0x6080604052600060075560006008553480156200001b57600080fd5b5060405162003052380380620030528339810160408190526200003e91620000fe565b6001600090815562000058640100000000620000fa810204565b60018054600160a060020a031916600160a060020a038316908117909155604051919250906000907f8be0079c531659141344cd1fd0a4f28419497f9722a3daafe3b4186f6b6457e0908290a35060038054600160a060020a03958616600160a060020a03199182161790915560048054948616948216949094179093556002805492851692841692909217909155600980549190931691161790556200017e565b3390565b6000806000806080858703121562000114578384fd5b8451620001218162000165565b6020860151909450620001348162000165565b6040860151909350620001478162000165565b60608601519092506200015a8162000165565b939692955090935050565b600160a060020a03811681146200017b57600080fd5b50565b612ec4806200018e6000396000f3fe608060405234801561001057600080fd5b506004361061013b5760003560e060020a90048063782428e6116100bc5780639d6c2062116100805780639d6c2062146102ec578063a25eb5d9146102ff578063cae6047f14610312578063e57d4adb1461031b578063f2fde38b1461033e578063fd902d061461035157600080fd5b8063782428e6146102895780637b1039991461029c5780637ccefc52146102af5780638076f005146102b85780638da5cb5b146102db57600080fd5b806328a8ee681161010357806328a8ee6814610208578063514f03301461021f57806354fd4d501461023257806364df049e1461026e578063715018a61461028157600080fd5b806306fdde03146101405780630990a6f7146101925780630eefdbad146101b557806314350c24146101e05780631a6b13e2146101f5575b600080fd5b61017c6040518060400160405280601281526020017f456c656d656e7469782045786368616e6765000000000000000000000000000081525081565b6040516101899190612d17565b60405180910390f35b6101a56101a03660046129ce565b610364565b6040519015158152602001610189565b6004546101c890600160a060020a031681565b604051600160a060020a039091168152602001610189565b6101f36101ee3660046129b6565b610451565b005b6101f36102033660046129b6565b61048c565b61021160085481565b604051908152602001610189565b6101f361022d366004612962565b6104be565b61017c6040518060400160405280600381526020017f312e30000000000000000000000000000000000000000000000000000000000081525081565b6009546101c890600160a060020a031681565b6101f361051a565b6101f3610297366004612a24565b61059e565b6003546101c890600160a060020a031681565b61021160075481565b6101a56102c63660046129b6565b60056020526000908152604090205460ff1681565b600154600160a060020a03166101c8565b6101f36102fa366004612ac1565b610732565b6002546101c890600160a060020a031681565b61021161271081565b6101a56103293660046129b6565b60066020526000908152604090205460ff1681565b6101f361034c366004612962565b611059565b6101f361035f366004612a74565b61116e565b600061037583600754600854611229565b6103815750600061044a565b60008481526005602052604090205460ff16156103a05750600061044a565b60008481526006602052604090205460ff16156103bf5750600161044a565b6020808401518351848301516040808701518151600081529586018083528a905260ff9093169085015260608401526080830152600160a060020a03169060019060a0016020604051602081039080840390855afa158015610425573d6000803e3d6000fd5b50505060206040510351600160a060020a031614156104465750600161044a565b5060005b9392505050565b600154600160a060020a031633146104875760405160e560020a62461bcd02815260040161047e90612d2a565b60405180910390fd5b600755565b600154600160a060020a031633146104b95760405160e560020a62461bcd02815260040161047e90612d2a565b600855565b600154600160a060020a031633146104eb5760405160e560020a62461bcd02815260040161047e90612d2a565b6009805473ffffffffffffffffffffffffffffffffffffffff1916600160a060020a0392909216919091179055565b600154600160a060020a031633146105475760405160e560020a62461bcd02815260040161047e90612d2a565b600154604051600091600160a060020a0316907f8be0079c531659141344cd1fd0a4f28419497f9722a3daafe3b4186f6b6457e0908390a36001805473ffffffffffffffffffffffffffffffffffffffff19169055565b8160200151600160a060020a031633600160a060020a0316146105c057600080fd5b60006105cb836112c3565b60008181526006602052604090205490915060ff16156105ea57600080fd5b60016006600083815260200190815260200160002060006101000a81548160ff0219169083151502179055508260e00151600160a060020a03168360200151600160a060020a0316827f90c7f9f5b58c15f0f635bfb99f55d3d78fdbef3559e7d8abf5c81052a527662286600001518760400151886060015189608001518a60a001518b60c001518c61010001518d61012001518e61014001518f61016001516040516106a09a99989796959493929190612b9a565b60405180910390a4807fe55393c778364e440d958b39ac1debd99dcfae3775a8a04d1e79124adf6a2d08846101800151856101a00151866101c00151876101e001518861020001518961022001518a61024001518b61026001518c61028001518d6102a001518e6102c001518e6040516107259c9b9a99989796959493929190612c7c565b60405180910390a2505050565b600260005414156107885760405160e560020a62461bcd02815260206004820152601f60248201527f5265656e7472616e637947756172643a207265656e7472616e742063616c6c00604482015260640161047e565b600260009081556020860151600160a060020a0316331415610807576107b386600754600854611229565b6108025760405160e560020a62461bcd02815260206004820152600a60248201527f21627579206f7264657200000000000000000000000000000000000000000000604482015260640161047e565b610814565b610811868661131f565b90505b6020840151600090600160a060020a031633141561088f5761083b85600754600854611229565b61088a5760405160e560020a62461bcd02815260206004820152600b60248201527f2173656c6c206f72646572000000000000000000000000000000000000000000604482015260640161047e565b61089c565b610899858561131f565b90505b6108a68786611387565b6108f55760405160e560020a62461bcd02815260206004820152601060248201527f6f7264657273206e6f74206d6174636800000000000000000000000000000000604482015260640161047e565b610160850151803b908161094e5760405160e560020a62461bcd02815260206004820152600c60248201527f217461726765742073697a650000000000000000000000000000000000000000604482015260640161047e565b6101c0890151511561097457610974896101a00151886101a001518b6101c001516115eb565b6101c0870151511561099a5761099a876101a001518a6101a00151896101c001516115eb565b6109ae896101a00151886101a00151611814565b6109fd5760405160e560020a62461bcd02815260206004820152600860248201527f2161727261794571000000000000000000000000000000000000000000000000604482015260640161047e565b60035460208801516040517fc4552791000000000000000000000000000000000000000000000000000000008152600160a060020a039182166004820152600092919091169063c45527919060240160206040518083038186803b158015610a6457600080fd5b505afa158015610a78573d6000803e3d6000fd5b505050506040513d601f19601f82011682018060405250810190610a9c919061297e565b9050600160a060020a038116610af75760405160e560020a62461bcd02815260206004820152600e60248201527f2164656c656761746550726f7879000000000000000000000000000000000000604482015260640161047e565b600360009054906101000a9004600160a060020a0316600160a060020a03166397204d8e6040518163ffffffff1660e060020a02815260040160206040518083038186803b158015610b4857600080fd5b505afa158015610b5c573d6000803e3d6000fd5b505050506040513d601f19601f82011682018060405250810190610b80919061297e565b600160a060020a031681600160a060020a0316635c60da1b6040518163ffffffff1660e060020a02815260040160206040518083038186803b158015610bc557600080fd5b505afa158015610bd9573d6000803e3d6000fd5b505050506040513d601f19601f82011682018060405250810190610bfd919061297e565b600160a060020a031614610c565760405160e560020a62461bcd02815260206004820152600f60248201527f21696d706c656d656e746174696f6e0000000000000000000000000000000000604482015260640161047e565b60208a01518190600160a060020a03163314610c86576000868152600560205260409020805460ff191660011790555b8860200151600160a060020a031633600160a060020a031614610cbd576000858152600560205260409020805460ff191660011790555b6000610cc98c8b611878565b905081600160a060020a0316631b0f7ba98b61016001518c61018001518d6101a001516040518463ffffffff1660e060020a028152600401610d0d93929190612c4b565b602060405180830381600087803b158015610d2757600080fd5b505af1158015610d3b573d6000803e3d6000fd5b505050506040513d601f19601f82011682018060405250810190610d5f919061299a565b610dae5760405160e560020a62461bcd02815260206004820152600b60248201527f2170726f78792063616c6c000000000000000000000000000000000000000000604482015260640161047e565b6101e08c0151600160a060020a031615610eae5773__ExchangeCoreLogic_____________________6310796a478d6101e001518c6101a001518f61020001516040518463ffffffff1660e060020a028152600401610e0f93929190612c17565b60206040518083038186803b158015610e2757600080fd5b505af4158015610e3b573d6000803e3d6000fd5b505050506040513d601f19601f82011682018060405250810190610e5f919061299a565b610eae5760405160e560020a62461bcd02815260206004820152600e60248201527f6275792073746174696343616c6c000000000000000000000000000000000000604482015260640161047e565b6101e08a0151600160a060020a031615610fae5773__ExchangeCoreLogic_____________________6310796a478b6101e001518c6101a001518d61020001516040518463ffffffff1660e060020a028152600401610f0f93929190612c17565b60206040518083038186803b158015610f2757600080fd5b505af4158015610f3b573d6000803e3d6000fd5b505050506040513d601f19601f82011682018060405250810190610f5f919061299a565b610fae5760405160e560020a62461bcd02815260206004820152600f60248201527f73656c6c2073746174696343616c6c0000000000000000000000000000000000604482015260640161047e565b60e08a01518890600160a060020a0316610fcc578a60200151610fd2565b8c602001515b60e08c0151600160a060020a039182169116610ff2578d60200151610ff8565b8b602001515b604080518b8152602081018b9052908101859052600160a060020a0391909116907fc4109843e0b7d514e4c093114b863f8e7d8d9a458c372cd51bfe526b588006c99060600160405180910390a45050600160005550505050505050505050565b600154600160a060020a031633146110865760405160e560020a62461bcd02815260040161047e90612d2a565b600160a060020a0381166111055760405160e560020a62461bcd02815260206004820152602660248201527f4f776e61626c653a206e6577206f776e657220697320746865207a65726f206160448201527f6464726573730000000000000000000000000000000000000000000000000000606482015260840161047e565b600154604051600160a060020a038084169216907f8be0079c531659141344cd1fd0a4f28419497f9722a3daafe3b4186f6b6457e090600090a36001805473ffffffffffffffffffffffffffffffffffffffff1916600160a060020a0392909216919091179055565b600061117a838361131f565b90508260200151600160a060020a031633600160a060020a0316146111e45760405160e560020a62461bcd02815260206004820152600960248201527f6e6f74206d616b65720000000000000000000000000000000000000000000000604482015260640161047e565b600081815260056020526040808220805460ff191660011790555182917f5152abf959f6564662358c2e52b702259b78bac5ee7842a0f01937e670efcc7d91a2505050565b8251600090600160a060020a031630146112455750600061044a565b611259846101400151856102a00151612049565b6112655750600061044a565b6001846101000151600181111561128f5760e060020a634e487b7102600052602160045260246000fd5b1480156112ac5750828460a0015110806112ac5750818460c00151105b156112b95750600061044a565b5060019392505050565b60006112ce8261207e565b6040517f19457468657265756d205369676e6564204d6573736167653a0a3332000000006020820152603c810191909152605c01604051602081830303815290604052805190602001209050919050565b60008061132b846112c3565b9050611338818585610364565b61044a5760405160e560020a62461bcd02815260206004820152600e60248201527f2176616c69646174654f72646572000000000000000000000000000000000000604482015260640161047e565b60008083610120015160018111156113b25760e060020a634e487b7102600052602160045260246000fd5b1480156113e65750600182610120015160018111156113e45760e060020a634e487b7102600052602160045260246000fd5b145b801561143f575081610100015160018111156114155760e060020a634e487b7102600052602160045260246000fd5b836101000151600181111561143d5760e060020a634e487b7102600052602160045260246000fd5b145b80156114665750816102200151600160a060020a0316836102200151600160a060020a0316145b80156114a057506040820151600160a060020a031615806114a057508260200151600160a060020a03168260400151600160a060020a0316145b80156114da57506040830151600160a060020a031615806114da57508160200151600160a060020a03168360400151600160a060020a0316145b8015611535575060e0820151600160a060020a0316158015611508575060e0830151600160a060020a031615155b80611535575060e0820151600160a060020a031615801590611535575060e0830151600160a060020a0316155b801561155c5750816101600151600160a060020a0316836101600151600160a060020a0316145b80156115b55750816101800151600181111561158b5760e060020a634e487b7102600052602160045260246000fd5b83610180015160018111156115b35760e060020a634e487b7102600052602160045260246000fd5b145b80156115d057506115d0836102800151846102a001516122bf565b801561044a575061044a826102800151836102a001516122bf565b81518351146115f957600080fd5b805183511461160757600080fd5b6000602084516116179190612da1565b90506000611626826020612dc4565b905081611634602083612da1565b146116525760e060020a634e487b7102600052600160045260246000fd5b60005b8281101561168f5780600101602002808501518187015181168289015182191617828901525050808061168790612dfa565b915050611655565b82156116bc578290508060010160200280850151818701518116828901518219161782890152505061180c565b50805b855181101561180c578481815181106116eb5760e060020a634e487b7102600052603260045260246000fd5b602001015160f860020a900460f860020a028482815181106117205760e060020a634e487b7102600052603260045260246000fd5b602001015160f860020a900460f860020a02168682815181106117565760e060020a634e487b7102600052603260045260246000fd5b602001015160f860020a900460f860020a0285838151811061178b5760e060020a634e487b7102600052603260045260246000fd5b602001015160f860020a900460f860020a0260ff60f860020a021816178682815181106117cb5760e060020a634e487b7102600052603260045260246000fd5b60200101907effffffffffffffffffffffffffffffffffffffffffffffffffffffffffffff1916908160001a9053508061180481612dfa565b9150506116bf565b505050505050565b815181516000916001918114808314611830576000925061186e565b600160208701838101602088015b60028483851001141561186957805183511461185d5760009650600093505b6020928301920161183e565b505050505b5090949350505050565b610220810151600090600160a060020a0316156118e05734156118e05760405160e560020a62461bcd02815260206004820152601360248201527f217061796d656e74546f6b656e2076616c756500000000000000000000000000604482015260640161047e565b60006118ec84846122db565b905060008111801561190b5750610220830151600160a060020a031615155b156119295761192983610220015185602001518560200151846123b2565b60e083015181908190600160a060020a031615611cdd5785608001518560800151111561199b5760405160e560020a62461bcd02815260206004820152601560248201527f2173656c6c2e74616b657252656c617965724665650000000000000000000000604482015260640161047e565b600185610100015160018111156119c55760e060020a634e487b7102600052602160045260246000fd5b1415611caf578560c001518560c001511115611a265760405160e560020a62461bcd02815260206004820152601660248201527f2173656c6c2e74616b657250726f746f636f6c46656500000000000000000000604482015260640161047e565b606085015115611ac9576000611a4b611a438760600151866124be565b6127106124ca565b610220870151909150600160a060020a0316611aae57611a6b83826124d6565b60e0870151604051919450600160a060020a03169082156108fc029083906000818181858888f19350505050158015611aa8573d6000803e3d6000fd5b50611ac7565b611ac786610220015187602001518860e00151846123b2565b505b608085015115611b64576000611ae6611a438760800151866124be565b610220870151909150600160a060020a0316611b4957611b0682826124e2565b60e0870151604051919350600160a060020a03169082156108fc029083906000818181858888f19350505050158015611b43573d6000803e3d6000fd5b50611b62565b611b6286610220015188602001518860e00151846123b2565b505b60a085015115611c07576000611b81611a438760a00151866124be565b610220870151909150600160a060020a0316611be257611ba183826124d6565b600954604051919450600160a060020a03169082156108fc029083906000818181858888f19350505050158015611bdc573d6000803e3d6000fd5b50611c05565b6102208601516020870151600954611c05929190600160a060020a0316846123b2565b505b60c085015115611caa576000611c24611a438760c00151866124be565b610220870151909150600160a060020a0316611c8557611c4482826124e2565b600954604051919350600160a060020a03169082156108fc029083906000818181858888f19350505050158015611c7f573d6000803e3d6000fd5b50611ca8565b6102208601516020880151600954611ca8929190600160a060020a0316846123b2565b505b611f47565b611cc685602001518660e0015187606001516124ee565b611caa86602001518660e0015187608001516124ee565b846080015186608001511115611d385760405160e560020a62461bcd02815260206004820152601460248201527f216275792e74616b657252656c61796572466565000000000000000000000000604482015260640161047e565b60018561010001516001811115611d625760e060020a634e487b7102600052602160045260246000fd5b1415611f1957610220850151600160a060020a0316611dc65760405160e560020a62461bcd02815260206004820152601560248201527f73656c6c2e7061796d656e74546f6b656e203d20300000000000000000000000604482015260640161047e565b8460c001518660c001511115611e215760405160e560020a62461bcd02815260206004820152601460248201527f6275792e74616b657250726f746f636f6c466565000000000000000000000000604482015260640161047e565b606086015115611e5b576000611e3e611a438860600151866124be565b9050611e5986610220015188602001518960e00151846123b2565b505b608086015115611e95576000611e78611a438860800151866124be565b9050611e9386610220015187602001518960e00151846123b2565b505b60a086015115611ed8576000611eb2611a438860a00151866124be565b6102208701516020890151600954929350611ed692600160a060020a0316846123b2565b505b60c086015115611caa576000611ef5611a438860c00151866124be565b6102208701516020880151600954929350611ca892600160a060020a0316846123b2565b611f3086602001518760e0015188606001516124ee565b611f4785602001518760e0015188608001516124ee565b610220850151600160a060020a031661186e5780341015611fad5760405160e560020a62461bcd02815260206004820152601a60248201527f6d73672e76616c7565203c207265717569726564416d6f756e74000000000000604482015260640161047e565b8460200151600160a060020a03166108fc839081150290604051600060405180830381858888f19350505050158015611fea573d6000803e3d6000fd5b506000611ff734836124d6565b9050801561203e578660200151600160a060020a03166108fc829081150290604051600060405180830381858888f1935050505015801561203c573d6000803e3d6000fd5b505b505090949350505050565b60008083600181111561206f5760e060020a634e487b7102600052602160045260246000fd5b148061044a5750501515919050565b60008061208a8361250b565b905060008167ffffffffffffffff8111156120b85760e060020a634e487b7102600052604160045260246000fd5b6040519080825280601f01601f1916602001820160405280156120e2576020820181803683370190505b50845190915060208201906120f8908290612549565b9050612108818660200151612549565b9050612118818660400151612549565b6060868101518252608080880151602084015260a0880151604084015260c08801519183019190915260e087015191019150612155908290612549565b90506121888186610100015160018111156121835760e060020a634e487b7102600052602160045260246000fd5b612569565b90506121b68186610120015160018111156121835760e060020a634e487b7102600052602160045260246000fd5b90506121e48186610140015160018111156121835760e060020a634e487b7102600052602160045260246000fd5b90506121f581866101600151612549565b90506122238186610180015160018111156121835760e060020a634e487b7102600052602160045260246000fd5b905061223481866101a00151612576565b905061224581866101c00151612576565b905061225681866101e00151612549565b905061226781866102000151612576565b905061227881866102200151612549565b610240860151815261026086015160208083019190915261028087015160408301526102a087015160608301526102c0909601516080909101525090920191909120919050565b6000428310801561044a575081158061044a5750504210919050565b60008061230a836101200151846101400151856102400151866102600151876102800151886102a001516125b9565b9050600061233a8561012001518661014001518761024001518861026001518961028001518a6102a001516125b9565b90508181101561238f5760405160e560020a62461bcd02815260206004820152601460248201527f2162757950726963653e3d73656c6c5072696365000000000000000000000000604482015260640161047e565b60e0840151600160a060020a03166123a757806123a9565b815b95945050505050565b80156124b857600480546040517f15dacbea000000000000000000000000000000000000000000000000000000008152600160a060020a038781169382019390935285831660248201528483166044820152606481018490529116906315dacbea90608401602060405180830381600087803b15801561243157600080fd5b505af1158015612445573d6000803e3d6000fd5b505050506040513d601f19601f82011682018060405250810190612469919061299a565b6124b85760405160e560020a62461bcd02815260206004820152600d60248201527f217472616e7366657246726f6d00000000000000000000000000000000000000604482015260640161047e565b50505050565b600061044a8284612dc4565b600061044a8284612da1565b600061044a8284612de3565b600061044a8284612d89565b60025461250690600160a060020a03168484846123b2565b505050565b600081610200015151826101c0015151836101a00151516101b061252f9190612d89565b6125399190612d89565b6125439190612d89565b92915050565b600160a060020a03166c0100000000000000000000000002815260140190565b6000818353505060010190565b8051600090156125b257815180602001830160208401855b600183831014156125a957815181526020918201910161258e565b50505092909201915b5090919050565b6000808660018111156125df5760e060020a634e487b7102600052602160045260246000fd5b14156125ec575083612687565b60018660018111156126115760e060020a634e487b7102600052602160045260246000fd5b141561268757600061263e61262f8661262a42886124d6565b6124be565b61263985876124d6565b6124ca565b905060018860018111156126655760e060020a634e487b7102600052602160045260246000fd5b141561267d5761267586826124d6565b915050612687565b61267586826124e2565b9695505050505050565b803561269c81612e6b565b919050565b600082601f8301126126b1578081fd5b813567ffffffffffffffff808211156126cc576126cc612e2e565b604051601f8301601f19908116603f011681019082821181831017156126f4576126f4612e2e565b8160405283815286602085880101111561270c578485fd5b8360208701602083013792830160200193909352509392505050565b80356002811061269c57600080fd5b60006102e08284031215612749578081fd5b612751612d5f565b905061275c82612691565b815261276a60208301612691565b602082015261277b60408301612691565b6040820152606082013560608201526080820135608082015260a082013560a082015260c082013560c08201526127b460e08301612691565b60e08201526101006127c7818401612728565b908201526101206127d9838201612728565b908201526101406127eb838201612728565b908201526101606127fd838201612691565b9082015261018061280f838201612728565b908201526101a08281013567ffffffffffffffff8082111561283057600080fd5b61283c868387016126a1565b838501526101c092508285013591508082111561285857600080fd5b612864868387016126a1565b838501526101e09250612878838601612691565b8385015261020092508285013591508082111561289457600080fd5b506128a1858286016126a1565b8284015250506102206128b5818401612691565b908201526102408281013590820152610260808301359082015261028080830135908201526102a080830135908201526102c09182013591810191909152919050565b600060608284031215612909578081fd5b6040516060810181811067ffffffffffffffff8211171561292c5761292c612e2e565b604052905080823560ff8116811461294357600080fd5b8082525060208301356020820152604083013560408201525092915050565b600060208284031215612973578081fd5b813561044a81612e6b565b60006020828403121561298f578081fd5b815161044a81612e6b565b6000602082840312156129ab578081fd5b815161044a81612e80565b6000602082840312156129c7578081fd5b5035919050565b600080600060a084860312156129e2578182fd5b83359250602084013567ffffffffffffffff8111156129ff578283fd5b612a0b86828701612737565b925050612a1b85604086016128f8565b90509250925092565b60008060408385031215612a36578182fd5b823567ffffffffffffffff811115612a4c578283fd5b612a5885828601612737565b9250506020830135612a6981612e80565b809150509250929050565b60008060808385031215612a86578182fd5b823567ffffffffffffffff811115612a9c578283fd5b612aa885828601612737565b925050612ab884602085016128f8565b90509250929050565b60008060008060006101208688031215612ad9578283fd5b853567ffffffffffffffff80821115612af0578485fd5b612afc89838a01612737565b9650612b0b8960208a016128f8565b95506080880135915080821115612b20578485fd5b50612b2d88828901612737565b935050612b3d8760a088016128f8565b94979396509194610100013592915050565b60008151808452815b81811015612b7457602081850181015186830182015201612b58565b81811115612b855782602083870101525b50601f01601f19169290920160200192915050565b600061014082019050600160a060020a03808d168352808c1660208401528a60408401528960608401528860808401528760a0840152612bd987612e47565b8660c0840152612be886612e47565b8560e0840152612bf785612e47565b84610100840152808416610120840152509b9a5050505050505050505050565b600160a060020a0384168152606060208201526000612c396060830185612b4f565b82810360408401526126878185612b4f565b600160a060020a0384168152612c6083612e47565b8260208201526060604082015260006123a96060830184612b4f565b6000610180612c8a8f612e47565b8e8352806020840152612c9f8184018f612b4f565b90508281036040840152612cb3818e612b4f565b9050600160a060020a03808d1660608501528382036080850152612cd7828d612b4f565b9a1660a0840152505060c081019690965260e086019490945261010085019290925261012084015261014083015215156101609091015295945050505050565b60208152600061044a6020830184612b4f565b6020808252818101527f4f776e61626c653a2063616c6c6572206973206e6f7420746865206f776e6572604082015260600190565b6040516102e0810167ffffffffffffffff81118282101715612d8357612d83612e2e565b60405290565b60008219821115612d9c57612d9c612e15565b500190565b600082612dbf5760e060020a634e487b710281526012600452602481fd5b500490565b6000816000190483118215151615612dde57612dde612e15565b500290565b600082821015612df557612df5612e15565b500390565b6000600019821415612e0e57612e0e612e15565b5060010190565b60e060020a634e487b7102600052601160045260246000fd5b60e060020a634e487b7102600052604160045260246000fd5b60028110612e685760e060020a634e487b7102600052602160045260246000fd5b50565b600160a060020a0381168114612e6857600080fd5b8015158114612e6857600080fdfea264697066735822122013608094a96cd19febe4d23a6d48fdd9708dd72de1ad5770880738ab63d474c264736f6c63430008040033",
  "immutableReferences": {},
  "source": "// SPDX-License-Identifier: MIT\npragma solidity ^0.8.0;\n\nimport {TokenTransferProxy} from './TokenTransferProxy.sol';\nimport {ProxyRegistry} from './ProxyRegistry.sol';\nimport {ERC20} from '../dependencies/openzeppelin/contracts/token/ERC20/ERC20.sol';\nimport {ExchangeCore} from './ExchangeCore.sol';\nimport {SaleKindInterface} from './libraries/SaleKindInterface.sol';\nimport {DataType} from './libraries/DataType.sol';\n\n\ncontract ElementixExchange is ExchangeCore {\n    string public constant name = \"Elementix Exchange\";\n    string public constant version = \"1.0\";\n\n    /**\n     * @dev Initialize a ElementixExchange instance\n     * @param registryAddress Address of the registry instance which this Exchange instance will use\n     * @param tokenAddress Address of the token used for protocol fees\n     */\n    constructor (ProxyRegistry registryAddress, TokenTransferProxy tokenTransferProxyAddress, ERC20 tokenAddress, address protocolFeeAddress) {\n        registry = registryAddress;\n        tokenTransferProxy = tokenTransferProxyAddress;\n        exchangeToken = tokenAddress;\n        protocolFeeRecipient = protocolFeeAddress;\n    }\n\n}\n\n\n",
  "sourcePath": "/Users/liyu/Mars/gitlab/element-contract/contracts/elementix/ElementixExchange.sol",
  "compiler": {
    "name": "solc",
    "version": "0.8.4+commit.c7e474f2.Emscripten.clang"
  },
  "schemaVersion": "3.4.0",
  "updatedAt": "2021-05-01T09:06:12.441Z",
  "networkType": "ethereum",
  "devdoc": {
    "kind": "dev",
    "methods": {
      "approveOrder((address,address,address,uint256,uint256,uint256,uint256,address,uint8,uint8,uint8,address,uint8,bytes,bytes,address,bytes,address,uint256,uint256,uint256,uint256,uint256),bool)": {
        "details": "Approve an order and optionally mark it for orderbook inclusion. Must be called by the maker of the order",
        "params": {
          "order": "Order to approve",
          "orderbookInclusionDesired": "Whether orderbook providers should include the order in their orderbooks"
        }
      },
      "cancelOrder((address,address,address,uint256,uint256,uint256,uint256,address,uint8,uint8,uint8,address,uint8,bytes,bytes,address,bytes,address,uint256,uint256,uint256,uint256,uint256),(uint8,bytes32,bytes32))": {
        "details": "Cancel an order, preventing it from being matched. Must be called by the maker of the order",
        "params": {
          "order": "Order to cancel",
          "sig": "ECDSA signature"
        }
      },
      "changeMinimumMakerProtocolFee(uint256)": {
        "details": "Change the minimum maker fee paid to the protocol (owner only)",
        "params": {
          "newMinimumMakerProtocolFee": "New fee to set in basis points"
        }
      },
      "changeMinimumTakerProtocolFee(uint256)": {
        "details": "Change the minimum taker fee paid to the protocol (owner only)",
        "params": {
          "newMinimumTakerProtocolFee": "New fee to set in basis points"
        }
      },
      "changeProtocolFeeRecipient(address)": {
        "details": "Change the protocol fee recipient (owner only)",
        "params": {
          "newProtocolFeeRecipient": "New protocol fee recipient address"
        }
      },
      "constructor": {
        "details": "Initialize a ElementixExchange instance",
        "params": {
          "registryAddress": "Address of the registry instance which this Exchange instance will use",
          "tokenAddress": "Address of the token used for protocol fees"
        }
      },
      "orderMatch((address,address,address,uint256,uint256,uint256,uint256,address,uint8,uint8,uint8,address,uint8,bytes,bytes,address,bytes,address,uint256,uint256,uint256,uint256,uint256),(uint8,bytes32,bytes32),(address,address,address,uint256,uint256,uint256,uint256,address,uint8,uint8,uint8,address,uint8,bytes,bytes,address,bytes,address,uint256,uint256,uint256,uint256,uint256),(uint8,bytes32,bytes32),bytes32)": {
        "details": "Auto match two orders, ensuring validity of the match, and execute all associated state transitions. ",
        "params": {
          "buy": "Buy-side order",
          "buySig": "Buy-side order signature",
          "sell": "Sell-side order",
          "sellSig": "Sell-side order signature"
        }
      },
      "owner()": {
        "details": "Returns the address of the current owner."
      },
      "renounceOwnership()": {
        "details": "Leaves the contract without owner. It will not be possible to call `onlyOwner` functions anymore. Can only be called by the current owner. NOTE: Renouncing ownership will leave the contract without an owner, thereby removing any functionality that is only available to the owner."
      },
      "transferOwnership(address)": {
        "details": "Transfers ownership of the contract to a new account (`newOwner`). Can only be called by the current owner."
      },
      "validateOrder(bytes32,(address,address,address,uint256,uint256,uint256,uint256,address,uint8,uint8,uint8,address,uint8,bytes,bytes,address,bytes,address,uint256,uint256,uint256,uint256,uint256),(uint8,bytes32,bytes32))": {
        "details": "Validate a provided previously approved / signed order, hash, and signature.",
        "params": {
          "hash": "Order hash (already calculated, passed to avoid recalculation)",
          "order": "Order to validate",
          "sig": "ECDSA signature"
        }
      }
    },
    "version": 1
  },
  "userdoc": {
    "kind": "user",
    "methods": {},
    "version": 1
  }
}