{
  "contractName": "ExchangeHelper",
  "abi": [
    {
      "inputs": [
        {
          "internalType": "contract ExchangeCore",
          "name": "core",
          "type": "address"
        }
      ],
      "stateMutability": "nonpayable",
      "type": "constructor"
    },
    {
      "inputs": [],
      "name": "exchangeCore",
      "outputs": [
        {
          "internalType": "contract ExchangeCore",
          "name": "",
          "type": "address"
        }
      ],
      "stateMutability": "view",
      "type": "function",
      "constant": true
    },
    {
      "inputs": [],
      "name": "version",
      "outputs": [
        {
          "internalType": "string",
          "name": "",
          "type": "string"
        }
      ],
      "stateMutability": "view",
      "type": "function",
      "constant": true
    },
    {
      "inputs": [
        {
          "internalType": "bytes",
          "name": "array",
          "type": "bytes"
        },
        {
          "internalType": "bytes",
          "name": "desired",
          "type": "bytes"
        },
        {
          "internalType": "bytes",
          "name": "mask",
          "type": "bytes"
        }
      ],
      "name": "guardedArrayReplace",
      "outputs": [
        {
          "internalType": "bytes",
          "name": "",
          "type": "bytes"
        }
      ],
      "stateMutability": "pure",
      "type": "function",
      "constant": true
    },
    {
      "inputs": [
        {
          "internalType": "enum SaleKindInterface.Side",
          "name": "side",
          "type": "uint8"
        },
        {
          "internalType": "enum SaleKindInterface.SaleKind",
          "name": "saleKind",
          "type": "uint8"
        },
        {
          "internalType": "uint256",
          "name": "basePrice",
          "type": "uint256"
        },
        {
          "internalType": "uint256",
          "name": "extra",
          "type": "uint256"
        },
        {
          "internalType": "uint256",
          "name": "listingTime",
          "type": "uint256"
        },
        {
          "internalType": "uint256",
          "name": "expirationTime",
          "type": "uint256"
        }
      ],
      "name": "calculateFinalPrice",
      "outputs": [
        {
          "internalType": "uint256",
          "name": "",
          "type": "uint256"
        }
      ],
      "stateMutability": "view",
      "type": "function",
      "constant": true
    },
    {
      "inputs": [
        {
          "components": [
            {
              "internalType": "address",
              "name": "exchange",
              "type": "address"
            },
            {
              "internalType": "address",
              "name": "maker",
              "type": "address"
            },
            {
              "internalType": "address",
              "name": "taker",
              "type": "address"
            },
            {
              "internalType": "uint256",
              "name": "makerRelayerFee",
              "type": "uint256"
            },
            {
              "internalType": "uint256",
              "name": "takerRelayerFee",
              "type": "uint256"
            },
            {
              "internalType": "uint256",
              "name": "makerProtocolFee",
              "type": "uint256"
            },
            {
              "internalType": "uint256",
              "name": "takerProtocolFee",
              "type": "uint256"
            },
            {
              "internalType": "address",
              "name": "feeRecipient",
              "type": "address"
            },
            {
              "internalType": "enum DataType.FeeMethod",
              "name": "feeMethod",
              "type": "uint8"
            },
            {
              "internalType": "enum SaleKindInterface.Side",
              "name": "side",
              "type": "uint8"
            },
            {
              "internalType": "enum SaleKindInterface.SaleKind",
              "name": "saleKind",
              "type": "uint8"
            },
            {
              "internalType": "address",
              "name": "target",
              "type": "address"
            },
            {
              "internalType": "enum DataType.HowToCall",
              "name": "howToCall",
              "type": "uint8"
            },
            {
              "internalType": "bytes",
              "name": "dataToCall",
              "type": "bytes"
            },
            {
              "internalType": "bytes",
              "name": "replacementPattern",
              "type": "bytes"
            },
            {
              "internalType": "address",
              "name": "staticTarget",
              "type": "address"
            },
            {
              "internalType": "bytes",
              "name": "staticExtradata",
              "type": "bytes"
            },
            {
              "internalType": "address",
              "name": "paymentToken",
              "type": "address"
            },
            {
              "internalType": "uint256",
              "name": "basePrice",
              "type": "uint256"
            },
            {
              "internalType": "uint256",
              "name": "extra",
              "type": "uint256"
            },
            {
              "internalType": "uint256",
              "name": "listingTime",
              "type": "uint256"
            },
            {
              "internalType": "uint256",
              "name": "expirationTime",
              "type": "uint256"
            },
            {
              "internalType": "uint256",
              "name": "salt",
              "type": "uint256"
            }
          ],
          "internalType": "struct DataType.Order",
          "name": "order",
          "type": "tuple"
        }
      ],
      "name": "hashOrder",
      "outputs": [
        {
          "internalType": "bytes32",
          "name": "",
          "type": "bytes32"
        }
      ],
      "stateMutability": "pure",
      "type": "function",
      "constant": true
    },
    {
      "inputs": [
        {
          "components": [
            {
              "internalType": "address",
              "name": "exchange",
              "type": "address"
            },
            {
              "internalType": "address",
              "name": "maker",
              "type": "address"
            },
            {
              "internalType": "address",
              "name": "taker",
              "type": "address"
            },
            {
              "internalType": "uint256",
              "name": "makerRelayerFee",
              "type": "uint256"
            },
            {
              "internalType": "uint256",
              "name": "takerRelayerFee",
              "type": "uint256"
            },
            {
              "internalType": "uint256",
              "name": "makerProtocolFee",
              "type": "uint256"
            },
            {
              "internalType": "uint256",
              "name": "takerProtocolFee",
              "type": "uint256"
            },
            {
              "internalType": "address",
              "name": "feeRecipient",
              "type": "address"
            },
            {
              "internalType": "enum DataType.FeeMethod",
              "name": "feeMethod",
              "type": "uint8"
            },
            {
              "internalType": "enum SaleKindInterface.Side",
              "name": "side",
              "type": "uint8"
            },
            {
              "internalType": "enum SaleKindInterface.SaleKind",
              "name": "saleKind",
              "type": "uint8"
            },
            {
              "internalType": "address",
              "name": "target",
              "type": "address"
            },
            {
              "internalType": "enum DataType.HowToCall",
              "name": "howToCall",
              "type": "uint8"
            },
            {
              "internalType": "bytes",
              "name": "dataToCall",
              "type": "bytes"
            },
            {
              "internalType": "bytes",
              "name": "replacementPattern",
              "type": "bytes"
            },
            {
              "internalType": "address",
              "name": "staticTarget",
              "type": "address"
            },
            {
              "internalType": "bytes",
              "name": "staticExtradata",
              "type": "bytes"
            },
            {
              "internalType": "address",
              "name": "paymentToken",
              "type": "address"
            },
            {
              "internalType": "uint256",
              "name": "basePrice",
              "type": "uint256"
            },
            {
              "internalType": "uint256",
              "name": "extra",
              "type": "uint256"
            },
            {
              "internalType": "uint256",
              "name": "listingTime",
              "type": "uint256"
            },
            {
              "internalType": "uint256",
              "name": "expirationTime",
              "type": "uint256"
            },
            {
              "internalType": "uint256",
              "name": "salt",
              "type": "uint256"
            }
          ],
          "internalType": "struct DataType.Order",
          "name": "order",
          "type": "tuple"
        }
      ],
      "name": "hashToSign",
      "outputs": [
        {
          "internalType": "bytes32",
          "name": "",
          "type": "bytes32"
        }
      ],
      "stateMutability": "pure",
      "type": "function",
      "constant": true
    },
    {
      "inputs": [
        {
          "components": [
            {
              "internalType": "address",
              "name": "exchange",
              "type": "address"
            },
            {
              "internalType": "address",
              "name": "maker",
              "type": "address"
            },
            {
              "internalType": "address",
              "name": "taker",
              "type": "address"
            },
            {
              "internalType": "uint256",
              "name": "makerRelayerFee",
              "type": "uint256"
            },
            {
              "internalType": "uint256",
              "name": "takerRelayerFee",
              "type": "uint256"
            },
            {
              "internalType": "uint256",
              "name": "makerProtocolFee",
              "type": "uint256"
            },
            {
              "internalType": "uint256",
              "name": "takerProtocolFee",
              "type": "uint256"
            },
            {
              "internalType": "address",
              "name": "feeRecipient",
              "type": "address"
            },
            {
              "internalType": "enum DataType.FeeMethod",
              "name": "feeMethod",
              "type": "uint8"
            },
            {
              "internalType": "enum SaleKindInterface.Side",
              "name": "side",
              "type": "uint8"
            },
            {
              "internalType": "enum SaleKindInterface.SaleKind",
              "name": "saleKind",
              "type": "uint8"
            },
            {
              "internalType": "address",
              "name": "target",
              "type": "address"
            },
            {
              "internalType": "enum DataType.HowToCall",
              "name": "howToCall",
              "type": "uint8"
            },
            {
              "internalType": "bytes",
              "name": "dataToCall",
              "type": "bytes"
            },
            {
              "internalType": "bytes",
              "name": "replacementPattern",
              "type": "bytes"
            },
            {
              "internalType": "address",
              "name": "staticTarget",
              "type": "address"
            },
            {
              "internalType": "bytes",
              "name": "staticExtradata",
              "type": "bytes"
            },
            {
              "internalType": "address",
              "name": "paymentToken",
              "type": "address"
            },
            {
              "internalType": "uint256",
              "name": "basePrice",
              "type": "uint256"
            },
            {
              "internalType": "uint256",
              "name": "extra",
              "type": "uint256"
            },
            {
              "internalType": "uint256",
              "name": "listingTime",
              "type": "uint256"
            },
            {
              "internalType": "uint256",
              "name": "expirationTime",
              "type": "uint256"
            },
            {
              "internalType": "uint256",
              "name": "salt",
              "type": "uint256"
            }
          ],
          "internalType": "struct DataType.Order",
          "name": "order",
          "type": "tuple"
        }
      ],
      "name": "validateOrderParameters",
      "outputs": [
        {
          "internalType": "bool",
          "name": "",
          "type": "bool"
        }
      ],
      "stateMutability": "view",
      "type": "function",
      "constant": true
    },
    {
      "inputs": [
        {
          "components": [
            {
              "internalType": "address",
              "name": "exchange",
              "type": "address"
            },
            {
              "internalType": "address",
              "name": "maker",
              "type": "address"
            },
            {
              "internalType": "address",
              "name": "taker",
              "type": "address"
            },
            {
              "internalType": "uint256",
              "name": "makerRelayerFee",
              "type": "uint256"
            },
            {
              "internalType": "uint256",
              "name": "takerRelayerFee",
              "type": "uint256"
            },
            {
              "internalType": "uint256",
              "name": "makerProtocolFee",
              "type": "uint256"
            },
            {
              "internalType": "uint256",
              "name": "takerProtocolFee",
              "type": "uint256"
            },
            {
              "internalType": "address",
              "name": "feeRecipient",
              "type": "address"
            },
            {
              "internalType": "enum DataType.FeeMethod",
              "name": "feeMethod",
              "type": "uint8"
            },
            {
              "internalType": "enum SaleKindInterface.Side",
              "name": "side",
              "type": "uint8"
            },
            {
              "internalType": "enum SaleKindInterface.SaleKind",
              "name": "saleKind",
              "type": "uint8"
            },
            {
              "internalType": "address",
              "name": "target",
              "type": "address"
            },
            {
              "internalType": "enum DataType.HowToCall",
              "name": "howToCall",
              "type": "uint8"
            },
            {
              "internalType": "bytes",
              "name": "dataToCall",
              "type": "bytes"
            },
            {
              "internalType": "bytes",
              "name": "replacementPattern",
              "type": "bytes"
            },
            {
              "internalType": "address",
              "name": "staticTarget",
              "type": "address"
            },
            {
              "internalType": "bytes",
              "name": "staticExtradata",
              "type": "bytes"
            },
            {
              "internalType": "address",
              "name": "paymentToken",
              "type": "address"
            },
            {
              "internalType": "uint256",
              "name": "basePrice",
              "type": "uint256"
            },
            {
              "internalType": "uint256",
              "name": "extra",
              "type": "uint256"
            },
            {
              "internalType": "uint256",
              "name": "listingTime",
              "type": "uint256"
            },
            {
              "internalType": "uint256",
              "name": "expirationTime",
              "type": "uint256"
            },
            {
              "internalType": "uint256",
              "name": "salt",
              "type": "uint256"
            }
          ],
          "internalType": "struct DataType.Order",
          "name": "order",
          "type": "tuple"
        },
        {
          "components": [
            {
              "internalType": "uint8",
              "name": "v",
              "type": "uint8"
            },
            {
              "internalType": "bytes32",
              "name": "r",
              "type": "bytes32"
            },
            {
              "internalType": "bytes32",
              "name": "s",
              "type": "bytes32"
            }
          ],
          "internalType": "struct DataType.Sig",
          "name": "sig",
          "type": "tuple"
        }
      ],
      "name": "validateOrder",
      "outputs": [
        {
          "internalType": "bool",
          "name": "",
          "type": "bool"
        }
      ],
      "stateMutability": "view",
      "type": "function",
      "constant": true
    },
    {
      "inputs": [
        {
          "components": [
            {
              "internalType": "address",
              "name": "exchange",
              "type": "address"
            },
            {
              "internalType": "address",
              "name": "maker",
              "type": "address"
            },
            {
              "internalType": "address",
              "name": "taker",
              "type": "address"
            },
            {
              "internalType": "uint256",
              "name": "makerRelayerFee",
              "type": "uint256"
            },
            {
              "internalType": "uint256",
              "name": "takerRelayerFee",
              "type": "uint256"
            },
            {
              "internalType": "uint256",
              "name": "makerProtocolFee",
              "type": "uint256"
            },
            {
              "internalType": "uint256",
              "name": "takerProtocolFee",
              "type": "uint256"
            },
            {
              "internalType": "address",
              "name": "feeRecipient",
              "type": "address"
            },
            {
              "internalType": "enum DataType.FeeMethod",
              "name": "feeMethod",
              "type": "uint8"
            },
            {
              "internalType": "enum SaleKindInterface.Side",
              "name": "side",
              "type": "uint8"
            },
            {
              "internalType": "enum SaleKindInterface.SaleKind",
              "name": "saleKind",
              "type": "uint8"
            },
            {
              "internalType": "address",
              "name": "target",
              "type": "address"
            },
            {
              "internalType": "enum DataType.HowToCall",
              "name": "howToCall",
              "type": "uint8"
            },
            {
              "internalType": "bytes",
              "name": "dataToCall",
              "type": "bytes"
            },
            {
              "internalType": "bytes",
              "name": "replacementPattern",
              "type": "bytes"
            },
            {
              "internalType": "address",
              "name": "staticTarget",
              "type": "address"
            },
            {
              "internalType": "bytes",
              "name": "staticExtradata",
              "type": "bytes"
            },
            {
              "internalType": "address",
              "name": "paymentToken",
              "type": "address"
            },
            {
              "internalType": "uint256",
              "name": "basePrice",
              "type": "uint256"
            },
            {
              "internalType": "uint256",
              "name": "extra",
              "type": "uint256"
            },
            {
              "internalType": "uint256",
              "name": "listingTime",
              "type": "uint256"
            },
            {
              "internalType": "uint256",
              "name": "expirationTime",
              "type": "uint256"
            },
            {
              "internalType": "uint256",
              "name": "salt",
              "type": "uint256"
            }
          ],
          "internalType": "struct DataType.Order",
          "name": "order",
          "type": "tuple"
        },
        {
          "internalType": "bool",
          "name": "orderbookInclusionDesired",
          "type": "bool"
        }
      ],
      "name": "approveOrder",
      "outputs": [],
      "stateMutability": "nonpayable",
      "type": "function"
    },
    {
      "inputs": [
        {
          "components": [
            {
              "internalType": "address",
              "name": "exchange",
              "type": "address"
            },
            {
              "internalType": "address",
              "name": "maker",
              "type": "address"
            },
            {
              "internalType": "address",
              "name": "taker",
              "type": "address"
            },
            {
              "internalType": "uint256",
              "name": "makerRelayerFee",
              "type": "uint256"
            },
            {
              "internalType": "uint256",
              "name": "takerRelayerFee",
              "type": "uint256"
            },
            {
              "internalType": "uint256",
              "name": "makerProtocolFee",
              "type": "uint256"
            },
            {
              "internalType": "uint256",
              "name": "takerProtocolFee",
              "type": "uint256"
            },
            {
              "internalType": "address",
              "name": "feeRecipient",
              "type": "address"
            },
            {
              "internalType": "enum DataType.FeeMethod",
              "name": "feeMethod",
              "type": "uint8"
            },
            {
              "internalType": "enum SaleKindInterface.Side",
              "name": "side",
              "type": "uint8"
            },
            {
              "internalType": "enum SaleKindInterface.SaleKind",
              "name": "saleKind",
              "type": "uint8"
            },
            {
              "internalType": "address",
              "name": "target",
              "type": "address"
            },
            {
              "internalType": "enum DataType.HowToCall",
              "name": "howToCall",
              "type": "uint8"
            },
            {
              "internalType": "bytes",
              "name": "dataToCall",
              "type": "bytes"
            },
            {
              "internalType": "bytes",
              "name": "replacementPattern",
              "type": "bytes"
            },
            {
              "internalType": "address",
              "name": "staticTarget",
              "type": "address"
            },
            {
              "internalType": "bytes",
              "name": "staticExtradata",
              "type": "bytes"
            },
            {
              "internalType": "address",
              "name": "paymentToken",
              "type": "address"
            },
            {
              "internalType": "uint256",
              "name": "basePrice",
              "type": "uint256"
            },
            {
              "internalType": "uint256",
              "name": "extra",
              "type": "uint256"
            },
            {
              "internalType": "uint256",
              "name": "listingTime",
              "type": "uint256"
            },
            {
              "internalType": "uint256",
              "name": "expirationTime",
              "type": "uint256"
            },
            {
              "internalType": "uint256",
              "name": "salt",
              "type": "uint256"
            }
          ],
          "internalType": "struct DataType.Order",
          "name": "order",
          "type": "tuple"
        },
        {
          "components": [
            {
              "internalType": "uint8",
              "name": "v",
              "type": "uint8"
            },
            {
              "internalType": "bytes32",
              "name": "r",
              "type": "bytes32"
            },
            {
              "internalType": "bytes32",
              "name": "s",
              "type": "bytes32"
            }
          ],
          "internalType": "struct DataType.Sig",
          "name": "sig",
          "type": "tuple"
        }
      ],
      "name": "cancelOrder",
      "outputs": [],
      "stateMutability": "nonpayable",
      "type": "function"
    },
    {
      "inputs": [
        {
          "components": [
            {
              "internalType": "address",
              "name": "exchange",
              "type": "address"
            },
            {
              "internalType": "address",
              "name": "maker",
              "type": "address"
            },
            {
              "internalType": "address",
              "name": "taker",
              "type": "address"
            },
            {
              "internalType": "uint256",
              "name": "makerRelayerFee",
              "type": "uint256"
            },
            {
              "internalType": "uint256",
              "name": "takerRelayerFee",
              "type": "uint256"
            },
            {
              "internalType": "uint256",
              "name": "makerProtocolFee",
              "type": "uint256"
            },
            {
              "internalType": "uint256",
              "name": "takerProtocolFee",
              "type": "uint256"
            },
            {
              "internalType": "address",
              "name": "feeRecipient",
              "type": "address"
            },
            {
              "internalType": "enum DataType.FeeMethod",
              "name": "feeMethod",
              "type": "uint8"
            },
            {
              "internalType": "enum SaleKindInterface.Side",
              "name": "side",
              "type": "uint8"
            },
            {
              "internalType": "enum SaleKindInterface.SaleKind",
              "name": "saleKind",
              "type": "uint8"
            },
            {
              "internalType": "address",
              "name": "target",
              "type": "address"
            },
            {
              "internalType": "enum DataType.HowToCall",
              "name": "howToCall",
              "type": "uint8"
            },
            {
              "internalType": "bytes",
              "name": "dataToCall",
              "type": "bytes"
            },
            {
              "internalType": "bytes",
              "name": "replacementPattern",
              "type": "bytes"
            },
            {
              "internalType": "address",
              "name": "staticTarget",
              "type": "address"
            },
            {
              "internalType": "bytes",
              "name": "staticExtradata",
              "type": "bytes"
            },
            {
              "internalType": "address",
              "name": "paymentToken",
              "type": "address"
            },
            {
              "internalType": "uint256",
              "name": "basePrice",
              "type": "uint256"
            },
            {
              "internalType": "uint256",
              "name": "extra",
              "type": "uint256"
            },
            {
              "internalType": "uint256",
              "name": "listingTime",
              "type": "uint256"
            },
            {
              "internalType": "uint256",
              "name": "expirationTime",
              "type": "uint256"
            },
            {
              "internalType": "uint256",
              "name": "salt",
              "type": "uint256"
            }
          ],
          "internalType": "struct DataType.Order",
          "name": "order",
          "type": "tuple"
        }
      ],
      "name": "calculateCurrentPrice",
      "outputs": [
        {
          "internalType": "uint256",
          "name": "",
          "type": "uint256"
        }
      ],
      "stateMutability": "view",
      "type": "function",
      "constant": true
    },
    {
      "inputs": [
        {
          "components": [
            {
              "internalType": "address",
              "name": "exchange",
              "type": "address"
            },
            {
              "internalType": "address",
              "name": "maker",
              "type": "address"
            },
            {
              "internalType": "address",
              "name": "taker",
              "type": "address"
            },
            {
              "internalType": "uint256",
              "name": "makerRelayerFee",
              "type": "uint256"
            },
            {
              "internalType": "uint256",
              "name": "takerRelayerFee",
              "type": "uint256"
            },
            {
              "internalType": "uint256",
              "name": "makerProtocolFee",
              "type": "uint256"
            },
            {
              "internalType": "uint256",
              "name": "takerProtocolFee",
              "type": "uint256"
            },
            {
              "internalType": "address",
              "name": "feeRecipient",
              "type": "address"
            },
            {
              "internalType": "enum DataType.FeeMethod",
              "name": "feeMethod",
              "type": "uint8"
            },
            {
              "internalType": "enum SaleKindInterface.Side",
              "name": "side",
              "type": "uint8"
            },
            {
              "internalType": "enum SaleKindInterface.SaleKind",
              "name": "saleKind",
              "type": "uint8"
            },
            {
              "internalType": "address",
              "name": "target",
              "type": "address"
            },
            {
              "internalType": "enum DataType.HowToCall",
              "name": "howToCall",
              "type": "uint8"
            },
            {
              "internalType": "bytes",
              "name": "dataToCall",
              "type": "bytes"
            },
            {
              "internalType": "bytes",
              "name": "replacementPattern",
              "type": "bytes"
            },
            {
              "internalType": "address",
              "name": "staticTarget",
              "type": "address"
            },
            {
              "internalType": "bytes",
              "name": "staticExtradata",
              "type": "bytes"
            },
            {
              "internalType": "address",
              "name": "paymentToken",
              "type": "address"
            },
            {
              "internalType": "uint256",
              "name": "basePrice",
              "type": "uint256"
            },
            {
              "internalType": "uint256",
              "name": "extra",
              "type": "uint256"
            },
            {
              "internalType": "uint256",
              "name": "listingTime",
              "type": "uint256"
            },
            {
              "internalType": "uint256",
              "name": "expirationTime",
              "type": "uint256"
            },
            {
              "internalType": "uint256",
              "name": "salt",
              "type": "uint256"
            }
          ],
          "internalType": "struct DataType.Order",
          "name": "buy",
          "type": "tuple"
        },
        {
          "components": [
            {
              "internalType": "address",
              "name": "exchange",
              "type": "address"
            },
            {
              "internalType": "address",
              "name": "maker",
              "type": "address"
            },
            {
              "internalType": "address",
              "name": "taker",
              "type": "address"
            },
            {
              "internalType": "uint256",
              "name": "makerRelayerFee",
              "type": "uint256"
            },
            {
              "internalType": "uint256",
              "name": "takerRelayerFee",
              "type": "uint256"
            },
            {
              "internalType": "uint256",
              "name": "makerProtocolFee",
              "type": "uint256"
            },
            {
              "internalType": "uint256",
              "name": "takerProtocolFee",
              "type": "uint256"
            },
            {
              "internalType": "address",
              "name": "feeRecipient",
              "type": "address"
            },
            {
              "internalType": "enum DataType.FeeMethod",
              "name": "feeMethod",
              "type": "uint8"
            },
            {
              "internalType": "enum SaleKindInterface.Side",
              "name": "side",
              "type": "uint8"
            },
            {
              "internalType": "enum SaleKindInterface.SaleKind",
              "name": "saleKind",
              "type": "uint8"
            },
            {
              "internalType": "address",
              "name": "target",
              "type": "address"
            },
            {
              "internalType": "enum DataType.HowToCall",
              "name": "howToCall",
              "type": "uint8"
            },
            {
              "internalType": "bytes",
              "name": "dataToCall",
              "type": "bytes"
            },
            {
              "internalType": "bytes",
              "name": "replacementPattern",
              "type": "bytes"
            },
            {
              "internalType": "address",
              "name": "staticTarget",
              "type": "address"
            },
            {
              "internalType": "bytes",
              "name": "staticExtradata",
              "type": "bytes"
            },
            {
              "internalType": "address",
              "name": "paymentToken",
              "type": "address"
            },
            {
              "internalType": "uint256",
              "name": "basePrice",
              "type": "uint256"
            },
            {
              "internalType": "uint256",
              "name": "extra",
              "type": "uint256"
            },
            {
              "internalType": "uint256",
              "name": "listingTime",
              "type": "uint256"
            },
            {
              "internalType": "uint256",
              "name": "expirationTime",
              "type": "uint256"
            },
            {
              "internalType": "uint256",
              "name": "salt",
              "type": "uint256"
            }
          ],
          "internalType": "struct DataType.Order",
          "name": "sell",
          "type": "tuple"
        }
      ],
      "name": "ordersCanMatch",
      "outputs": [
        {
          "internalType": "bool",
          "name": "",
          "type": "bool"
        }
      ],
      "stateMutability": "view",
      "type": "function",
      "constant": true
    },
    {
      "inputs": [
        {
          "internalType": "bytes",
          "name": "buyCalldata",
          "type": "bytes"
        },
        {
          "internalType": "bytes",
          "name": "buyReplacementPattern",
          "type": "bytes"
        },
        {
          "internalType": "bytes",
          "name": "sellCalldata",
          "type": "bytes"
        },
        {
          "internalType": "bytes",
          "name": "sellReplacementPattern",
          "type": "bytes"
        }
      ],
      "name": "orderCalldataCanMatch",
      "outputs": [
        {
          "internalType": "bool",
          "name": "",
          "type": "bool"
        }
      ],
      "stateMutability": "pure",
      "type": "function",
      "constant": true
    },
    {
      "inputs": [
        {
          "components": [
            {
              "internalType": "address",
              "name": "exchange",
              "type": "address"
            },
            {
              "internalType": "address",
              "name": "maker",
              "type": "address"
            },
            {
              "internalType": "address",
              "name": "taker",
              "type": "address"
            },
            {
              "internalType": "uint256",
              "name": "makerRelayerFee",
              "type": "uint256"
            },
            {
              "internalType": "uint256",
              "name": "takerRelayerFee",
              "type": "uint256"
            },
            {
              "internalType": "uint256",
              "name": "makerProtocolFee",
              "type": "uint256"
            },
            {
              "internalType": "uint256",
              "name": "takerProtocolFee",
              "type": "uint256"
            },
            {
              "internalType": "address",
              "name": "feeRecipient",
              "type": "address"
            },
            {
              "internalType": "enum DataType.FeeMethod",
              "name": "feeMethod",
              "type": "uint8"
            },
            {
              "internalType": "enum SaleKindInterface.Side",
              "name": "side",
              "type": "uint8"
            },
            {
              "internalType": "enum SaleKindInterface.SaleKind",
              "name": "saleKind",
              "type": "uint8"
            },
            {
              "internalType": "address",
              "name": "target",
              "type": "address"
            },
            {
              "internalType": "enum DataType.HowToCall",
              "name": "howToCall",
              "type": "uint8"
            },
            {
              "internalType": "bytes",
              "name": "dataToCall",
              "type": "bytes"
            },
            {
              "internalType": "bytes",
              "name": "replacementPattern",
              "type": "bytes"
            },
            {
              "internalType": "address",
              "name": "staticTarget",
              "type": "address"
            },
            {
              "internalType": "bytes",
              "name": "staticExtradata",
              "type": "bytes"
            },
            {
              "internalType": "address",
              "name": "paymentToken",
              "type": "address"
            },
            {
              "internalType": "uint256",
              "name": "basePrice",
              "type": "uint256"
            },
            {
              "internalType": "uint256",
              "name": "extra",
              "type": "uint256"
            },
            {
              "internalType": "uint256",
              "name": "listingTime",
              "type": "uint256"
            },
            {
              "internalType": "uint256",
              "name": "expirationTime",
              "type": "uint256"
            },
            {
              "internalType": "uint256",
              "name": "salt",
              "type": "uint256"
            }
          ],
          "internalType": "struct DataType.Order",
          "name": "buy",
          "type": "tuple"
        },
        {
          "components": [
            {
              "internalType": "address",
              "name": "exchange",
              "type": "address"
            },
            {
              "internalType": "address",
              "name": "maker",
              "type": "address"
            },
            {
              "internalType": "address",
              "name": "taker",
              "type": "address"
            },
            {
              "internalType": "uint256",
              "name": "makerRelayerFee",
              "type": "uint256"
            },
            {
              "internalType": "uint256",
              "name": "takerRelayerFee",
              "type": "uint256"
            },
            {
              "internalType": "uint256",
              "name": "makerProtocolFee",
              "type": "uint256"
            },
            {
              "internalType": "uint256",
              "name": "takerProtocolFee",
              "type": "uint256"
            },
            {
              "internalType": "address",
              "name": "feeRecipient",
              "type": "address"
            },
            {
              "internalType": "enum DataType.FeeMethod",
              "name": "feeMethod",
              "type": "uint8"
            },
            {
              "internalType": "enum SaleKindInterface.Side",
              "name": "side",
              "type": "uint8"
            },
            {
              "internalType": "enum SaleKindInterface.SaleKind",
              "name": "saleKind",
              "type": "uint8"
            },
            {
              "internalType": "address",
              "name": "target",
              "type": "address"
            },
            {
              "internalType": "enum DataType.HowToCall",
              "name": "howToCall",
              "type": "uint8"
            },
            {
              "internalType": "bytes",
              "name": "dataToCall",
              "type": "bytes"
            },
            {
              "internalType": "bytes",
              "name": "replacementPattern",
              "type": "bytes"
            },
            {
              "internalType": "address",
              "name": "staticTarget",
              "type": "address"
            },
            {
              "internalType": "bytes",
              "name": "staticExtradata",
              "type": "bytes"
            },
            {
              "internalType": "address",
              "name": "paymentToken",
              "type": "address"
            },
            {
              "internalType": "uint256",
              "name": "basePrice",
              "type": "uint256"
            },
            {
              "internalType": "uint256",
              "name": "extra",
              "type": "uint256"
            },
            {
              "internalType": "uint256",
              "name": "listingTime",
              "type": "uint256"
            },
            {
              "internalType": "uint256",
              "name": "expirationTime",
              "type": "uint256"
            },
            {
              "internalType": "uint256",
              "name": "salt",
              "type": "uint256"
            }
          ],
          "internalType": "struct DataType.Order",
          "name": "sell",
          "type": "tuple"
        }
      ],
      "name": "calculateMatchPrice",
      "outputs": [
        {
          "internalType": "uint256",
          "name": "",
          "type": "uint256"
        }
      ],
      "stateMutability": "view",
      "type": "function",
      "constant": true
    }
  ],
  "bytecode": "0x608060405234801561001057600080fd5b50604051611b20380380611b2083398101604081905261002f91610054565b60008054600160a060020a031916600160a060020a0392909216919091179055610082565b600060208284031215610065578081fd5b8151600160a060020a038116811461007b578182fd5b9392505050565b611a8f806100916000396000f3fe608060405234801561001057600080fd5b50600436106100ee5760003560e060020a9004806363d36c0b1161009057806384a344b11161006a57806384a344b11461020c578063dba8a5fd14610237578063e9147ade1461024a578063fd902d061461025d57600080fd5b806363d36c0b146101d15780637771bc5f146101e4578063782428e6146101f757600080fd5b80634222fd1a116100cc5780634222fd1a1461015c57806354fd4d501461016f578063562b2ebc146101ab5780635fda3f22146101be57600080fd5b80630a992d54146100f3578063107a9e1f14610119578063239e83df1461013c575b600080fd5b6101066101013660046114d8565b610270565b6040519081526020015b60405180910390f35b61012c6101273660046114d8565b610281565b6040519015158152602001610110565b61014f61014a366004611354565b61039a565b60405161011091906118e3565b61010661016a36600461155b565b6103b1565b61014f6040518060400160405280600381526020017f312e30000000000000000000000000000000000000000000000000000000000081525081565b61012c6101b93660046113d8565b6103bd565b61012c6101cc36600461155b565b6103f9565b6101066101df366004611480565b610405565b6101066101f23660046114d8565b610422565b61020a61020536600461150b565b61042d565b005b60005461021f90600160a060020a031681565b604051600160a060020a039091168152602001610110565b61012c6102453660046115bc565b6104ae565b6101066102583660046114d8565b61053c565b61020a61026b3660046115bc565b610547565b600061027b82610592565b92915050565b600061027b8260008054906101000a9004600160a060020a0316600160a060020a0316637ccefc526040518163ffffffff1660e060020a02815260040160206040518083038186803b1580156102d657600080fd5b505afa1580156102ea573d6000803e3d6000fd5b505050506040513d601f19601f8201168201806040525081019061030e919061165c565b60008054906101000a9004600160a060020a0316600160a060020a03166328a8ee686040518163ffffffff1660e060020a02815260040160206040518083038186803b15801561035d57600080fd5b505afa158015610371573d6000803e3d6000fd5b505050506040513d601f19601f82011682018060405250810190610395919061165c565b6105c0565b60606103a784848461065a565b50825b9392505050565b60006103aa838361087b565b8251600090156103d2576103d285848661065a565b8151156103e4576103e483868461065a565b6103ee858461096d565b90505b949350505050565b60006103aa83836109d1565b6000610415878787878787610c35565b90505b9695505050505050565b600061027b82610d03565b6000546040517f782428e6000000000000000000000000000000000000000000000000000000008152600160a060020a039091169063782428e69061047890859085906004016118f6565b600060405180830381600087803b15801561049257600080fd5b505af11580156104a6573d6000803e3d6000fd5b505050505050565b60008054600160a060020a0316630990a6f76104c985610f44565b85856040518463ffffffff1660e060020a0281526004016104ec939291906118a4565b60206040518083038186803b15801561050457600080fd5b505afa158015610518573d6000803e3d6000fd5b505050506040513d601f19601f820116820180604052508101906103aa9190611338565b600061027b82610f44565b6000546040517ffd902d06000000000000000000000000000000000000000000000000000000008152600160a060020a039091169063fd902d0690610478908590859060040161191a565b600061027b826101200151836101400151846102400151856102600151866102800151876102a00151610c35565b8251600090600160a060020a031630146105dc575060006103aa565b6105f0846101400151856102a00151610fa0565b6105fc575060006103aa565b600184610100015160018111156106265760e060020a634e487b7102600052602160045260246000fd5b1480156106435750828460a0015110806106435750818460c00151105b15610650575060006103aa565b5060019392505050565b815183511461066857600080fd5b805183511461067657600080fd5b6000602084516106869190611995565b905060006106958260206119b8565b9050816106a3602083611995565b146106c15760e060020a634e487b7102600052600160045260246000fd5b60005b828110156106fe578060010160200280850151818701518116828901518219161782890152505080806106f6906119ee565b9150506106c4565b821561072b57829050806001016020028085015181870151811682890151821916178289015250506104a6565b50805b85518110156104a65784818151811061075a5760e060020a634e487b7102600052603260045260246000fd5b602001015160f860020a900460f860020a0284828151811061078f5760e060020a634e487b7102600052603260045260246000fd5b602001015160f860020a900460f860020a02168682815181106107c55760e060020a634e487b7102600052603260045260246000fd5b602001015160f860020a900460f860020a028583815181106107fa5760e060020a634e487b7102600052603260045260246000fd5b602001015160f860020a900460f860020a0260ff60f860020a0218161786828151811061083a5760e060020a634e487b7102600052603260045260246000fd5b60200101907effffffffffffffffffffffffffffffffffffffffffffffffffffffffffffff1916908160001a90535080610873816119ee565b91505061072e565b6000806108aa836101200151846101400151856102400151866102600151876102800151886102a00151610c35565b905060006108da8561012001518661014001518761024001518861026001518961028001518a6102a00151610c35565b90508181101561094a576040517f08c379a000000000000000000000000000000000000000000000000000000000815260206004820152601460248201527f2162757950726963653e3d73656c6c5072696365000000000000000000000000604482015260640160405180910390fd5b60e0840151600160a060020a03166109625780610964565b815b95945050505050565b81518151600091600191811480831461098957600092506109c7565b600160208701838101602088015b6002848385100114156109c25780518351146109b65760009650600093505b60209283019201610997565b505050505b5090949350505050565b60008083610120015160018111156109fc5760e060020a634e487b7102600052602160045260246000fd5b148015610a30575060018261012001516001811115610a2e5760e060020a634e487b7102600052602160045260246000fd5b145b8015610a8957508161010001516001811115610a5f5760e060020a634e487b7102600052602160045260246000fd5b8361010001516001811115610a875760e060020a634e487b7102600052602160045260246000fd5b145b8015610ab05750816102200151600160a060020a0316836102200151600160a060020a0316145b8015610aea57506040820151600160a060020a03161580610aea57508260200151600160a060020a03168260400151600160a060020a0316145b8015610b2457506040830151600160a060020a03161580610b2457508160200151600160a060020a03168360400151600160a060020a0316145b8015610b7f575060e0820151600160a060020a0316158015610b52575060e0830151600160a060020a031615155b80610b7f575060e0820151600160a060020a031615801590610b7f575060e0830151600160a060020a0316155b8015610ba65750816101600151600160a060020a0316836101600151600160a060020a0316145b8015610bff57508161018001516001811115610bd55760e060020a634e487b7102600052602160045260246000fd5b8361018001516001811115610bfd5760e060020a634e487b7102600052602160045260246000fd5b145b8015610c1a5750610c1a836102800151846102a00151610fd5565b80156103aa57506103aa826102800151836102a00151610fd5565b600080866001811115610c5b5760e060020a634e487b7102600052602160045260246000fd5b1415610c68575083610418565b6001866001811115610c8d5760e060020a634e487b7102600052602160045260246000fd5b1415610418576000610cba610cab86610ca64288610ff1565b610ffd565b610cb58587610ff1565b611009565b90506001886001811115610ce15760e060020a634e487b7102600052602160045260246000fd5b1415610cf957610cf18682610ff1565b915050610418565b610cf18682611015565b600080610d0f83611021565b905060008167ffffffffffffffff811115610d3d5760e060020a634e487b7102600052604160045260246000fd5b6040519080825280601f01601f191660200182016040528015610d67576020820181803683370190505b5084519091506020820190610d7d908290611059565b9050610d8d818660200151611059565b9050610d9d818660400151611059565b6060868101518252608080880151602084015260a0880151604084015260c08801519183019190915260e087015191019150610dda908290611059565b9050610e0d818661010001516001811115610e085760e060020a634e487b7102600052602160045260246000fd5b611079565b9050610e3b818661012001516001811115610e085760e060020a634e487b7102600052602160045260246000fd5b9050610e69818661014001516001811115610e085760e060020a634e487b7102600052602160045260246000fd5b9050610e7a81866101600151611059565b9050610ea8818661018001516001811115610e085760e060020a634e487b7102600052602160045260246000fd5b9050610eb981866101a00151611086565b9050610eca81866101c00151611086565b9050610edb81866101e00151611059565b9050610eec81866102000151611086565b9050610efd81866102200151611059565b610240860151815261026086015160208083019190915261028087015160408301526102a087015160608301526102c0909601516080909101525090920191909120919050565b6000610f4f82610d03565b6040517f19457468657265756d205369676e6564204d6573736167653a0a3332000000006020820152603c810191909152605c01604051602081830303815290604052805190602001209050919050565b600080836001811115610fc65760e060020a634e487b7102600052602160045260246000fd5b14806103aa5750501515919050565b600042831080156103aa57508115806103aa5750504210919050565b60006103aa82846119d7565b60006103aa82846119b8565b60006103aa8284611995565b60006103aa828461197d565b600081610200015151826101c0015151836101a00151516101b0611045919061197d565b61104f919061197d565b61027b919061197d565b600160a060020a03166c0100000000000000000000000002815260140190565b6000818353505060010190565b8051600090156110c257815180602001830160208401855b600183831014156110b957815181526020918201910161109e565b50505092909201915b5090919050565b8035600160a060020a03811681146110e057600080fd5b919050565b600082601f8301126110f5578081fd5b813567ffffffffffffffff8082111561111057611110611a22565b604051601f8301601f19908116603f0116810190828211818310171561113857611138611a22565b81604052838152866020858801011115611150578485fd5b8360208701602083013792830160200193909352509392505050565b80356110e081611a4c565b60006102e08284031215611189578081fd5b611191611953565b905061119c826110c9565b81526111aa602083016110c9565b60208201526111bb604083016110c9565b6040820152606082013560608201526080820135608082015260a082013560a082015260c082013560c08201526111f460e083016110c9565b60e082015261010061120781840161116c565b9082015261012061121983820161116c565b9082015261014061122b83820161116c565b9082015261016061123d8382016110c9565b9082015261018061124f83820161116c565b908201526101a08281013567ffffffffffffffff8082111561127057600080fd5b61127c868387016110e5565b838501526101c092508285013591508082111561129857600080fd5b6112a4868387016110e5565b838501526101e092506112b88386016110c9565b838501526102009250828501359150808211156112d457600080fd5b506112e1858286016110e5565b8284015250506102206112f58184016110c9565b908201526102408281013590820152610260808301359082015261028080830135908201526102a080830135908201526102c09182013591810191909152919050565b600060208284031215611349578081fd5b81516103aa81611a3b565b600080600060608486031215611368578182fd5b833567ffffffffffffffff8082111561137f578384fd5b61138b878388016110e5565b945060208601359150808211156113a0578384fd5b6113ac878388016110e5565b935060408601359150808211156113c1578283fd5b506113ce868287016110e5565b9150509250925092565b600080600080608085870312156113ed578081fd5b843567ffffffffffffffff80821115611404578283fd5b611410888389016110e5565b95506020870135915080821115611425578283fd5b611431888389016110e5565b94506040870135915080821115611446578283fd5b611452888389016110e5565b93506060870135915080821115611467578283fd5b50611474878288016110e5565b91505092959194509250565b60008060008060008060c08789031215611498578182fd5b86356114a381611a4c565b955060208701356114b381611a4c565b95989597505050506040840135936060810135936080820135935060a0909101359150565b6000602082840312156114e9578081fd5b813567ffffffffffffffff8111156114ff578182fd5b6103f184828501611177565b6000806040838503121561151d578182fd5b823567ffffffffffffffff811115611533578283fd5b61153f85828601611177565b925050602083013561155081611a3b565b809150509250929050565b6000806040838503121561156d578182fd5b823567ffffffffffffffff80821115611584578384fd5b61159086838701611177565b935060208501359150808211156115a5578283fd5b506115b285828601611177565b9150509250929050565b60008082840360808112156115cf578283fd5b833567ffffffffffffffff808211156115e6578485fd5b6115f287838801611177565b94506060601f1984011215611605578384fd5b6040519250606083019150828210818311171561162457611624611a22565b50604052602084013560ff8116811461163b578283fd5b81526040848101356020830152606090940135938101939093525092909150565b60006020828403121561166d578081fd5b5051919050565b60008151808452815b818110156116995760208185018101518683018201520161167d565b818111156116aa5782602083870101525b50601f01601f19169290920160200192915050565b600281106116e05760e060020a634e487b7102600052602160045260246000fd5b9052565b8051600160a060020a0316825260006102e060208301516117106020860182600160a060020a03169052565b50604083015161172b6040860182600160a060020a03169052565b50606083015160608501526080830151608085015260a083015160a085015260c083015160c085015260e083015161176e60e0860182600160a060020a03169052565b5061010080840151611782828701826116bf565b505061012080840151611797828701826116bf565b5050610140808401516117ac828701826116bf565b505061016083810151600160a060020a031690850152610180808401516117d5828701826116bf565b50506101a08084015182828701526117ef83870182611674565b925050506101c0808401518583038287015261180b8382611674565b925050506101e08084015161182a82870182600160a060020a03169052565b505061020080840151858303828701526118448382611674565b925050506102208084015161186382870182600160a060020a03169052565b50506102408381015190850152610260808401519085015261028080840151908501526102a080840151908501526102c09283015192909301919091525090565b83815260a0602082015260006118bd60a08301856116e4565b90506103f16040830184805160ff16825260208082015190830152604090810151910152565b6020815260006103aa6020830184611674565b60408152600061190960408301856116e4565b905082151560208301529392505050565b60808152600061192d60808301856116e4565b90506103aa6020830184805160ff16825260208082015190830152604090810151910152565b6040516102e0810167ffffffffffffffff8111828210171561197757611977611a22565b60405290565b6000821982111561199057611990611a09565b500190565b6000826119b35760e060020a634e487b710281526012600452602481fd5b500490565b60008160001904831182151516156119d2576119d2611a09565b500290565b6000828210156119e9576119e9611a09565b500390565b6000600019821415611a0257611a02611a09565b5060010190565b60e060020a634e487b7102600052601160045260246000fd5b60e060020a634e487b7102600052604160045260246000fd5b8015158114611a4957600080fd5b50565b60028110611a4957600080fdfea26469706673582212203ef5e21ac70319d9027f1ac6d5591b3f44e2422ae9766f8701a9cdffb2491a3c64736f6c63430008040033",
  "immutableReferences": {},
  "source": "// SPDX-License-Identifier: MIT\npragma solidity ^0.8.0;\n\nimport {ERC20} from '../dependencies/openzeppelin/contracts/token/ERC20/ERC20.sol';\nimport {ArrayUtils} from './libraries/ArrayUtils.sol';\nimport {ExchangeCore} from './ExchangeCore.sol';\nimport {SaleKindInterface} from './libraries/SaleKindInterface.sol';\nimport {DataType} from './libraries/DataType.sol';\nimport {ExchangeCoreLogic} from './libraries/ExchangeCoreLogic.sol';\n\n\ncontract ExchangeHelper {\n\n    string public constant version = \"1.0\";\n   \n    ExchangeCore public exchangeCore;\n\n    constructor(ExchangeCore core) {\n        exchangeCore = core;\n    }\n\n    /**\n     * @dev Call guardedArrayReplace - library function exposed for testing.\n     */\n    function guardedArrayReplace(bytes memory array, bytes memory desired, bytes memory mask)\n        public\n        pure\n        returns (bytes memory)\n    {\n        ArrayUtils.guardedArrayReplace(array, desired, mask);\n        return array;\n    }\n\n    /**\n     * @dev Call calculateFinalPrice - library function exposed for testing.\n     */\n    function calculateFinalPrice(SaleKindInterface.Side side, SaleKindInterface.SaleKind saleKind, uint basePrice, uint extra, uint listingTime, uint expirationTime)\n        public\n        view\n        returns (uint)\n    {\n        return SaleKindInterface.calculateFinalPrice(side, saleKind, basePrice, extra, listingTime, expirationTime);\n    }\n\n    /**\n     * @dev Call hashOrder - Solidity ABI encoding limitation workaround, hopefully temporary.\n     */\n    function hashOrder(DataType.Order memory order)\n        public\n        pure\n        returns (bytes32)\n    {\n        return ExchangeCoreLogic.hashOrder(order);\n    }\n\n    /**\n     * @dev Call hashToSign - Solidity ABI encoding limitation workaround, hopefully temporary.\n     */\n    function hashToSign(DataType.Order memory order)\n        public\n        pure\n        returns (bytes32)\n    { \n        return ExchangeCoreLogic.hashToSign(order);\n    }\n\n    /**\n     * @dev Call validateOrderParameters - Solidity ABI encoding limitation workaround, hopefully temporary.\n     */\n    function validateOrderParameters(DataType.Order memory order)\n        view\n        public\n        returns (bool)\n    {   \n        return ExchangeCoreLogic.validateOrderParameters(\n          order, exchangeCore.minimumMakerProtocolFee(), exchangeCore.minimumTakerProtocolFee()\n        );\n    }\n\n    /**\n     * @dev Call validateOrder - Solidity ABI encoding limitation workaround, hopefully temporary.\n     */\n    function validateOrder(DataType.Order memory order, DataType.Sig memory sig)\n        view\n        public\n        returns (bool)\n    {\n        return exchangeCore.validateOrder(ExchangeCoreLogic.hashToSign(order),order,sig);\n    }\n\n    /**\n     * @dev Call approveOrder - Solidity ABI encoding limitation workaround, hopefully temporary.\n     */\n    function approveOrder(DataType.Order memory order, bool orderbookInclusionDesired) \n        public\n    {\n        return exchangeCore.approveOrder(order, orderbookInclusionDesired);\n    }\n\n    /**\n     * @dev Call cancelOrder - Solidity ABI encoding limitation workaround, hopefully temporary.\n     */\n    function cancelOrder(DataType.Order memory order, DataType.Sig memory sig)\n        public\n    {\n        return exchangeCore.cancelOrder(order, sig);\n    }\n\n    /**\n     * @dev Call calculateCurrentPrice - Solidity ABI encoding limitation workaround, hopefully temporary.\n     */\n    function calculateCurrentPrice(DataType.Order memory order)\n        public\n        view\n        returns (uint)\n    {\n        return ExchangeCoreLogic.calculateCurrentPrice(order);\n    }\n\n    /**\n     * @dev Call ordersCanMatch - Solidity ABI encoding limitation workaround, hopefully temporary.\n     */\n    function ordersCanMatch(DataType.Order memory buy, DataType.Order memory sell)\n        public\n        view\n        returns (bool)\n    {\n        return ExchangeCoreLogic.ordersCanMatch(buy,sell);\n    }\n\n    /**\n     * @dev Return whether or not two orders' calldata specifications can match\n     * @param buyCalldata Buy-side order calldata\n     * @param buyReplacementPattern Buy-side order calldata replacement mask\n     * @param sellCalldata Sell-side order calldata\n     * @param sellReplacementPattern Sell-side order calldata replacement mask\n     * @return Whether the orders' calldata can be matched\n     */\n    function orderCalldataCanMatch(bytes memory buyCalldata, bytes memory buyReplacementPattern, bytes memory sellCalldata, bytes memory sellReplacementPattern)\n        public\n        pure\n        returns (bool)\n    {\n        if (buyReplacementPattern.length > 0) {\n          ArrayUtils.guardedArrayReplace(buyCalldata, sellCalldata, buyReplacementPattern);\n        }\n        if (sellReplacementPattern.length > 0) {\n          ArrayUtils.guardedArrayReplace(sellCalldata, buyCalldata, sellReplacementPattern);\n        }\n        return ArrayUtils.arrayEq(buyCalldata, sellCalldata);\n    }\n\n    /**\n     * @dev Call calculateMatchPrice - Solidity ABI encoding limitation workaround, hopefully temporary.\n     */\n    function calculateMatchPrice(DataType.Order memory buy, DataType.Order memory sell)\n        public\n        view\n        returns (uint)\n    {\n        return ExchangeCoreLogic.calculateMatchPrice(buy,sell);\n    }\n\n}",
  "sourcePath": "/Users/liyu/Mars/gitlab/element-contract/contracts/elementix/ExchangeHelper.sol",
  "compiler": {
    "name": "solc",
    "version": "0.8.4+commit.c7e474f2.Emscripten.clang"
  },
  "schemaVersion": "3.4.0",
  "updatedAt": "2021-05-01T09:06:12.473Z",
  "networkType": "ethereum",
  "devdoc": {
    "kind": "dev",
    "methods": {
      "approveOrder((address,address,address,uint256,uint256,uint256,uint256,address,uint8,uint8,uint8,address,uint8,bytes,bytes,address,bytes,address,uint256,uint256,uint256,uint256,uint256),bool)": {
        "details": "Call approveOrder - Solidity ABI encoding limitation workaround, hopefully temporary."
      },
      "calculateCurrentPrice((address,address,address,uint256,uint256,uint256,uint256,address,uint8,uint8,uint8,address,uint8,bytes,bytes,address,bytes,address,uint256,uint256,uint256,uint256,uint256))": {
        "details": "Call calculateCurrentPrice - Solidity ABI encoding limitation workaround, hopefully temporary."
      },
      "calculateFinalPrice(uint8,uint8,uint256,uint256,uint256,uint256)": {
        "details": "Call calculateFinalPrice - library function exposed for testing."
      },
      "calculateMatchPrice((address,address,address,uint256,uint256,uint256,uint256,address,uint8,uint8,uint8,address,uint8,bytes,bytes,address,bytes,address,uint256,uint256,uint256,uint256,uint256),(address,address,address,uint256,uint256,uint256,uint256,address,uint8,uint8,uint8,address,uint8,bytes,bytes,address,bytes,address,uint256,uint256,uint256,uint256,uint256))": {
        "details": "Call calculateMatchPrice - Solidity ABI encoding limitation workaround, hopefully temporary."
      },
      "cancelOrder((address,address,address,uint256,uint256,uint256,uint256,address,uint8,uint8,uint8,address,uint8,bytes,bytes,address,bytes,address,uint256,uint256,uint256,uint256,uint256),(uint8,bytes32,bytes32))": {
        "details": "Call cancelOrder - Solidity ABI encoding limitation workaround, hopefully temporary."
      },
      "guardedArrayReplace(bytes,bytes,bytes)": {
        "details": "Call guardedArrayReplace - library function exposed for testing."
      },
      "hashOrder((address,address,address,uint256,uint256,uint256,uint256,address,uint8,uint8,uint8,address,uint8,bytes,bytes,address,bytes,address,uint256,uint256,uint256,uint256,uint256))": {
        "details": "Call hashOrder - Solidity ABI encoding limitation workaround, hopefully temporary."
      },
      "hashToSign((address,address,address,uint256,uint256,uint256,uint256,address,uint8,uint8,uint8,address,uint8,bytes,bytes,address,bytes,address,uint256,uint256,uint256,uint256,uint256))": {
        "details": "Call hashToSign - Solidity ABI encoding limitation workaround, hopefully temporary."
      },
      "orderCalldataCanMatch(bytes,bytes,bytes,bytes)": {
        "details": "Return whether or not two orders' calldata specifications can match",
        "params": {
          "buyCalldata": "Buy-side order calldata",
          "buyReplacementPattern": "Buy-side order calldata replacement mask",
          "sellCalldata": "Sell-side order calldata",
          "sellReplacementPattern": "Sell-side order calldata replacement mask"
        },
        "returns": {
          "_0": "Whether the orders' calldata can be matched"
        }
      },
      "ordersCanMatch((address,address,address,uint256,uint256,uint256,uint256,address,uint8,uint8,uint8,address,uint8,bytes,bytes,address,bytes,address,uint256,uint256,uint256,uint256,uint256),(address,address,address,uint256,uint256,uint256,uint256,address,uint8,uint8,uint8,address,uint8,bytes,bytes,address,bytes,address,uint256,uint256,uint256,uint256,uint256))": {
        "details": "Call ordersCanMatch - Solidity ABI encoding limitation workaround, hopefully temporary."
      },
      "validateOrder((address,address,address,uint256,uint256,uint256,uint256,address,uint8,uint8,uint8,address,uint8,bytes,bytes,address,bytes,address,uint256,uint256,uint256,uint256,uint256),(uint8,bytes32,bytes32))": {
        "details": "Call validateOrder - Solidity ABI encoding limitation workaround, hopefully temporary."
      },
      "validateOrderParameters((address,address,address,uint256,uint256,uint256,uint256,address,uint8,uint8,uint8,address,uint8,bytes,bytes,address,bytes,address,uint256,uint256,uint256,uint256,uint256))": {
        "details": "Call validateOrderParameters - Solidity ABI encoding limitation workaround, hopefully temporary."
      }
    },
    "version": 1
  },
  "userdoc": {
    "kind": "user",
    "methods": {},
    "version": 1
  }
}