{
  "contractName": "MakeTokenID",
  "abi": [
    {
      "inputs": [],
      "name": "newID",
      "outputs": [
        {
          "internalType": "uint256",
          "name": "",
          "type": "uint256"
        }
      ],
      "stateMutability": "view",
      "type": "function",
      "constant": true
    },
    {
      "inputs": [
        {
          "internalType": "uint256",
          "name": "_id",
          "type": "uint256"
        }
      ],
      "name": "tokenMaxSupply",
      "outputs": [
        {
          "internalType": "uint256",
          "name": "",
          "type": "uint256"
        }
      ],
      "stateMutability": "pure",
      "type": "function",
      "constant": true
    },
    {
      "inputs": [
        {
          "internalType": "uint256",
          "name": "_id",
          "type": "uint256"
        }
      ],
      "name": "tokenIndex",
      "outputs": [
        {
          "internalType": "uint256",
          "name": "",
          "type": "uint256"
        }
      ],
      "stateMutability": "pure",
      "type": "function",
      "constant": true
    },
    {
      "inputs": [
        {
          "internalType": "uint256",
          "name": "_id",
          "type": "uint256"
        }
      ],
      "name": "tokenCreator",
      "outputs": [
        {
          "internalType": "address",
          "name": "",
          "type": "address"
        }
      ],
      "stateMutability": "pure",
      "type": "function",
      "constant": true
    },
    {
      "inputs": [
        {
          "internalType": "address",
          "name": "_creator",
          "type": "address"
        },
        {
          "internalType": "uint256",
          "name": "_index",
          "type": "uint256"
        },
        {
          "internalType": "uint256",
          "name": "_supply",
          "type": "uint256"
        }
      ],
      "name": "makeID",
      "outputs": [
        {
          "internalType": "uint256",
          "name": "",
          "type": "uint256"
        }
      ],
      "stateMutability": "nonpayable",
      "type": "function"
    },
    {
      "inputs": [
        {
          "internalType": "uint256",
          "name": "index",
          "type": "uint256"
        }
      ],
      "name": "indexShift",
      "outputs": [
        {
          "internalType": "uint256",
          "name": "",
          "type": "uint256"
        }
      ],
      "stateMutability": "pure",
      "type": "function",
      "constant": true
    }
  ],
  "bytecode": "0x608060405234801561001057600080fd5b506103b6806100206000396000f3fe608060405234801561001057600080fd5b506004361061007d577c010000000000000000000000000000000000000000000000000000000060003504624221f081146100825780630583e9f8146100a85780631b464cc6146100bb57806340c1a064146100d55780639f7a9f381461010d578063c713debc14610116575b600080fd5b6100956100903660046102fd565b610129565b6040519081526020015b60405180910390f35b6100956100b63660046102fd565b610144565b6100956100c93660046102fd565b65010000000000900490565b6100e86100e33660046102fd565b610174565b60405173ffffffffffffffffffffffffffffffffffffffff909116815260200161009f565b61009560005481565b6100956101243660046102b1565b610190565b600061013c60016501000000000061033a565b909116919050565b600061015760016501000000000061033a565b61016a600167010000000000000061033a565b1882169050919050565b600061018260286038610315565b60ff1660020a909104919050565b6000808311610200576040517f08c379a000000000000000000000000000000000000000000000000000000000815260206004820152600e60248201527f696e646578206d757374203e203000000000000000000000000000000000000060448201526064015b60405180910390fd5b6000821161026a576040517f08c379a000000000000000000000000000000000000000000000000000000000815260206004820152600f60248201527f737570706c79206d757374203e2030000000000000000000000000000000000060448201526064016101f7565b60008265010000000000850261028260286038610315565b60ff1660020a73ffffffffffffffffffffffffffffffffffffffff881602171760008190559150509392505050565b6000806000606084860312156102c5578283fd5b833573ffffffffffffffffffffffffffffffffffffffff811681146102e8578384fd5b95602085013595506040909401359392505050565b60006020828403121561030e578081fd5b5035919050565b600060ff821660ff84168060ff0382111561033257610332610351565b019392505050565b60008282101561034c5761034c610351565b500390565b7f4e487b7100000000000000000000000000000000000000000000000000000000600052601160045260246000fdfea2646970667358221220345692cecb068bd9aee68c7a34b366197c1177e4eacd81b4e76e2f7ac3de1b2c64736f6c63430008040033",
  "immutableReferences": {},
  "source": "// SPDX-License-Identifier: MIT\npragma solidity ^0.8.0;\n\nimport {SafeMath} from '../dependencies/openzeppelin/contracts/utils/math/SafeMath.sol';\n\n\ncontract MakeTokenID {\n    using SafeMath for uint256;\n\n    uint8 constant ADDRESS_BITS = 160;\n    uint8 constant INDEX_BITS = 56;\n    uint8 constant SUPPLY_BITS = 40;\n\n    uint256 constant SUPPLY_MASK = (uint256(1) << SUPPLY_BITS) - 1;\n    uint256 constant INDEX_MASK = ((uint256(1) << INDEX_BITS) - 1) ^\n        SUPPLY_MASK;\n        \n    uint256 public newID;\n\n    function tokenMaxSupply(uint256 _id) public pure returns (uint256) {\n        return _id & SUPPLY_MASK;\n    }\n\n    function tokenIndex(uint256 _id) public pure returns (uint256) {\n        return _id & INDEX_MASK;\n    }\n\n    function tokenCreator(uint256 _id) public pure returns (address) {\n        return address(uint160(_id >> (INDEX_BITS + SUPPLY_BITS)));\n    }\n    \n    function makeID(address _creator, uint256 _index, uint256 _supply) public returns(uint256) {\n        require(_index > 0, \"index must > 0\");\n        require(_supply > 0, \"supply must > 0\");\n        uint256 finalId = (uint256(uint160(_creator)) <<  (INDEX_BITS + SUPPLY_BITS)) | (uint256(_index) << SUPPLY_BITS)  | _supply ;\n        newID =  finalId;\n        return finalId;\n    }\n    \n    function indexShift(uint256 index) public pure returns (uint256) {\n        return index>>SUPPLY_BITS;\n    }\n}",
  "sourcePath": "/Users/liyu/Mars/gitlab/element-contract/contracts/mocks/MakeTokenID.sol",
  "compiler": {
    "name": "solc",
    "version": "0.8.4+commit.c7e474f2.Emscripten.clang"
  },
  "schemaVersion": "3.4.0",
  "updatedAt": "2021-05-01T09:06:14.984Z",
  "networkType": "ethereum",
  "devdoc": {
    "kind": "dev",
    "methods": {},
    "version": 1
  },
  "userdoc": {
    "kind": "user",
    "methods": {},
    "version": 1
  }
}