{
  "contractName": "ProxyRegistry",
  "abi": [
    {
      "anonymous": false,
      "inputs": [
        {
          "indexed": true,
          "internalType": "address",
          "name": "previousOwner",
          "type": "address"
        },
        {
          "indexed": true,
          "internalType": "address",
          "name": "newOwner",
          "type": "address"
        }
      ],
      "name": "OwnershipTransferred",
      "type": "event"
    },
    {
      "inputs": [],
      "name": "DELAY_PERIOD",
      "outputs": [
        {
          "internalType": "uint256",
          "name": "",
          "type": "uint256"
        }
      ],
      "stateMutability": "view",
      "type": "function"
    },
    {
      "inputs": [
        {
          "internalType": "address",
          "name": "",
          "type": "address"
        }
      ],
      "name": "contracts",
      "outputs": [
        {
          "internalType": "bool",
          "name": "",
          "type": "bool"
        }
      ],
      "stateMutability": "view",
      "type": "function"
    },
    {
      "inputs": [],
      "name": "delegateProxyImplementation",
      "outputs": [
        {
          "internalType": "address",
          "name": "",
          "type": "address"
        }
      ],
      "stateMutability": "view",
      "type": "function"
    },
    {
      "inputs": [],
      "name": "owner",
      "outputs": [
        {
          "internalType": "address",
          "name": "",
          "type": "address"
        }
      ],
      "stateMutability": "view",
      "type": "function"
    },
    {
      "inputs": [
        {
          "internalType": "address",
          "name": "",
          "type": "address"
        }
      ],
      "name": "pending",
      "outputs": [
        {
          "internalType": "uint256",
          "name": "",
          "type": "uint256"
        }
      ],
      "stateMutability": "view",
      "type": "function"
    },
    {
      "inputs": [
        {
          "internalType": "address",
          "name": "",
          "type": "address"
        }
      ],
      "name": "proxies",
      "outputs": [
        {
          "internalType": "contract OwnableDelegateProxy",
          "name": "",
          "type": "address"
        }
      ],
      "stateMutability": "view",
      "type": "function"
    },
    {
      "inputs": [],
      "name": "renounceOwnership",
      "outputs": [],
      "stateMutability": "nonpayable",
      "type": "function"
    },
    {
      "inputs": [
        {
          "internalType": "address",
          "name": "newOwner",
          "type": "address"
        }
      ],
      "name": "transferOwnership",
      "outputs": [],
      "stateMutability": "nonpayable",
      "type": "function"
    },
    {
      "inputs": [
        {
          "internalType": "address",
          "name": "addr",
          "type": "address"
        }
      ],
      "name": "startGrantAuthentication",
      "outputs": [],
      "stateMutability": "nonpayable",
      "type": "function"
    },
    {
      "inputs": [
        {
          "internalType": "address",
          "name": "addr",
          "type": "address"
        }
      ],
      "name": "endGrantAuthentication",
      "outputs": [],
      "stateMutability": "nonpayable",
      "type": "function"
    },
    {
      "inputs": [
        {
          "internalType": "address",
          "name": "addr",
          "type": "address"
        }
      ],
      "name": "revokeAuthentication",
      "outputs": [],
      "stateMutability": "nonpayable",
      "type": "function"
    },
    {
      "inputs": [],
      "name": "registerProxy",
      "outputs": [
        {
          "internalType": "contract OwnableDelegateProxy",
          "name": "proxy",
          "type": "address"
        }
      ],
      "stateMutability": "nonpayable",
      "type": "function"
    }
  ],
  "bytecode": "0x60806040526203f48060055534801561001757600080fd5b50600061002b64010000000061007a810204565b60008054600160a060020a031916600160a060020a0383169081178255604051929350917f8be0079c531659141344cd1fd0a4f28419497f9722a3daafe3b4186f6b6457e0908290a35061007e565b3390565b610f678061008d6000396000f3fe608060405234801561001057600080fd5b50600436106100d1576000357c01000000000000000000000000000000000000000000000000000000009004806397204d8e1161008e57806397204d8e14610191578063c4552791146101a4578063d4e8e063146101cd578063ddd81f82146101e0578063e71a02e1146101e8578063f2fde38b146101f157600080fd5b806338b6e407146100d657806353376d1f146100eb5780635eebea20146100fe57806369dc9ff314610131578063715018a6146101645780638da5cb5b1461016c575b600080fd5b6100e96100e43660046106b8565b610204565b005b6100e96100f93660046106b8565b6102e4565b61011e61010c3660046106b8565b60036020526000908152604090205481565b6040519081526020015b60405180910390f35b61015461013f3660046106b8565b60046020526000908152604090205460ff1681565b6040519015158152602001610128565b6100e9610332565b600054600160a060020a03165b604051600160a060020a039091168152602001610128565b60015461017990600160a060020a031681565b6101796101b23660046106b8565b600260205260009081526040902054600160a060020a031681565b6100e96101db3660046106b8565b6103b6565b610179610447565b61011e60055481565b6100e96101ff3660046106b8565b610597565b600054600160a060020a0316331461023a5760405160e560020a62461bcd02815260040161023190610756565b60405180910390fd5b600160a060020a03811660009081526004602052604090205460ff1615801561027a5750600160a060020a03811660009081526003602052604090205415155b80156102aa5750600554600160a060020a03821660009081526003602052604090205442916102a89161078b565b105b6102b357600080fd5b600160a060020a0316600090815260036020908152604080832083905560049091529020805460ff19166001179055565b600054600160a060020a031633146103115760405160e560020a62461bcd02815260040161023190610756565b600160a060020a03166000908152600460205260409020805460ff19169055565b600054600160a060020a0316331461035f5760405160e560020a62461bcd02815260040161023190610756565b60008054604051600160a060020a03909116907f8be0079c531659141344cd1fd0a4f28419497f9722a3daafe3b4186f6b6457e0908390a36000805473ffffffffffffffffffffffffffffffffffffffff19169055565b600054600160a060020a031633146103e35760405160e560020a62461bcd02815260040161023190610756565b600160a060020a03811660009081526004602052604090205460ff161580156104225750600160a060020a038116600090815260036020526040902054155b61042b57600080fd5b600160a060020a03166000908152600360205260409020429055565b33600090815260026020526040812054600160a060020a0316156104b05760405160e560020a62461bcd02815260206004820152600c60248201527f64757020726567697374657200000000000000000000000000000000000000006044820152606401610231565b600154604051336024820181905230604483015291600160a060020a03169060640160408051601f198184030181529181526020820180517bffffffffffffffffffffffffffffffffffffffffffffffffffffffff167f485cc9550000000000000000000000000000000000000000000000000000000017905251610534906106ab565b610540939291906106e6565b604051809103906000f08015801561055c573d6000803e3d6000fd5b50336000908152600260205260409020805473ffffffffffffffffffffffffffffffffffffffff1916600160a060020a038316179055919050565b600054600160a060020a031633146105c45760405160e560020a62461bcd02815260040161023190610756565b600160a060020a0381166106435760405160e560020a62461bcd02815260206004820152602660248201527f4f776e61626c653a206e6577206f776e657220697320746865207a65726f206160448201527f64647265737300000000000000000000000000000000000000000000000000006064820152608401610231565b60008054604051600160a060020a03808516939216917f8be0079c531659141344cd1fd0a4f28419497f9722a3daafe3b4186f6b6457e091a36000805473ffffffffffffffffffffffffffffffffffffffff1916600160a060020a0392909216919091179055565b610769806107c983390190565b6000602082840312156106c9578081fd5b8135600160a060020a03811681146106df578182fd5b9392505050565b6000600160a060020a0380861683526020818616818501526060604085015284519150816060850152825b8281101561072d57858101820151858201608001528101610711565b8281111561073e5783608084870101525b5050601f01601f191691909101608001949350505050565b6020808252818101527f4f776e61626c653a2063616c6c6572206973206e6f7420746865206f776e6572604082015260600190565b600082198211156107c3577f4e487b710000000000000000000000000000000000000000000000000000000081526011600452602481fd5b50019056fe608060405234801561001057600080fd5b5060405161076938038061076983398101604081905261002f91610165565b610041836401000000006100c4810204565b610053826401000000006100e6810204565b600082600160a060020a03168260405161006d9190610231565b600060405180830381855af49150503d80600081146100a8576040519150601f19603f3d011682016040523d82523d6000602084013e6100ad565b606091505b50509050806100bb57600080fd5b505050506102ac565b60018054600160a060020a031916600160a060020a0392909216919091179055565b600054600160a060020a038281169116141561010157600080fd5b60008054600160a060020a031916600160a060020a038316908117825560405190917fbc7cd75a20ee27fd9adebab32041f755214dbc6bffa90cc0225b39da2e5c2d3b91a250565b8051600160a060020a038116811461016057600080fd5b919050565b600080600060608486031215610179578283fd5b61018284610149565b925061019060208501610149565b9150604084015167ffffffffffffffff808211156101ac578283fd5b818601915086601f8301126101bf578283fd5b8151818111156101d1576101d161027d565b604051601f8201601f19908116603f011681019083821181831017156101f9576101f961027d565b81604052828152896020848701011115610211578586fd5b61022283602083016020880161024d565b80955050505050509250925092565b6000825161024381846020870161024d565b9190910192915050565b60005b83811015610268578181015183820152602001610250565b83811115610277576000848401525b50505050565b7f4e487b7100000000000000000000000000000000000000000000000000000000600052604160045260246000fd5b6104ae806102bb6000396000f3fe60806040526004361061008d576000357c0100000000000000000000000000000000000000000000000000000000900480634f1ef2861161006b5780634f1ef286146101385780635c60da1b1461014b5780636fde820214610169578063f1739cae146101875761008d565b8063025313a2146100c85780633659cfe6146100fa5780634555d5c91461011c575b600054600160a060020a0316806100a357600080fd5b60405136600082376000803683855af43d806000843e8180156100c4578184f35b8184fd5b3480156100d457600080fd5b506100dd6101a7565b604051600160a060020a0390911681526020015b60405180910390f35b34801561010657600080fd5b5061011a6101153660046103c9565b6101c0565b005b34801561012857600080fd5b50604051600281526020016100f1565b61011a6101463660046103ea565b6101f1565b34801561015757600080fd5b50600054600160a060020a03166100dd565b34801561017557600080fd5b50600154600160a060020a03166100dd565b34801561019357600080fd5b5061011a6101a23660046103c9565b61028f565b60006101bb600154600160a060020a031690565b905090565b6101c86101a7565b600160a060020a031633600160a060020a0316146101e557600080fd5b6101ee8161033d565b50565b6101f96101a7565b600160a060020a031633600160a060020a03161461021657600080fd5b61021f836101c0565b600030600160a060020a0316838360405161023b929190610468565b600060405180830381855af49150503d8060008114610276576040519150601f19603f3d011682016040523d82523d6000602084013e61027b565b606091505b505090508061028957600080fd5b50505050565b6102976101a7565b600160a060020a031633600160a060020a0316146102b457600080fd5b600160a060020a0381166102c757600080fd5b7f5a3e66efaa1e445ebd894728a69d6959842ea1e97bd79b892797106e270efcd96102f06101a7565b60408051600160a060020a03928316815291841660208301520160405180910390a16001805473ffffffffffffffffffffffffffffffffffffffff1916600160a060020a03831617905550565b600054600160a060020a038281169116141561035857600080fd5b6000805473ffffffffffffffffffffffffffffffffffffffff1916600160a060020a038316908117825560405190917fbc7cd75a20ee27fd9adebab32041f755214dbc6bffa90cc0225b39da2e5c2d3b91a250565b8035600160a060020a03811681146103c457600080fd5b919050565b6000602082840312156103da578081fd5b6103e3826103ad565b9392505050565b6000806000604084860312156103fe578182fd5b610407846103ad565b9250602084013567ffffffffffffffff80821115610423578384fd5b818601915086601f830112610436578384fd5b813581811115610444578485fd5b876020828501011115610455578485fd5b6020830194508093505050509250925092565b818382376000910190815291905056fea26469706673582212203cbffdb2613ac8372a18b65d0af0ecbcbc8f212b5ef7376d20b87512dcd3c4ea64736f6c63430008040033a264697066735822122059321968cad29c4f30e775b7f39fa02e27f0cf9dd312eb9f447a0c89d8aee8e664736f6c63430008040033",
  "immutableReferences": {},
  "source": "// SPDX-License-Identifier: MIT\npragma solidity ^0.8.0;\n\nimport {Ownable} from '../dependencies/openzeppelin/contracts/access/Ownable.sol';\nimport {OwnableDelegateProxy} from './OwnableDelegateProxy.sol';\n\n\ncontract ProxyRegistry is Ownable {\n\n    /* DelegateProxy implementation contract. Must be initialized. */\n    address public delegateProxyImplementation;\n\n    /* Authenticated proxies by user. */\n    mapping(address => OwnableDelegateProxy) public proxies;\n\n    /* Contracts pending access. */\n    mapping(address => uint) public pending;\n\n    /* Contracts allowed to call those proxies. */\n    mapping(address => bool) public contracts;\n\n    /* Delay period for adding an authenticated contract.\n       This mitigates a particular class of potential attack on the Elementix DAO (which owns this registry) - if at any point the value of assets held by proxy contracts exceeded the value of half the ELT supply (votes in the DAO),\n       a malicious but rational attacker could buy half the Elementix and grant themselves access to all the proxy contracts. A delay period renders this attack nonthreatening - given two weeks, if that happened, users would have\n       plenty of time to notice and transfer their assets.\n    */\n    uint public DELAY_PERIOD = 3 days;\n\n    /**\n     * Start the process to enable access for specified contract. Subject to delay period.\n     *\n     * @dev ProxyRegistry owner only\n     * @param addr Address to which to grant permissions\n     */\n    function startGrantAuthentication (address addr)\n        public\n        onlyOwner\n    {\n        require(!contracts[addr] && pending[addr] == 0);\n        pending[addr] = block.timestamp;\n    }\n\n    /**\n     * End the process to nable access for specified contract after delay period has passed.\n     *\n     * @dev ProxyRegistry owner only\n     * @param addr Address to which to grant permissions\n     */\n    function endGrantAuthentication (address addr)\n        public\n        onlyOwner\n    {\n        require(!contracts[addr] && pending[addr] != 0 && ((pending[addr] + DELAY_PERIOD) < block.timestamp));\n        pending[addr] = 0;\n        contracts[addr] = true;\n    }\n\n    /**\n     * Revoke access for specified contract. Can be done instantly.\n     *\n     * @dev ProxyRegistry owner only\n     * @param addr Address of which to revoke permissions\n     */    \n    function revokeAuthentication (address addr)\n        public\n        onlyOwner\n    {\n        contracts[addr] = false;\n    }\n\n    /**\n     * Register a proxy contract with this registry\n     *\n     * @dev Must be called by the user which the proxy is for, creates a new AuthenticatedProxy\n     * @return proxy New AuthenticatedProxy contract\n     */\n    function registerProxy()\n        public\n        returns (OwnableDelegateProxy proxy)\n    {\n        require(address(proxies[msg.sender]) == address(0),\"dup register\");\n        proxy = new OwnableDelegateProxy(msg.sender, delegateProxyImplementation, abi.encodeWithSignature(\"initialize(address,address)\", msg.sender, address(this)));\n        proxies[msg.sender] = proxy;\n        return proxy;\n    }\n\n}",
  "sourcePath": "/Users/liyu/Mars/gitlab/element-contract/contracts/elementix/ProxyRegistry.sol",
  "compiler": {
    "name": "solc",
    "version": "0.8.4+commit.c7e474f2.Emscripten.clang"
  },
  "schemaVersion": "3.4.0",
  "updatedAt": "2021-05-01T09:04:55.896Z",
  "devdoc": {
    "kind": "dev",
    "methods": {
      "endGrantAuthentication(address)": {
        "details": "ProxyRegistry owner only",
        "params": {
          "addr": "Address to which to grant permissions"
        }
      },
      "owner()": {
        "details": "Returns the address of the current owner."
      },
      "registerProxy()": {
        "details": "Must be called by the user which the proxy is for, creates a new AuthenticatedProxy",
        "returns": {
          "proxy": "New AuthenticatedProxy contract"
        }
      },
      "renounceOwnership()": {
        "details": "Leaves the contract without owner. It will not be possible to call `onlyOwner` functions anymore. Can only be called by the current owner. NOTE: Renouncing ownership will leave the contract without an owner, thereby removing any functionality that is only available to the owner."
      },
      "revokeAuthentication(address)": {
        "details": "ProxyRegistry owner only",
        "params": {
          "addr": "Address of which to revoke permissions"
        }
      },
      "startGrantAuthentication(address)": {
        "details": "ProxyRegistry owner only",
        "params": {
          "addr": "Address to which to grant permissions"
        }
      },
      "transferOwnership(address)": {
        "details": "Transfers ownership of the contract to a new account (`newOwner`). Can only be called by the current owner."
      }
    },
    "version": 1
  },
  "userdoc": {
    "kind": "user",
    "methods": {
      "endGrantAuthentication(address)": {
        "notice": "End the process to nable access for specified contract after delay period has passed."
      },
      "registerProxy()": {
        "notice": "Register a proxy contract with this registry"
      },
      "revokeAuthentication(address)": {
        "notice": "Revoke access for specified contract. Can be done instantly."
      },
      "startGrantAuthentication(address)": {
        "notice": "Start the process to enable access for specified contract. Subject to delay period."
      }
    },
    "version": 1
  }
}