{
  "contractName": "WETH9Mocked",
  "abi": [
    {
      "anonymous": false,
      "inputs": [
        {
          "indexed": true,
          "internalType": "address",
          "name": "src",
          "type": "address"
        },
        {
          "indexed": true,
          "internalType": "address",
          "name": "guy",
          "type": "address"
        },
        {
          "indexed": false,
          "internalType": "uint256",
          "name": "wad",
          "type": "uint256"
        }
      ],
      "name": "Approval",
      "type": "event"
    },
    {
      "anonymous": false,
      "inputs": [
        {
          "indexed": true,
          "internalType": "address",
          "name": "dst",
          "type": "address"
        },
        {
          "indexed": false,
          "internalType": "uint256",
          "name": "wad",
          "type": "uint256"
        }
      ],
      "name": "Deposit",
      "type": "event"
    },
    {
      "anonymous": false,
      "inputs": [
        {
          "indexed": true,
          "internalType": "address",
          "name": "src",
          "type": "address"
        },
        {
          "indexed": true,
          "internalType": "address",
          "name": "dst",
          "type": "address"
        },
        {
          "indexed": false,
          "internalType": "uint256",
          "name": "wad",
          "type": "uint256"
        }
      ],
      "name": "Transfer",
      "type": "event"
    },
    {
      "anonymous": false,
      "inputs": [
        {
          "indexed": true,
          "internalType": "address",
          "name": "src",
          "type": "address"
        },
        {
          "indexed": false,
          "internalType": "uint256",
          "name": "wad",
          "type": "uint256"
        }
      ],
      "name": "Withdrawal",
      "type": "event"
    },
    {
      "inputs": [
        {
          "internalType": "address",
          "name": "",
          "type": "address"
        },
        {
          "internalType": "address",
          "name": "",
          "type": "address"
        }
      ],
      "name": "allowance",
      "outputs": [
        {
          "internalType": "uint256",
          "name": "",
          "type": "uint256"
        }
      ],
      "stateMutability": "view",
      "type": "function",
      "constant": true
    },
    {
      "inputs": [
        {
          "internalType": "address",
          "name": "guy",
          "type": "address"
        },
        {
          "internalType": "uint256",
          "name": "wad",
          "type": "uint256"
        }
      ],
      "name": "approve",
      "outputs": [
        {
          "internalType": "bool",
          "name": "",
          "type": "bool"
        }
      ],
      "stateMutability": "nonpayable",
      "type": "function"
    },
    {
      "inputs": [
        {
          "internalType": "address",
          "name": "",
          "type": "address"
        }
      ],
      "name": "balanceOf",
      "outputs": [
        {
          "internalType": "uint256",
          "name": "",
          "type": "uint256"
        }
      ],
      "stateMutability": "view",
      "type": "function",
      "constant": true
    },
    {
      "inputs": [],
      "name": "decimals",
      "outputs": [
        {
          "internalType": "uint8",
          "name": "",
          "type": "uint8"
        }
      ],
      "stateMutability": "view",
      "type": "function",
      "constant": true
    },
    {
      "inputs": [],
      "name": "deposit",
      "outputs": [],
      "stateMutability": "payable",
      "type": "function",
      "payable": true
    },
    {
      "inputs": [],
      "name": "name",
      "outputs": [
        {
          "internalType": "string",
          "name": "",
          "type": "string"
        }
      ],
      "stateMutability": "view",
      "type": "function",
      "constant": true
    },
    {
      "inputs": [],
      "name": "symbol",
      "outputs": [
        {
          "internalType": "string",
          "name": "",
          "type": "string"
        }
      ],
      "stateMutability": "view",
      "type": "function",
      "constant": true
    },
    {
      "inputs": [],
      "name": "totalSupply",
      "outputs": [
        {
          "internalType": "uint256",
          "name": "",
          "type": "uint256"
        }
      ],
      "stateMutability": "view",
      "type": "function",
      "constant": true
    },
    {
      "inputs": [
        {
          "internalType": "address",
          "name": "dst",
          "type": "address"
        },
        {
          "internalType": "uint256",
          "name": "wad",
          "type": "uint256"
        }
      ],
      "name": "transfer",
      "outputs": [
        {
          "internalType": "bool",
          "name": "",
          "type": "bool"
        }
      ],
      "stateMutability": "nonpayable",
      "type": "function"
    },
    {
      "inputs": [
        {
          "internalType": "address",
          "name": "src",
          "type": "address"
        },
        {
          "internalType": "address",
          "name": "dst",
          "type": "address"
        },
        {
          "internalType": "uint256",
          "name": "wad",
          "type": "uint256"
        }
      ],
      "name": "transferFrom",
      "outputs": [
        {
          "internalType": "bool",
          "name": "",
          "type": "bool"
        }
      ],
      "stateMutability": "nonpayable",
      "type": "function"
    },
    {
      "inputs": [
        {
          "internalType": "uint256",
          "name": "wad",
          "type": "uint256"
        }
      ],
      "name": "withdraw",
      "outputs": [],
      "stateMutability": "nonpayable",
      "type": "function"
    },
    {
      "stateMutability": "payable",
      "type": "receive",
      "payable": true
    },
    {
      "inputs": [
        {
          "internalType": "uint256",
          "name": "value",
          "type": "uint256"
        }
      ],
      "name": "mint",
      "outputs": [],
      "stateMutability": "nonpayable",
      "type": "function"
    }
  ],
  "bytecode": "0x60c0604052600b60808190527f577261707065642045544800000000000000000000000000000000000000000060a090815261003e91600091906100a3565b506040805180820190915260048082527f57455448000000000000000000000000000000000000000000000000000000006020909201918252610083916001916100a3565b506002805460ff1916601217905534801561009d57600080fd5b50610190565b8280546100af9061013c565b90600052602060002090601f0160209004810192826100d15760008555610117565b82601f106100ea57805160ff1916838001178555610117565b82800160010185558215610117579182015b828111156101175782518255916020019190600101906100fc565b50610123929150610127565b5090565b5b808211156101235760008155600101610128565b60028104600182168061015057607f821691505b6020821081141561018a577f4e487b7100000000000000000000000000000000000000000000000000000000600052602260045260246000fd5b50919050565b6108a18061019f6000396000f3fe6080604052600436106100c8576000357c01000000000000000000000000000000000000000000000000000000009004806370a082311161008157806370a08231146101c157806395d89b41146101ee578063a0712d6814610203578063a9059cbb14610223578063d0e30db014610243578063dd62ed3e1461024b57600080fd5b806306fdde03146100dc578063095ea7b31461010757806318160ddd1461013757806323b872dd146101555780632e1a7d4d14610175578063313ce5671461019557600080fd5b366100d7576100d5610283565b005b600080fd5b3480156100e857600080fd5b506100f16102de565b6040516100fe9190610766565b60405180910390f35b34801561011357600080fd5b50610127610122366004610725565b61036c565b60405190151581526020016100fe565b34801561014357600080fd5b5030315b6040519081526020016100fe565b34801561016157600080fd5b506101276101703660046106ea565b6103d8565b34801561018157600080fd5b506100d561019036600461074e565b61055c565b3480156101a157600080fd5b506002546101af9060ff1681565b60405160ff90911681526020016100fe565b3480156101cd57600080fd5b506101476101dc36600461069e565b60036020526000908152604090205481565b3480156101fa57600080fd5b506100f1610602565b34801561020f57600080fd5b506100d561021e36600461074e565b61060f565b34801561022f57600080fd5b5061012761023e366004610725565b61066e565b6100d5610283565b34801561025757600080fd5b506101476102663660046106b8565b600460209081526000928352604080842090915290825290205481565b33600090815260036020526040812080543492906102a29084906107b9565b909155505060405134815233907fe1fffcc4923d04b559f4d29a8bfc6cda04eb5b0d3c460751c2402c5c5cc9109c9060200160405180910390a2565b600080546102eb906107e8565b80601f0160208091040260200160405190810160405280929190818152602001828054610317906107e8565b80156103645780601f1061033957610100808354040283529160200191610364565b820191906000526020600020905b81548152906001019060200180831161034757829003601f168201915b505050505081565b336000818152600460209081526040808320600160a060020a038716808552925280832085905551919290917f8c5be1e5ebec7d5bd14f71427d1e84f3dd0314c0f7b2291e5b200ac8c7c3b925906103c79086815260200190565b60405180910390a350600192915050565b600160a060020a0383166000908152600360205260408120548211156103fd57600080fd5b600160a060020a038416331480159061043b5750600160a060020a038416600090815260046020908152604080832033845290915290205460001914155b156104a957600160a060020a038416600090815260046020908152604080832033845290915290205482111561047057600080fd5b600160a060020a0384166000908152600460209081526040808320338452909152812080548492906104a39084906107d1565b90915550505b600160a060020a038416600090815260036020526040812080548492906104d19084906107d1565b9091555050600160a060020a038316600090815260036020526040812080548492906104fe9084906107b9565b9250508190555082600160a060020a031684600160a060020a03167fddf252ad1be2c89b69c2b068fc378daa952ba7f163c4a11628f55a4df523b3ef8460405161054a91815260200190565b60405180910390a35060019392505050565b3360009081526003602052604090205481111561057857600080fd5b33600090815260036020526040812080548392906105979084906107d1565b9091555050604051339082156108fc029083906000818181858888f193505050501580156105c9573d6000803e3d6000fd5b5060405181815233907f7fcf532c15f0a6db0bd6d0e038bea71d30d808c7d98cb3bf7268a95bf5081b659060200160405180910390a250565b600180546102eb906107e8565b336000908152600360205260408120805483929061062e9084906107b9565b909155505060405181815233906000907fddf252ad1be2c89b69c2b068fc378daa952ba7f163c4a11628f55a4df523b3ef9060200160405180910390a350565b600061067b3384846103d8565b9392505050565b8035600160a060020a038116811461069957600080fd5b919050565b6000602082840312156106af578081fd5b61067b82610682565b600080604083850312156106ca578081fd5b6106d383610682565b91506106e160208401610682565b90509250929050565b6000806000606084860312156106fe578081fd5b61070784610682565b925061071560208501610682565b9150604084013590509250925092565b60008060408385031215610737578182fd5b61074083610682565b946020939093013593505050565b60006020828403121561075f578081fd5b5035919050565b6000602080835283518082850152825b8181101561079257858101830151858201604001528201610776565b818111156107a35783604083870101525b50601f01601f1916929092016040019392505050565b600082198211156107cc576107cc61083c565b500190565b6000828210156107e3576107e361083c565b500390565b6002810460018216806107fc57607f821691505b60208210811415610836577f4e487b7100000000000000000000000000000000000000000000000000000000600052602260045260246000fd5b50919050565b7f4e487b7100000000000000000000000000000000000000000000000000000000600052601160045260246000fdfea26469706673582212205f8c0f45f5ac661acce0b910d37b94cc040ca3d52f1d947fb68ecdbfe7d1fa3e64736f6c63430008040033",
  "immutableReferences": {},
  "source": "// SPDX-License-Identifier: agpl-3.0\npragma solidity ^0.8.0;\n\nimport {WETH9} from './WETH9.sol';\n\ncontract WETH9Mocked is WETH9 {\n  // Mint not backed by Ether: only for testing purposes\n  function mint(uint256 value) public {\n    balanceOf[msg.sender] += value;\n    emit Transfer(address(0), msg.sender, value);\n  }\n}\n",
  "sourcePath": "/Users/liyu/Mars/gitlab/element-contract/contracts/mocks/token/WETH9Mocked.sol",
  "compiler": {
    "name": "solc",
    "version": "0.8.4+commit.c7e474f2.Emscripten.clang"
  },
  "schemaVersion": "3.4.0",
  "updatedAt": "2021-05-01T09:06:12.433Z",
  "networkType": "ethereum",
  "devdoc": {
    "kind": "dev",
    "methods": {},
    "version": 1
  },
  "userdoc": {
    "kind": "user",
    "methods": {},
    "version": 1
  }
}